{"abi":[{"type":"constructor","inputs":[{"name":"_vaultHub","type":"address","internalType":"address"},{"name":"_lidoLocator","type":"address","internalType":"address"}],"stateMutability":"nonpayable"},{"type":"function","name":"BURN_ROLE","inputs":[],"outputs":[{"name":"","type":"bytes32","internalType":"bytes32"}],"stateMutability":"view"},{"type":"function","name":"DEFAULT_ADMIN_ROLE","inputs":[],"outputs":[{"name":"","type":"bytes32","internalType":"bytes32"}],"stateMutability":"view"},{"type":"function","name":"FUND_ROLE","inputs":[],"outputs":[{"name":"","type":"bytes32","internalType":"bytes32"}],"stateMutability":"view"},{"type":"function","name":"LIDO_LOCATOR","inputs":[],"outputs":[{"name":"","type":"address","internalType":"contract ILidoLocator"}],"stateMutability":"view"},{"type":"function","name":"MAX_CONFIRM_EXPIRY","inputs":[],"outputs":[{"name":"","type":"uint256","internalType":"uint256"}],"stateMutability":"view"},{"type":"function","name":"MINT_ROLE","inputs":[],"outputs":[{"name":"","type":"bytes32","internalType":"bytes32"}],"stateMutability":"view"},{"type":"function","name":"MIN_CONFIRM_EXPIRY","inputs":[],"outputs":[{"name":"","type":"uint256","internalType":"uint256"}],"stateMutability":"view"},{"type":"function","name":"NODE_OPERATOR_FEE_EXEMPT_ROLE","inputs":[],"outputs":[{"name":"","type":"bytes32","internalType":"bytes32"}],"stateMutability":"view"},{"type":"function","name":"NODE_OPERATOR_MANAGER_ROLE","inputs":[],"outputs":[{"name":"","type":"bytes32","internalType":"bytes32"}],"stateMutability":"view"},{"type":"function","name":"NODE_OPERATOR_PROVE_UNKNOWN_VALIDATOR_ROLE","inputs":[],"outputs":[{"name":"","type":"bytes32","internalType":"bytes32"}],"stateMutability":"view"},{"type":"function","name":"NODE_OPERATOR_UNGUARANTEED_DEPOSIT_ROLE","inputs":[],"outputs":[{"name":"","type":"bytes32","internalType":"bytes32"}],"stateMutability":"view"},{"type":"function","name":"PAUSE_BEACON_CHAIN_DEPOSITS_ROLE","inputs":[],"outputs":[{"name":"","type":"bytes32","internalType":"bytes32"}],"stateMutability":"view"},{"type":"function","name":"REBALANCE_ROLE","inputs":[],"outputs":[{"name":"","type":"bytes32","internalType":"bytes32"}],"stateMutability":"view"},{"type":"function","name":"REQUEST_VALIDATOR_EXIT_ROLE","inputs":[],"outputs":[{"name":"","type":"bytes32","internalType":"bytes32"}],"stateMutability":"view"},{"type":"function","name":"RESUME_BEACON_CHAIN_DEPOSITS_ROLE","inputs":[],"outputs":[{"name":"","type":"bytes32","internalType":"bytes32"}],"stateMutability":"view"},{"type":"function","name":"TRIGGER_VALIDATOR_WITHDRAWAL_ROLE","inputs":[],"outputs":[{"name":"","type":"bytes32","internalType":"bytes32"}],"stateMutability":"view"},{"type":"function","name":"VAULT_CONFIGURATION_ROLE","inputs":[],"outputs":[{"name":"","type":"bytes32","internalType":"bytes32"}],"stateMutability":"view"},{"type":"function","name":"VAULT_HUB","inputs":[],"outputs":[{"name":"","type":"address","internalType":"contract VaultHub"}],"stateMutability":"view"},{"type":"function","name":"VOLUNTARY_DISCONNECT_ROLE","inputs":[],"outputs":[{"name":"","type":"bytes32","internalType":"bytes32"}],"stateMutability":"view"},{"type":"function","name":"WITHDRAW_ROLE","inputs":[],"outputs":[{"name":"","type":"bytes32","internalType":"bytes32"}],"stateMutability":"view"},{"type":"function","name":"accruedFee","inputs":[],"outputs":[{"name":"fee","type":"uint256","internalType":"uint256"}],"stateMutability":"view"},{"type":"function","name":"addFeeExemption","inputs":[{"name":"_exemptedAmount","type":"uint256","internalType":"uint256"}],"outputs":[],"stateMutability":"nonpayable"},{"type":"function","name":"confirmation","inputs":[{"name":"_callData","type":"bytes","internalType":"bytes"},{"name":"_role","type":"bytes32","internalType":"bytes32"}],"outputs":[{"name":"","type":"uint256","internalType":"uint256"}],"stateMutability":"view"},{"type":"function","name":"confirmingRoles","inputs":[],"outputs":[{"name":"roles","type":"bytes32[]","internalType":"bytes32[]"}],"stateMutability":"pure"},{"type":"function","name":"correctSettledGrowth","inputs":[{"name":"_newSettledGrowth","type":"int256","internalType":"int256"},{"name":"_expectedSettledGrowth","type":"int256","internalType":"int256"}],"outputs":[{"name":"","type":"bool","internalType":"bool"}],"stateMutability":"nonpayable"},{"type":"function","name":"disburseFee","inputs":[],"outputs":[],"stateMutability":"nonpayable"},{"type":"function","name":"feeRate","inputs":[],"outputs":[{"name":"","type":"uint16","internalType":"uint16"}],"stateMutability":"view"},{"type":"function","name":"feeRecipient","inputs":[],"outputs":[{"name":"","type":"address","internalType":"address"}],"stateMutability":"view"},{"type":"function","name":"getConfirmExpiry","inputs":[],"outputs":[{"name":"","type":"uint256","internalType":"uint256"}],"stateMutability":"view"},{"type":"function","name":"getRoleAdmin","inputs":[{"name":"role","type":"bytes32","internalType":"bytes32"}],"outputs":[{"name":"","type":"bytes32","internalType":"bytes32"}],"stateMutability":"view"},{"type":"function","name":"getRoleMember","inputs":[{"name":"role","type":"bytes32","internalType":"bytes32"},{"name":"index","type":"uint256","internalType":"uint256"}],"outputs":[{"name":"","type":"address","internalType":"address"}],"stateMutability":"view"},{"type":"function","name":"getRoleMemberCount","inputs":[{"name":"role","type":"bytes32","internalType":"bytes32"}],"outputs":[{"name":"","type":"uint256","internalType":"uint256"}],"stateMutability":"view"},{"type":"function","name":"getRoleMembers","inputs":[{"name":"role","type":"bytes32","internalType":"bytes32"}],"outputs":[{"name":"","type":"address[]","internalType":"address[]"}],"stateMutability":"view"},{"type":"function","name":"grantRole","inputs":[{"name":"role","type":"bytes32","internalType":"bytes32"},{"name":"account","type":"address","internalType":"address"}],"outputs":[],"stateMutability":"nonpayable"},{"type":"function","name":"grantRoles","inputs":[{"name":"_assignments","type":"tuple[]","internalType":"struct Permissions.RoleAssignment[]","components":[{"name":"account","type":"address","internalType":"address"},{"name":"role","type":"bytes32","internalType":"bytes32"}]}],"outputs":[],"stateMutability":"nonpayable"},{"type":"function","name":"hasRole","inputs":[{"name":"role","type":"bytes32","internalType":"bytes32"},{"name":"account","type":"address","internalType":"address"}],"outputs":[{"name":"","type":"bool","internalType":"bool"}],"stateMutability":"view"},{"type":"function","name":"initialized","inputs":[],"outputs":[{"name":"","type":"bool","internalType":"bool"}],"stateMutability":"view"},{"type":"function","name":"isApprovedToConnect","inputs":[],"outputs":[{"name":"","type":"bool","internalType":"bool"}],"stateMutability":"view"},{"type":"function","name":"latestCorrectionTimestamp","inputs":[],"outputs":[{"name":"","type":"uint64","internalType":"uint64"}],"stateMutability":"view"},{"type":"function","name":"latestReport","inputs":[],"outputs":[{"name":"","type":"tuple","internalType":"struct VaultHub.Report","components":[{"name":"totalValue","type":"uint104","internalType":"uint104"},{"name":"inOutDelta","type":"int104","internalType":"int104"},{"name":"timestamp","type":"uint48","internalType":"uint48"}]}],"stateMutability":"view"},{"type":"function","name":"renounceRole","inputs":[{"name":"role","type":"bytes32","internalType":"bytes32"},{"name":"callerConfirmation","type":"address","internalType":"address"}],"outputs":[],"stateMutability":"nonpayable"},{"type":"function","name":"revokeRole","inputs":[{"name":"role","type":"bytes32","internalType":"bytes32"},{"name":"account","type":"address","internalType":"address"}],"outputs":[],"stateMutability":"nonpayable"},{"type":"function","name":"revokeRoles","inputs":[{"name":"_assignments","type":"tuple[]","internalType":"struct Permissions.RoleAssignment[]","components":[{"name":"account","type":"address","internalType":"address"},{"name":"role","type":"bytes32","internalType":"bytes32"}]}],"outputs":[],"stateMutability":"nonpayable"},{"type":"function","name":"setApprovedToConnect","inputs":[{"name":"_isApproved","type":"bool","internalType":"bool"}],"outputs":[],"stateMutability":"nonpayable"},{"type":"function","name":"setConfirmExpiry","inputs":[{"name":"_newConfirmExpiry","type":"uint256","internalType":"uint256"}],"outputs":[{"name":"","type":"bool","internalType":"bool"}],"stateMutability":"nonpayable"},{"type":"function","name":"setFeeRate","inputs":[{"name":"_newFeeRate","type":"uint256","internalType":"uint256"}],"outputs":[{"name":"","type":"bool","internalType":"bool"}],"stateMutability":"nonpayable"},{"type":"function","name":"setFeeRecipient","inputs":[{"name":"_newFeeRecipient","type":"address","internalType":"address"}],"outputs":[],"stateMutability":"nonpayable"},{"type":"function","name":"settledGrowth","inputs":[],"outputs":[{"name":"","type":"int128","internalType":"int128"}],"stateMutability":"view"},{"type":"function","name":"stakingVault","inputs":[],"outputs":[{"name":"","type":"address","internalType":"contract IStakingVault"}],"stateMutability":"view"},{"type":"function","name":"supportsInterface","inputs":[{"name":"interfaceId","type":"bytes4","internalType":"bytes4"}],"outputs":[{"name":"","type":"bool","internalType":"bool"}],"stateMutability":"view"},{"type":"event","name":"ApprovedToConnectSet","inputs":[{"name":"isApproved","type":"bool","indexed":false,"internalType":"bool"}],"anonymous":false},{"type":"event","name":"ConfirmExpirySet","inputs":[{"name":"sender","type":"address","indexed":true,"internalType":"address"},{"name":"oldConfirmExpiry","type":"uint256","indexed":false,"internalType":"uint256"},{"name":"newConfirmExpiry","type":"uint256","indexed":false,"internalType":"uint256"}],"anonymous":false},{"type":"event","name":"CorrectionTimestampUpdated","inputs":[{"name":"timestamp","type":"uint64","indexed":false,"internalType":"uint64"}],"anonymous":false},{"type":"event","name":"FeeDisbursed","inputs":[{"name":"sender","type":"address","indexed":true,"internalType":"address"},{"name":"fee","type":"uint256","indexed":false,"internalType":"uint256"}],"anonymous":false},{"type":"event","name":"FeeRateSet","inputs":[{"name":"sender","type":"address","indexed":true,"internalType":"address"},{"name":"oldFeeRate","type":"uint64","indexed":false,"internalType":"uint64"},{"name":"newFeeRate","type":"uint64","indexed":false,"internalType":"uint64"}],"anonymous":false},{"type":"event","name":"FeeRecipientSet","inputs":[{"name":"sender","type":"address","indexed":true,"internalType":"address"},{"name":"oldFeeRecipient","type":"address","indexed":false,"internalType":"address"},{"name":"newFeeRecipient","type":"address","indexed":false,"internalType":"address"}],"anonymous":false},{"type":"event","name":"Initialized","inputs":[],"anonymous":false},{"type":"event","name":"RoleAdminChanged","inputs":[{"name":"role","type":"bytes32","indexed":true,"internalType":"bytes32"},{"name":"previousAdminRole","type":"bytes32","indexed":true,"internalType":"bytes32"},{"name":"newAdminRole","type":"bytes32","indexed":true,"internalType":"bytes32"}],"anonymous":false},{"type":"event","name":"RoleGranted","inputs":[{"name":"role","type":"bytes32","indexed":true,"internalType":"bytes32"},{"name":"account","type":"address","indexed":true,"internalType":"address"},{"name":"sender","type":"address","indexed":true,"internalType":"address"}],"anonymous":false},{"type":"event","name":"RoleMemberConfirmed","inputs":[{"name":"member","type":"address","indexed":true,"internalType":"address"},{"name":"role","type":"bytes32","indexed":true,"internalType":"bytes32"},{"name":"confirmTimestamp","type":"uint256","indexed":false,"internalType":"uint256"},{"name":"expiryTimestamp","type":"uint256","indexed":false,"internalType":"uint256"},{"name":"data","type":"bytes","indexed":false,"internalType":"bytes"}],"anonymous":false},{"type":"event","name":"RoleRevoked","inputs":[{"name":"role","type":"bytes32","indexed":true,"internalType":"bytes32"},{"name":"account","type":"address","indexed":true,"internalType":"address"},{"name":"sender","type":"address","indexed":true,"internalType":"address"}],"anonymous":false},{"type":"event","name":"SettledGrowthSet","inputs":[{"name":"oldSettledGrowth","type":"int128","indexed":false,"internalType":"int128"},{"name":"newSettledGrowth","type":"int128","indexed":false,"internalType":"int128"}],"anonymous":false},{"type":"error","name":"AccessControlBadConfirmation","inputs":[]},{"type":"error","name":"AccessControlUnauthorizedAccount","inputs":[{"name":"account","type":"address","internalType":"address"},{"name":"neededRole","type":"bytes32","internalType":"bytes32"}]},{"type":"error","name":"AlreadyInitialized","inputs":[]},{"type":"error","name":"ConfirmExpiryOutOfBounds","inputs":[]},{"type":"error","name":"CorrectionAfterReport","inputs":[]},{"type":"error","name":"FeeValueExceed100Percent","inputs":[]},{"type":"error","name":"ForbiddenToConnectByNodeOperator","inputs":[]},{"type":"error","name":"NonProxyCallsForbidden","inputs":[]},{"type":"error","name":"ReportStale","inputs":[]},{"type":"error","name":"SafeCastOverflowedIntDowncast","inputs":[{"name":"bits","type":"uint8","internalType":"uint8"},{"name":"value","type":"int256","internalType":"int256"}]},{"type":"error","name":"SafeCastOverflowedUintDowncast","inputs":[{"name":"bits","type":"uint8","internalType":"uint8"},{"name":"value","type":"uint256","internalType":"uint256"}]},{"type":"error","name":"SameRecipient","inputs":[]},{"type":"error","name":"SameSettledGrowth","inputs":[]},{"type":"error","name":"SenderNotMember","inputs":[]},{"type":"error","name":"UnexpectedFeeExemptionAmount","inputs":[]},{"type":"error","name":"UnexpectedSettledGrowth","inputs":[]},{"type":"error","name":"VaultQuarantined","inputs":[]},{"type":"error","name":"ZeroAddress","inputs":[]},{"type":"error","name":"ZeroArgument","inputs":[]},{"type":"error","name":"ZeroConfirmingRoles","inputs":[]}],"bytecode":{"object":"0x60e03461011957601f6123a838819003918201601f19168301916001600160401b0383118484101761011d57808492604094855283398101031261011957610052602061004b83610131565b9201610131565b7fe4ca011a1344eb515c922209bf867930fc05bf79f4b0e3bb4ec9938eedd477018054906201518080915560405191825260208201527f437dc1a3e26abf0b8381463abca48d1e7d322e803c2b160d3ee75c04a492a18260403392a26100b782610145565b6100c081610145565b306080526001600160a01b0391821660a0521660c0526040516122409081610168823960805181505060a0518181816105ae01528181611391015281816115b8015261171b015260c051818181610f1e0152611c990152f35b5f80fd5b634e487b7160e01b5f52604160045260245ffd5b51906001600160a01b038216820361011957565b6001600160a01b03161561015557565b60405163d92e233d60e01b8152600490fdfe60806040526004361015610011575f80fd5b5f3560e01c806301ffc9a714610334578063032d9b301461032f5780630a300c841461032a5780630b91990d146103255780630bff8881146103205780630e5f5dbd1461031b578063158ef93e14610316578063196b9e06146103115780631f02bb951461030c578063248a9ca31461030757806324e7964a146103025780632c0772b4146102fd5780632f208945146102f85780632f2ff15d146102f357806335763d2b146102ee57806336568abe146102e95780633a04d4f3146102e45780633efd8597146102df57806343c71057146102da57806345596e2e146102d557806346904840146102d05780635680e145146102cb5780635bc71363146102c6578063699d79bd146102c157806369f949a1146102bc5780636ab15836146102b75780636af6eeed146102b25780636d475566146102ad5780637b108d92146102a857806382a8ed02146102a35780639010d07c1461029e57806391d1485414610299578063978bbdb914610294578063a217fddf1461028f578063a3246ad31461028a578063b5aabd7a14610285578063b930908f14610280578063ba75b6231461027b578063ca15c87314610276578063cc91d22614610271578063ce477e0c1461026c578063d547741f14610267578063dbba4b4814610262578063e02023a11461025d578063e74b981b14610258578063e9897da814610253578063e9a9c8501461024e578063f55f7b7814610249578063f634dcbd146102445763f6c763181461023f575f80fd5b611163565b6110c5565b61108b565b611051565b611017565b610f87565b610f4d565b610f09565b610ecf565b610e3f565b610dfb565b610dd1565b610db9565b610d7f565b610d5a565b610ce7565b610c89565b610c65565b610c14565b610bcf565b610baf565b610b53565b610b19565b610acf565b610a95565b610a5b565b610a21565b6109e7565b6109ad565b610981565b610963565b610929565b61090b565b6108e4565b610899565b61081b565b610767565b61069d565b610663565b610634565b610608565b6105dd565b610599565b610577565b610554565b610537565b6104fb565b6104d2565b61042b565b346103a45760203660031901126103a45760043563ffffffff60e01b81168091036103a457602090635a05180f60e01b8114908115610379575b506040519015158152f35b637965db0b60e01b811491508115610393575b505f61036e565b6301ffc9a760e01b1490505f61038c565b5f80fd5b634e487b7160e01b5f52604160045260245ffd5b606081019081106001600160401b038211176103d757604052565b6103a8565b6001600160401b0381116103d757604052565b90601f801991011681019081106001600160401b038211176103d757604052565b6001600160401b0381116103d757601f01601f191660200190565b346103a45760403660031901126103a4576004356001600160401b0381116103a457366023820112156103a45780600401359061046782610410565b61047460405191826103ef565b82815236602484840101116103a4575f6020846104c49560246104b3960183860137830101526104a66024359161117f565b905f5260205260405f2090565b546040519081529081906020820190565b0390f35b5f9103126103a457565b346103a4575f3660031901126103a45760206001600160401b0360035460801c16604051908152f35b346103a4575f3660031901126103a45760207fe4ca011a1344eb515c922209bf867930fc05bf79f4b0e3bb4ec9938eedd4770154604051908152f35b346103a4575f3660031901126103a457602060405162278d008152f35b346103a4575f3660031901126103a457602061056e611852565b50604051908152f35b346103a4575f3660031901126103a457602060ff600254166040519015158152f35b346103a4575f3660031901126103a4576040517f00000000000000000000000000000000000000000000000000000000000000006001600160a01b03168152602090f35b346103a45760403660031901126103a45760206105fe6024356004356111bd565b6040519015158152f35b346103a45760203660031901126103a4576004355f525f6020526020600160405f200154604051908152f35b346103a4575f3660031901126103a45760206001600160a01b038161065830611f35565b015116604051908152f35b346103a4575f3660031901126103a45760206040517fa90c7030a27f389f9fc8ed21a0556f40c88130cc14a80db936bed68261819b2c8152f35b346103a45760203660031901126103a457335f9081527f2ba55c36a448efc3c765ff9b6e63a6e71395a5861d5a840bc77ab98c5504aaa460205260409020547fcceeef0309e9a678ed7f11f20499aeb00a9a4b0d50e53daa428f8591debc583a9060ff168015610738575b1561071a57610718600435611ba5565b005b6044906040519063e2517d3f60e01b82523360048301526024820152fd5b50805f525f60205261075133600160405f2001546116d8565b610708565b6001600160a01b038116036103a457565b346103a45760403660031901126103a45760043560243561078781610756565b815f525f60205261079e600160405f200154611bec565b6107a88183611f7b565b6107ae57005b5f91825260016020526040909120610718916001600160a01b0316906120a0565b9060206003198301126103a4576004356001600160401b03928382116103a457806023830112156103a45781600401359384116103a45760248460061b830101116103a4576024019190565b346103a457610829366107cf565b908115610887575f5b82811061083b57005b60019061088060208061084f848888611218565b01355f61085d858989611218565b359261086884610756565b8282525261087b8560405f200154611bec565b611c0e565b5001610832565b60405163b7852ebb60e01b8152600490fd5b346103a45760403660031901126103a4576024356108b681610756565b336001600160a01b038216036108d25761071890600435611c0e565b60405163334bd91960e11b8152600490fd5b346103a4575f3660031901126103a45760206040515f805160206121eb8339815191528152f35b346103a45760203660031901126103a45760206105fe60043561122d565b346103a4575f3660031901126103a45760206040517f59d005e32db662b94335d6bedfeb453fd2202b9f0cc7a6ed498d9098171744b08152f35b346103a45760203660031901126103a45760206105fe600435611335565b346103a4575f3660031901126103a45760025460405160089190911c6001600160a01b03168152602090f35b346103a4575f3660031901126103a45760206040517f3f82ecf462ddac43fc17ba11472c35f18b7760b4f5a5fc50b9625f9b5a22cf628152f35b346103a4575f3660031901126103a45760206040517f933b7d5c112a4d05b489cea0b2ced98acb27d3d0fc9827c92cdacb2d6c5559c28152f35b346103a4575f3660031901126103a45760206040517f32d0d6546e21c13ff633616141dc9daad87d248d1d37c56bf493d06d627ecb7b8152f35b346103a4575f3660031901126103a45760206040517f5c17b14b08ace6dda14c9642528ae92de2a73d59eacb65c71f39f309a56110638152f35b346103a4575f3660031901126103a45760206040517fea19d3b23bd90fdd52445ad672f2b6fb1fef7230d49c6a827c1cd288d02994d58152f35b346103a4575f3660031901126103a4576060610ae961156d565b65ffffffffffff60408051926001600160681b0381511684526020810151600c0b60208501520151166040820152f35b346103a4575f3660031901126103a45760206040517f9586321ac05f110e4b4a0a42aba899709345af0ca78910e8832ddfd71fed2bf48152f35b346103a4575f3660031901126103a457610b6b611692565b604051809160208083016020845282518091526020604085019301915f5b828110610b9857505050500390f35b835185528695509381019392810192600101610b89565b346103a4575f3660031901126103a4576020600354600f0b604051908152f35b346103a45760403660031901126103a4576004355f5260016020526020610bfb60243560405f2061208b565b905460405160039290921b1c6001600160a01b03168152f35b346103a45760403660031901126103a457602060ff610c59602435610c3881610756565b6004355f525f845260405f209060018060a01b03165f5260205260405f2090565b54166040519015158152f35b346103a4575f3660031901126103a457602061ffff60025460a81c16604051908152f35b346103a4575f3660031901126103a45760206040515f8152f35b60209060206040818301928281528551809452019301915f5b828110610cca575050505090565b83516001600160a01b031685529381019392810192600101610cbc565b346103a4576020806003193601126103a4576004355f5260018060205260405f20916040519182602085549182815201945f5260205f20925f905b828210610d45576104c486610d39818a03826103ef565b60405191829182610ca3565b84548752958601959383019390830190610d22565b346103a4575f3660031901126103a457602060ff60035460c01c166040519015158152f35b346103a4575f3660031901126103a45760206040517f689f0a569be0c9b6cd2c11c81cb0add722272abdae6b649fdb1e05f1d9bb8a2f8152f35b346103a4575f3660031901126103a4576107186116ff565b346103a45760203660031901126103a4576004355f526001602052602060405f2054604051908152f35b346103a4575f3660031901126103a45760206040517f7b564705f4e61596c4a9469b6884980f89e475befabdb849d69719f0791628be8152f35b801515036103a457565b346103a45760203660031901126103a457600435610e5c81610e35565b335f9081527fb888a84a969c69ee493013b8ca47e9ecebe24196f231bedf425581252c3c62e360205260409020545f805160206121eb8339815191529060ff168015610eb1575b1561071a5761071882611e4e565b50805f525f602052610eca33600160405f2001546116d8565b610ea3565b346103a45760403660031901126103a457610718602435600435610ef282610756565b805f525f60205261087b600160405f200154611bec565b346103a4575f3660031901126103a4576040517f00000000000000000000000000000000000000000000000000000000000000006001600160a01b03168152602090f35b346103a4575f3660031901126103a45760206040517f355caf1c2580ed8185acb5ea3573b71f85186b41bdf69e3eb8f1fcd122a562df8152f35b346103a45760203660031901126103a457600435610fa481610756565b335f9081527fb888a84a969c69ee493013b8ca47e9ecebe24196f231bedf425581252c3c62e360205260409020545f805160206121eb8339815191529060ff168015610ff9575b1561071a5761071882611e96565b50805f525f60205261101233600160405f2001546116d8565b610feb565b346103a4575f3660031901126103a45760206040517f25482e7dc9e29f6da5bd70b6d19d17bbf44021da51ba0664a9f430c94a09c6748152f35b346103a4575f3660031901126103a45760206040517fe996ac9b332538bb1fa3cd6743aa47011623cdb94bd964a494ee9d371e4a27d38152f35b346103a4575f3660031901126103a45760206040517fcceeef0309e9a678ed7f11f20499aeb00a9a4b0d50e53daa428f8591debc583a8152f35b346103a4576110d3366107cf565b908115610887575f5b8281106110e557005b6001906020806110f6838787611218565b013590611104838787611218565b359061110f82610756565b825f525f81528460409161112782845f200154611bec565b6111318486611f7b565b611141575b5050505050016110dc565b611158945f52525f2090848060a01b0316906120a0565b505f80808080611136565b346103a4575f3660031901126103a4576020604051610e108152f35b60208091604051928184925191829101835e81017fe4ca011a1344eb515c922209bf867930fc05bf79f4b0e3bb4ec9938eedd4770081520301902090565b90600354600f0b036111f2576111da6111d4611692565b36611991565b156111ed576111e890611b3e565b600190565b505f90565b6040516376c03f8160e01b8152600490fd5b634e487b7160e01b5f52603260045260245ffd5b91908110156112285760061b0190565b611204565b61123681611c48565b6112416111d4611692565b156111ed5761124f81611c48565b7fe4ca011a1344eb515c922209bf867930fc05bf79f4b0e3bb4ec9938eedd4770190808254925560405191825260208201527f437dc1a3e26abf0b8381463abca48d1e7d322e803c2b160d3ee75c04a492a18260403392a2600190565b908160209103126103a457516112c181610e35565b90565b6040513d5f823e3d90fd5b908160209103126103a4575190565b908160809103126103a4576040519060808201908282106001600160401b038311176103d757606091604052805161131581610e35565b835260208101516020840152604081015160408401520151606082015290565b60206113616113558261134730611f35565b01516001600160a01b031690565b6001600160a01b031690565b60408051634a2264ef60e01b81526001600160a01b039283166004808301919091529391928290829060249082907f0000000000000000000000000000000000000000000000000000000000000000165afa9081156114e7575f91611540575b501561153257600354839060801c6001600160401b0316826113e4611355611c7b565b855163c6290e3560e01b815293849182905afa9182156114e7575f926114fa575b506001600160401b031610156114ec5760806114629161143661135561142c611355611c7b565b9261134730611f35565b84516329938c8360e21b81526001600160a01b0390911686820190815290938492918391829160200190565b03915afa80156114e75761147e915f916114b8575b5051151590565b6114ab5750506114966114926111d4611692565b1590565b6111ed576111e8906114a66116ff565b611d07565b5163a9d1c85160e01b8152fd5b6114da915060803d6080116114e0575b6114d281836103ef565b8101906112de565b5f611477565b503d6114c8565b6112c4565b505163074a1c0760e41b8152fd5b6001600160401b0391925061152490843d861161152b575b61151c81836103ef565b8101906112cf565b9190611405565b503d611512565b50516366ad59df60e11b8152fd5b6115609150823d8411611566575b61155881836103ef565b8101906112ac565b5f6113c1565b503d61154e565b60405f81805161157c816103bc565b828152826020820152015260018060a01b03606081602061159c30611f35565b015116602484518094819363f9c821a760e01b835260048301527f0000000000000000000000000000000000000000000000000000000000000000165afa9182156114e7575f926115ec57505090565b9091506060823d60601161165f575b81611608606093836103ef565b810103126103a45780519161161c836103bc565b80516001600160681b03811681036103a457835260208101519081600c0b82036103a4578291602085015201519065ffffffffffff821682036103a45782015290565b3d91506115fb565b6001600160401b0381116103d75760051b60200190565b80518210156112285760209160051b010190565b6040519061169f826103bc565b60028252602082019160403684378092815115611228575f90528051600110156112285760405f805160206121eb833981519152910152565b5f908152602081815260408083206001600160a01b0390941683529290522060ff90541690565b611707611852565b81156117fe5761171990600f0b611db5565b7f00000000000000000000000000000000000000000000000000000000000000006001600160a01b0316611754611355602061134730611f35565b60025460081c6001600160a01b031690823b156103a457604051636ce5768960e11b81526001600160a01b0391821660048201529116602482015260448101839052905f908290606490829084905af180156114e7576117e5575b5060405190815233907f162d1bd441302d30f3518ecf74ae22981001e3fc1a44fc4ffe930cb4e7cfb9859080602081015b0390a2565b806117f26117f8926103dc565b806104c8565b5f6117af565b5050565b634e487b7160e01b5f52601160045260245ffd5b600f91820b910b03906f7fffffffffffffffffffffffffffffff1982126f7fffffffffffffffffffffffffffffff83131761184d57565b611802565b5f9061187b61185f61156d565b60206001600160681b03825116910151600c0b90600f0b611816565b9061188b600354600f0b83611816565b600f0b5f81136118985750565b90925061ffff60025460a81c169081810291818304149015171561184d57612710900491565b906118c882611667565b6118d560405191826103ef565b82815280926118e6601f1991611667565b0190602036910137565b9190820180921161184d57565b60206040518281935f833781017fe4ca011a1344eb515c922209bf867930fc05bf79f4b0e3bb4ec9938eedd4770081520301902090565b5f19811461184d5760010190565b91608093918352602083015260606040830152806060830152805f848401375f828201840152601f01601f1916010190565b9161198d9183549060031b91821b915f19901b19161790565b9055565b815115611b2c578151915f6119a5846118be565b5f6119d17fe4ca011a1344eb515c922209bf867930fc05bf79f4b0e3bb4ec9938eedd4770154426118f0565b925f5b878110611a7b57509015611a69578503611a1e5750505f5b8381106119fc5750505050600190565b805f611a17611a0d6001948661167e565b516104a6876118fd565b55016119ec565b5f9391935b858110611a34575050505050505f90565b80611a4a611a446001938561167e565b51151590565b611a55575b01611a23565b85611a63611a0d838861167e565b55611a4f565b60405163dd16cb2360e01b8152600490fd5b611a85818761167e565b5192611a9133856116d8565b15611af85750600190611aa48293611934565b93611ab8611ab2838861167e565b60019052565b6040517f52a98ceea5bf73fc6482a17b325efa51b21372c60578c2fa4cac0c2fa780035a339180611aeb368c4284611942565b0390a35b019190916119d4565b9192611b0842916104a68a6118fd565b541015611b18575b600190611aef565b91611b24600191611934565b929050611b10565b60405163f814a95b60e01b8152600490fd5b611b4790611db5565b7f1fe74426fce2bea9b5ddc0faf3f9ff6e595cf9cfb1e5167d7df5196e61884f7660206003546001600160401b0360801b4260801b16906001600160401b0360801b191617806003556001600160401b036040519160801c168152a1565b6001600160681b038111611bda57600354600f0b5f828201928312911290801582169115161761184d57611bd890611b3e565b565b60405163d5fb0ac560e01b8152600490fd5b5f8181526020818152604080832033845290915290205460ff161561071a5750565b611c188282612007565b9182611c2357505090565b5f91825260016020526040909120611c44916001600160a01b03169061214c565b5090565b610e108110908115611c6e575b50611c5c57565b60405163bbc3a3e360e01b8152600490fd5b62278d009150115f611c55565b604051630b8e411760e21b81526001600160a01b03906020816004817f000000000000000000000000000000000000000000000000000000000000000086165afa9081156114e7575f91611cce57501690565b90506020813d602011611cff575b81611ce9602093836103ef565b810103126103a45751611cfb81610756565b1690565b3d9150611cdc565b6127108111611da35760025461ffff808311611d835761ffff60a81b60a884811b9190911661ffff60a81b198416176002556040805161ffff9490921c83168416825291909316909116602083015233917f1c3c8e6f32105765effac40e608a5c2d4bd76a0cb0faff13f170d9ce6b99a98591819081016117e0565b6040516306dfcc6560e41b81526010600482015260248101849052604490fd5b60405163137b7b8960e31b8152600490fd5b6003549081600f0b91818314611e3c5781600f0b91808303611e1d57917f7f29b6786ecc11a170b9116d66fbebf938f32d8a5191d47eb93866b05a2118ce93916040936001600160801b0316906001600160801b0319161760035582519182526020820152a1565b6044906040519063327269a760e01b8252608060048301526024820152fd5b604051631e3c172560e21b8152600490fd5b60207f73b5872ba8049977a1ad419d435c15705d18672abe0f6b5f49b736596e6375ce91151560035460ff60c01b8260c01b169060ff60c01b191617600355604051908152a1565b6001600160a01b03818116908115611f2357600254908160081c1692838314611f1157610100600160a81b031990911660089190911b610100600160a81b03161760025560408051928352602083019190915233917fe8c1c849e9613f6cea14a88ffc6959a1071296c3d716586582d7a84ac33342c09190a2565b60405163f012261f60e01b8152600490fd5b60405163d92e233d60e01b8152600490fd5b803b90602c19820191821161184d57602d611f68611f5284610410565b93611f6060405195866103ef565b808552610410565b6020840190601f19013682378351923c90565b5f818152602081815260408083206001600160a01b038616845290915290205460ff16612001575f818152602081815260408083206001600160a01b03861684529091529020805460ff1916600117905533916001600160a01b0316907f2f8788117e7eff1d82e926ec794901d17c78024a50270940304540a733656f0d5f80a4600190565b50505f90565b5f818152602081815260408083206001600160a01b038616845290915290205460ff1615612001575f818152602081815260408083206001600160a01b03861684529091529020805460ff1916905533916001600160a01b0316907ff6391f5c32d9c69d2a47ea670b442974b53935d1edc7fd64eb21e047a839171b5f80a4600190565b8054821015611228575f5260205f2001905f90565b6001810190825f528160205260405f2054155f14612108578054680100000000000000008110156103d7576120f56120df82600187940185558461208b565b819391549060031b91821b915f19901b19161790565b905554915f5260205260405f2055600190565b5050505f90565b8054908115612138575f1991820191612128838361208b565b909182549160031b1b1916905555565b634e487b7160e01b5f52603160045260245ffd5b6001810191805f528260205260405f2054928315155f146121e2575f19928484019085821161184d57805494850194851161184d575f95858361219b976104a695036121a1575b50505061210f565b55600190565b6121cb6121c5916121b56121d9948761208b565b90549060031b1c9283918761208b565b90611974565b85905f5260205260405f2090565b555f8080612193565b505050505f9056fe59783a4ae82167eefad593739a5430c1d9e896a16c35f1e5285ddd0c0980885ca26469706673582212200b7f2cdb54e6507aae86be082239706d0663b57bd0f74f77409debb9cbbc95ce64736f6c63430008190033","linkReferences":{}},"methodIdentifiers":{"BURN_ROLE()":"b930908f","DEFAULT_ADMIN_ROLE()":"a217fddf","FUND_ROLE()":"5bc71363","LIDO_LOCATOR()":"dbba4b48","MAX_CONFIRM_EXPIRY()":"0bff8881","MINT_ROLE()":"e9a9c850","MIN_CONFIRM_EXPIRY()":"f6c76318","NODE_OPERATOR_FEE_EXEMPT_ROLE()":"f55f7b78","NODE_OPERATOR_MANAGER_ROLE()":"3a04d4f3","NODE_OPERATOR_PROVE_UNKNOWN_VALIDATOR_ROLE()":"cc91d226","NODE_OPERATOR_UNGUARANTEED_DEPOSIT_ROLE()":"69f949a1","PAUSE_BEACON_CHAIN_DEPOSITS_ROLE()":"2c0772b4","REBALANCE_ROLE()":"5680e145","REQUEST_VALIDATOR_EXIT_ROLE()":"699d79bd","RESUME_BEACON_CHAIN_DEPOSITS_ROLE()":"43c71057","TRIGGER_VALIDATOR_WITHDRAWAL_ROLE()":"6ab15836","VAULT_CONFIGURATION_ROLE()":"e9897da8","VAULT_HUB()":"196b9e06","VOLUNTARY_DISCONNECT_ROLE()":"6d475566","WITHDRAW_ROLE()":"e02023a1","accruedFee()":"0e5f5dbd","addFeeExemption(uint256)":"2f208945","confirmation(bytes,bytes32)":"032d9b30","confirmingRoles()":"7b108d92","correctSettledGrowth(int256,int256)":"1f02bb95","disburseFee()":"ba75b623","feeRate()":"978bbdb9","feeRecipient()":"46904840","getConfirmExpiry()":"0b91990d","getRoleAdmin(bytes32)":"248a9ca3","getRoleMember(bytes32,uint256)":"9010d07c","getRoleMemberCount(bytes32)":"ca15c873","getRoleMembers(bytes32)":"a3246ad3","grantRole(bytes32,address)":"2f2ff15d","grantRoles((address,bytes32)[])":"f634dcbd","hasRole(bytes32,address)":"91d14854","initialized()":"158ef93e","isApprovedToConnect()":"b5aabd7a","latestCorrectionTimestamp()":"0a300c84","latestReport()":"6af6eeed","renounceRole(bytes32,address)":"36568abe","revokeRole(bytes32,address)":"d547741f","revokeRoles((address,bytes32)[])":"35763d2b","setApprovedToConnect(bool)":"ce477e0c","setConfirmExpiry(uint256)":"3efd8597","setFeeRate(uint256)":"45596e2e","setFeeRecipient(address)":"e74b981b","settledGrowth()":"82a8ed02","stakingVault()":"24e7964a","supportsInterface(bytes4)":"01ffc9a7"},"id":48}