{"abi":[{"type":"constructor","inputs":[{"name":"_lidoLocator","type":"address","internalType":"address"}],"stateMutability":"nonpayable"},{"type":"function","name":"DEFAULT_ADMIN_ROLE","inputs":[],"outputs":[{"name":"","type":"bytes32","internalType":"bytes32"}],"stateMutability":"view"},{"type":"function","name":"LIDO_LOCATOR","inputs":[],"outputs":[{"name":"","type":"address","internalType":"contract ILidoLocator"}],"stateMutability":"view"},{"type":"function","name":"MAX_LIDO_FEE_RATE_PER_SECOND","inputs":[],"outputs":[{"name":"","type":"uint256","internalType":"uint256"}],"stateMutability":"view"},{"type":"function","name":"MAX_QUARANTINE_PERIOD","inputs":[],"outputs":[{"name":"","type":"uint256","internalType":"uint256"}],"stateMutability":"view"},{"type":"function","name":"MAX_REWARD_RATIO","inputs":[],"outputs":[{"name":"","type":"uint256","internalType":"uint256"}],"stateMutability":"view"},{"type":"function","name":"UPDATE_SANITY_PARAMS_ROLE","inputs":[],"outputs":[{"name":"","type":"bytes32","internalType":"bytes32"}],"stateMutability":"view"},{"type":"function","name":"batchValidatorStages","inputs":[{"name":"_pubkeys","type":"bytes[]","internalType":"bytes[]"}],"outputs":[{"name":"batch","type":"uint8[]","internalType":"enum IPredepositGuarantee.ValidatorStage[]"}],"stateMutability":"view"},{"type":"function","name":"batchVaultsInfo","inputs":[{"name":"_offset","type":"uint256","internalType":"uint256"},{"name":"_limit","type":"uint256","internalType":"uint256"}],"outputs":[{"name":"","type":"tuple[]","internalType":"struct LazyOracle.VaultInfo[]","components":[{"name":"vault","type":"address","internalType":"address"},{"name":"aggregatedBalance","type":"uint256","internalType":"uint256"},{"name":"inOutDelta","type":"int256","internalType":"int256"},{"name":"withdrawalCredentials","type":"bytes32","internalType":"bytes32"},{"name":"liabilityShares","type":"uint256","internalType":"uint256"},{"name":"maxLiabilityShares","type":"uint256","internalType":"uint256"},{"name":"mintableStETH","type":"uint256","internalType":"uint256"},{"name":"shareLimit","type":"uint96","internalType":"uint96"},{"name":"reserveRatioBP","type":"uint16","internalType":"uint16"},{"name":"forcedRebalanceThresholdBP","type":"uint16","internalType":"uint16"},{"name":"infraFeeBP","type":"uint16","internalType":"uint16"},{"name":"liquidityFeeBP","type":"uint16","internalType":"uint16"},{"name":"reservationFeeBP","type":"uint16","internalType":"uint16"},{"name":"pendingDisconnect","type":"bool","internalType":"bool"}]}],"stateMutability":"view"},{"type":"function","name":"getRoleAdmin","inputs":[{"name":"role","type":"bytes32","internalType":"bytes32"}],"outputs":[{"name":"","type":"bytes32","internalType":"bytes32"}],"stateMutability":"view"},{"type":"function","name":"getRoleMember","inputs":[{"name":"role","type":"bytes32","internalType":"bytes32"},{"name":"index","type":"uint256","internalType":"uint256"}],"outputs":[{"name":"","type":"address","internalType":"address"}],"stateMutability":"view"},{"type":"function","name":"getRoleMemberCount","inputs":[{"name":"role","type":"bytes32","internalType":"bytes32"}],"outputs":[{"name":"","type":"uint256","internalType":"uint256"}],"stateMutability":"view"},{"type":"function","name":"getRoleMembers","inputs":[{"name":"role","type":"bytes32","internalType":"bytes32"}],"outputs":[{"name":"","type":"address[]","internalType":"address[]"}],"stateMutability":"view"},{"type":"function","name":"grantRole","inputs":[{"name":"role","type":"bytes32","internalType":"bytes32"},{"name":"account","type":"address","internalType":"address"}],"outputs":[],"stateMutability":"nonpayable"},{"type":"function","name":"hasRole","inputs":[{"name":"role","type":"bytes32","internalType":"bytes32"},{"name":"account","type":"address","internalType":"address"}],"outputs":[{"name":"","type":"bool","internalType":"bool"}],"stateMutability":"view"},{"type":"function","name":"initialize","inputs":[{"name":"_admin","type":"address","internalType":"address"},{"name":"_quarantinePeriod","type":"uint256","internalType":"uint256"},{"name":"_maxRewardRatioBP","type":"uint256","internalType":"uint256"},{"name":"_maxLidoFeeRatePerSecond","type":"uint256","internalType":"uint256"}],"outputs":[],"stateMutability":"nonpayable"},{"type":"function","name":"latestReportData","inputs":[],"outputs":[{"name":"timestamp","type":"uint256","internalType":"uint256"},{"name":"refSlot","type":"uint256","internalType":"uint256"},{"name":"treeRoot","type":"bytes32","internalType":"bytes32"},{"name":"reportCid","type":"string","internalType":"string"}],"stateMutability":"view"},{"type":"function","name":"latestReportTimestamp","inputs":[],"outputs":[{"name":"","type":"uint256","internalType":"uint256"}],"stateMutability":"view"},{"type":"function","name":"maxLidoFeeRatePerSecond","inputs":[],"outputs":[{"name":"","type":"uint256","internalType":"uint256"}],"stateMutability":"view"},{"type":"function","name":"maxRewardRatioBP","inputs":[],"outputs":[{"name":"","type":"uint256","internalType":"uint256"}],"stateMutability":"view"},{"type":"function","name":"quarantinePeriod","inputs":[],"outputs":[{"name":"","type":"uint256","internalType":"uint256"}],"stateMutability":"view"},{"type":"function","name":"removeVaultQuarantine","inputs":[{"name":"_vault","type":"address","internalType":"address"}],"outputs":[],"stateMutability":"nonpayable"},{"type":"function","name":"renounceRole","inputs":[{"name":"role","type":"bytes32","internalType":"bytes32"},{"name":"callerConfirmation","type":"address","internalType":"address"}],"outputs":[],"stateMutability":"nonpayable"},{"type":"function","name":"revokeRole","inputs":[{"name":"role","type":"bytes32","internalType":"bytes32"},{"name":"account","type":"address","internalType":"address"}],"outputs":[],"stateMutability":"nonpayable"},{"type":"function","name":"supportsInterface","inputs":[{"name":"interfaceId","type":"bytes4","internalType":"bytes4"}],"outputs":[{"name":"","type":"bool","internalType":"bool"}],"stateMutability":"view"},{"type":"function","name":"updateReportData","inputs":[{"name":"_vaultsDataTimestamp","type":"uint256","internalType":"uint256"},{"name":"_vaultsDataRefSlot","type":"uint256","internalType":"uint256"},{"name":"_vaultsDataTreeRoot","type":"bytes32","internalType":"bytes32"},{"name":"_vaultsDataReportCid","type":"string","internalType":"string"}],"outputs":[],"stateMutability":"nonpayable"},{"type":"function","name":"updateSanityParams","inputs":[{"name":"_quarantinePeriod","type":"uint256","internalType":"uint256"},{"name":"_maxRewardRatioBP","type":"uint256","internalType":"uint256"},{"name":"_maxLidoFeeRatePerSecond","type":"uint256","internalType":"uint256"}],"outputs":[],"stateMutability":"nonpayable"},{"type":"function","name":"updateVaultData","inputs":[{"name":"_vault","type":"address","internalType":"address"},{"name":"_totalValue","type":"uint256","internalType":"uint256"},{"name":"_cumulativeLidoFees","type":"uint256","internalType":"uint256"},{"name":"_liabilityShares","type":"uint256","internalType":"uint256"},{"name":"_maxLiabilityShares","type":"uint256","internalType":"uint256"},{"name":"_slashingReserve","type":"uint256","internalType":"uint256"},{"name":"_proof","type":"bytes32[]","internalType":"bytes32[]"}],"outputs":[],"stateMutability":"nonpayable"},{"type":"function","name":"vaultInfo","inputs":[{"name":"_vault","type":"address","internalType":"address"}],"outputs":[{"name":"","type":"tuple","internalType":"struct LazyOracle.VaultInfo","components":[{"name":"vault","type":"address","internalType":"address"},{"name":"aggregatedBalance","type":"uint256","internalType":"uint256"},{"name":"inOutDelta","type":"int256","internalType":"int256"},{"name":"withdrawalCredentials","type":"bytes32","internalType":"bytes32"},{"name":"liabilityShares","type":"uint256","internalType":"uint256"},{"name":"maxLiabilityShares","type":"uint256","internalType":"uint256"},{"name":"mintableStETH","type":"uint256","internalType":"uint256"},{"name":"shareLimit","type":"uint96","internalType":"uint96"},{"name":"reserveRatioBP","type":"uint16","internalType":"uint16"},{"name":"forcedRebalanceThresholdBP","type":"uint16","internalType":"uint16"},{"name":"infraFeeBP","type":"uint16","internalType":"uint16"},{"name":"liquidityFeeBP","type":"uint16","internalType":"uint16"},{"name":"reservationFeeBP","type":"uint16","internalType":"uint16"},{"name":"pendingDisconnect","type":"bool","internalType":"bool"}]}],"stateMutability":"view"},{"type":"function","name":"vaultQuarantine","inputs":[{"name":"_vault","type":"address","internalType":"address"}],"outputs":[{"name":"","type":"tuple","internalType":"struct LazyOracle.QuarantineInfo","components":[{"name":"isActive","type":"bool","internalType":"bool"},{"name":"pendingTotalValueIncrease","type":"uint256","internalType":"uint256"},{"name":"startTimestamp","type":"uint256","internalType":"uint256"},{"name":"endTimestamp","type":"uint256","internalType":"uint256"}]}],"stateMutability":"view"},{"type":"function","name":"vaultsCount","inputs":[],"outputs":[{"name":"","type":"uint256","internalType":"uint256"}],"stateMutability":"view"},{"type":"event","name":"Initialized","inputs":[{"name":"version","type":"uint64","indexed":false,"internalType":"uint64"}],"anonymous":false},{"type":"event","name":"QuarantineActivated","inputs":[{"name":"vault","type":"address","indexed":true,"internalType":"address"},{"name":"delta","type":"uint256","indexed":false,"internalType":"uint256"}],"anonymous":false},{"type":"event","name":"QuarantineReleased","inputs":[{"name":"vault","type":"address","indexed":true,"internalType":"address"},{"name":"delta","type":"uint256","indexed":false,"internalType":"uint256"}],"anonymous":false},{"type":"event","name":"QuarantineRemoved","inputs":[{"name":"vault","type":"address","indexed":true,"internalType":"address"}],"anonymous":false},{"type":"event","name":"RoleAdminChanged","inputs":[{"name":"role","type":"bytes32","indexed":true,"internalType":"bytes32"},{"name":"previousAdminRole","type":"bytes32","indexed":true,"internalType":"bytes32"},{"name":"newAdminRole","type":"bytes32","indexed":true,"internalType":"bytes32"}],"anonymous":false},{"type":"event","name":"RoleGranted","inputs":[{"name":"role","type":"bytes32","indexed":true,"internalType":"bytes32"},{"name":"account","type":"address","indexed":true,"internalType":"address"},{"name":"sender","type":"address","indexed":true,"internalType":"address"}],"anonymous":false},{"type":"event","name":"RoleRevoked","inputs":[{"name":"role","type":"bytes32","indexed":true,"internalType":"bytes32"},{"name":"account","type":"address","indexed":true,"internalType":"address"},{"name":"sender","type":"address","indexed":true,"internalType":"address"}],"anonymous":false},{"type":"event","name":"SanityParamsUpdated","inputs":[{"name":"quarantinePeriod","type":"uint256","indexed":false,"internalType":"uint256"},{"name":"maxRewardRatioBP","type":"uint256","indexed":false,"internalType":"uint256"},{"name":"maxLidoFeeRatePerSecond","type":"uint256","indexed":false,"internalType":"uint256"}],"anonymous":false},{"type":"event","name":"VaultsReportDataUpdated","inputs":[{"name":"timestamp","type":"uint256","indexed":true,"internalType":"uint256"},{"name":"refSlot","type":"uint256","indexed":true,"internalType":"uint256"},{"name":"root","type":"bytes32","indexed":true,"internalType":"bytes32"},{"name":"cid","type":"string","indexed":false,"internalType":"string"}],"anonymous":false},{"type":"error","name":"AccessControlBadConfirmation","inputs":[]},{"type":"error","name":"AccessControlUnauthorizedAccount","inputs":[{"name":"account","type":"address","internalType":"address"},{"name":"neededRole","type":"bytes32","internalType":"bytes32"}]},{"type":"error","name":"AdminCannotBeZero","inputs":[]},{"type":"error","name":"CumulativeLidoFeesTooLarge","inputs":[{"name":"feeIncrease","type":"uint256","internalType":"uint256"},{"name":"maxFeeIncrease","type":"uint256","internalType":"uint256"}]},{"type":"error","name":"CumulativeLidoFeesTooLow","inputs":[{"name":"reportingFees","type":"uint256","internalType":"uint256"},{"name":"previousFees","type":"uint256","internalType":"uint256"}]},{"type":"error","name":"InOutDeltaCacheIsOverwritten","inputs":[]},{"type":"error","name":"InvalidInitialization","inputs":[]},{"type":"error","name":"InvalidMaxLiabilityShares","inputs":[]},{"type":"error","name":"InvalidProof","inputs":[]},{"type":"error","name":"MaxLidoFeeRatePerSecondTooLarge","inputs":[{"name":"feeRate","type":"uint256","internalType":"uint256"},{"name":"maxFeeRate","type":"uint256","internalType":"uint256"}]},{"type":"error","name":"MaxRewardRatioTooLarge","inputs":[{"name":"rewardRatio","type":"uint256","internalType":"uint256"},{"name":"maxRewardRatio","type":"uint256","internalType":"uint256"}]},{"type":"error","name":"NotAuthorized","inputs":[]},{"type":"error","name":"NotInitializing","inputs":[]},{"type":"error","name":"QuarantinePeriodTooLarge","inputs":[{"name":"quarantinePeriod","type":"uint256","internalType":"uint256"},{"name":"maxQuarantinePeriod","type":"uint256","internalType":"uint256"}]},{"type":"error","name":"TotalValueTooLarge","inputs":[]},{"type":"error","name":"UnderflowInTotalValueCalculation","inputs":[]},{"type":"error","name":"VaultReportIsFreshEnough","inputs":[]}],"bytecode":{"object":"0x60a034610122576001600160401b0390601f612f1138819003918201601f1916830191848311848410176101265780849260209460405283398101031261012257516001600160a01b03811690819003610122576080527ff0c57e16840df040f15088dc2f81fe391c3923bec73e23a9662efc9c229c6a009081549060ff8260401c166101105780808316036100cb575b604051612dd6908161013b82396080518181816102030152818161057d01528181610a2b0152818161156301528181611f2f01526122760152f35b6001600160401b031990911681179091556040519081527fc7f505b2f371ae2175ee4913f4499e1f2633a7b5936321eed1cdaeb6115181d290602090a15f8080610090565b60405163f92ee8a960e01b8152600490fd5b5f80fd5b634e487b7160e01b5f52604160045260245ffdfe6080806040526004361015610012575f80fd5b5f905f3560e01c90816301ffc9a71461187f57508063228aa8431461172b578063248a9ca3146116f25780632f2ff15d1461167557806336568abe1461162c57806339a3a4961461152c5780634c11a509146110af5780634ec81af114610f285780638897773814610e975780639010d07c14610e4557806390f16f7314610da85780639164359a14610d6257806391d1485414610d0c578063a217fddf14610cf0578063a3246ad314610c3b578063a64e320c14610bee578063a73a08661461094b578063b3280f6a14610915578063c019b0de146108f7578063c6290e35146108c4578063ca15c8731461088e578063d1b303c914610644578063d547741f146105f6578063d591101f146105d9578063d8641a1d146105ac578063dbba4b4814610567578063dfd41d7214610544578063f255126e14610513578063f98fc06d146104d85763feb7b74c14610168575f80fd5b346104d55760803660031901126104d5576044356024356004356064356001600160401b038082116104d157366023830112156104d1578160040135918183116104bd5760209187601f1992604051956101c98686601f8401160188611a6d565b80875236602482840101116104b9578060248793018389013786010152604051635a2031f960e01b81526001600160a01b039084816004817f000000000000000000000000000000000000000000000000000000000000000086165afa9081156104ae578a91610475575b50163303610463575f80516020612d6183398151915280546dffffffffffffffffffffffffffff191686831617604088901b6dffffffffffff0000000000000000161790557f73a2a247d4b1b6fe056fe90935e9bd3694e896bafdd08f046c2afe6ec2db2100879055835190811161044f577f73a2a247d4b1b6fe056fe90935e9bd3694e896bafdd08f046c2afe6ec2db2101916102d28354611a8e565b601f81116103ee575b508390601f8311600114610350575090807f8ee99bf86aab7170a7b0555be6f155333456f93d7feece62b37859ba75e70f06959493928a91610345575b508160011b915f199060031b1c19161790555b61033f6040519282849384528301906118ec565b0390a480f35b90508401515f610318565b821690838a527f0d4c76a971f8b3c1f65ed94d600d9f434dd166870e83da033f9e90dae16ae962918a5b8181106103d757509183917f8ee99bf86aab7170a7b0555be6f155333456f93d7feece62b37859ba75e70f0697969594600194106103bf575b5050811b01905561032b565b8601515f1960f88460031b161c191690555f806103b3565b91928660018192868b01518155019401920161037a565b838a527f0d4c76a971f8b3c1f65ed94d600d9f434dd166870e83da033f9e90dae16ae962601f840160051c810191868510610445575b601f0160051c01905b81811061043a57506102db565b5f815560010161042d565b9091508190610424565b634e487b7160e01b88526041600452602488fd5b60405163ea8e4eb560e01b8152600490fd5b90508481813d83116104a7575b61048c8183611a6d565b810103126104a35761049d90611ac6565b5f610234565b8980fd5b503d610482565b6040513d8c823e3d90fd5b8280fd5b634e487b7160e01b87526041600452602487fd5b8580fd5b80fd5b50346104d557806003193601126104d55760206040517f7baf7f4a9784fa74c97162de631a3eb567edeb85878cb6965945310f2c512c638152f35b50346104d557806003193601126104d557602061ffff5f80516020612d618339815191525460b01c16604051908152f35b50346104d557806003193601126104d5576020604051678ac7230489e800008152f35b50346104d557806003193601126104d5576040517f00000000000000000000000000000000000000000000000000000000000000006001600160a01b03168152602090f35b50346104d557806003193601126104d55760205f80516020612d618339815191525460c01c604051908152f35b50346104d557806003193601126104d557602060405161ffff8152f35b50346104d55760403660031901126104d557610640600435610616611910565b908084525f80516020612d8183398151915260205261063b6001604086200154611c92565b611cc0565b5080f35b50346104d55760403660031901126104d5576004359060249060243591610669611f11565b604051631112eee760e31b81526020946001600160a01b038316918681600481865afa90811561088357908891879161084e575b50808211156108235750505083929593955b6106b884611b12565b946106c66040519687611a6d565b8486526106d285611b12565b601f1901885b818110610807575050875b85811061073457604080518981528851818b01819052898b01928201908b8d5b8281106107105784840385f35b909192826101c0826107256001948a5161196c565b01960191019492919094610703565b61074181839a989a611c78565b600181018091116107f457604051906335ee70db60e11b8252600482015288818581885afa9081156107e95790869189916107a4575b5060019291610785916120c9565b61078f828c611c50565b5261079a818b611c50565b50019795976106e3565b8092508a8092503d83116107e2575b6107bd8183611a6d565b810103126107de5790610785866107d5600194611ac6565b91509192610777565b8780fd5b503d6107b3565b6040513d8a823e3d90fd5b634e487b7160e01b885260116004528388fd5b88906108149a989a611b29565b82828d010152019896986106d8565b8061082e8484611c78565b11156108475761083e9250611c85565b929593956106af565b505061083e565b809250888092503d831161087c575b6108678183611a6d565b81010312610878578790515f61069d565b5f80fd5b503d61085d565b6040513d88823e3d90fd5b50346104d55760203660031901126104d557604060209160043581525f80516020612d2183398151915283522054604051908152f35b50346104d557806003193601126104d55760206001600160401b035f80516020612d618339815191525416604051908152f35b50346104d557806003193601126104d557602060405162278d008152f35b50346104d557806003193601126104d55760206001600160401b035f80516020612d618339815191525460701c16604051908152f35b50346104d55760203660031901126104d5576004356001600160401b038111610bea5761097c90369060040161193c565b61098581611b12565b916109936040519384611a6d565b81835261099f82611b12565b601f1901366020850137835b828110610a16575050506040519060208201602083528151809152602060408401920190845b8186106109de5784840385f35b90919283516005811015610a025760208281926001945201940195019491906109d1565b634e487b7160e01b83526021600452602483fd5b604051638d4e615360e01b81526020816004817f00000000000000000000000000000000000000000000000000000000000000006001600160a01b03165afa908115610883578691610bb0575b508160051b830135601e1984360301811215610bac578301906001600160401b03823511610bac57813536036020830113610bac57604051918280926358eaee7960e01b8252602060048301528235602483015281604484356020860182840137933581810185018c90526060968795601f909201601f191681010301916001600160a01b03165afa918215610ba1578792610b2f575b5050516005811015610b1b5790600191610b148287611c50565b52016109ab565b634e487b7160e01b86526021600452602486fd5b90809250813d8311610b9a575b610b468183611a6d565b810103126104d15760405190610b5b82611a1b565b805160058110156107de57825260208101516001600160a01b03811681036107de576020830152610b8e90604001611ac6565b60408201525f80610afa565b503d610b3c565b6040513d89823e3d90fd5b8680fd5b90506020813d602011610be2575b81610bcb60209383611a6d565b810103126104d157610bdc90611ac6565b5f610a63565b3d9150610bbe565b5080fd5b50346104d55760203660031901126104d5576080610c12610c0d611926565b611b8f565b606060405191805115158352602081015160208401526040810151604084015201516060820152f35b50346104d557602080600319360112610bea5760043582525f80516020612d2183398151915281526040822060405192838383549182815201908193835284832090835b818110610cdc5750505084610c95910385611a6d565b60405193838594850191818652518092526040850193925b828110610cbc57505050500390f35b83516001600160a01b031685528695509381019392810192600101610cad565b825484529286019260019283019201610c7f565b50346104d557806003193601126104d557602090604051908152f35b50346104d55760403660031901126104d5576040610d28611910565b9160043581525f80516020612d81833981519152602052209060018060a01b03165f52602052602060ff60405f2054166040519015158152f35b50346104d55760203660031901126104d5576101c0610d99610d82611926565b610d8a611b29565b50610d93611f11565b906120c9565b610da6604051809261196c565bf35b50346104d55760603660031901126104d557335f9081527f6936c5fa3723fa7f4795c61a2dd15fbfe0719ce0d3014f1c7429b03e41088a7460205260409020547f7baf7f4a9784fa74c97162de631a3eb567edeb85878cb6965945310f2c512c639060ff1615610e275750610e24604435602435600435611f9c565b80f35b6044906040519063e2517d3f60e01b82523360048301526024820152fd5b50346104d55760403660031901126104d557610e7e60209160043581525f80516020612d21833981519152835260406024359120612b03565b905460405160039290921b1c6001600160a01b03168152f35b50346104d557806003193601126104d55760049060206001600160a01b03610ebd611f11565b1660405193848092631112eee760e31b82525afa908115610f1c5790610ee9575b602090604051908152f35b506020813d602011610f14575b81610f0360209383611a6d565b810103126108785760209051610ede565b3d9150610ef6565b604051903d90823e3d90fd5b50346104d55760803660031901126104d557610f42611926565b7ff0c57e16840df040f15088dc2f81fe391c3923bec73e23a9662efc9c229c6a009081549060ff8260401c1615916001600160401b038116801590816110a7575b600114908161109d575b159081611094575b506110825767ffffffffffffffff198116600117845582611063575b506001600160a01b03811690811561105157610fcc90612662565b611029575b50610fe3606435604435602435611f9c565b610feb575080f35b68ff00000000000000001981541690557fc7f505b2f371ae2175ee4913f4499e1f2633a7b5936321eed1cdaeb6115181d2602060405160018152a180f35b61104a908480525f80516020612d2183398151915260205260408520612b18565b505f610fd1565b604051636b35b1b760e01b8152600490fd5b68ffffffffffffffffff1916680100000000000000011783555f610fb1565b60405163f92ee8a960e01b8152600490fd5b9050155f610f95565b303b159150610f8d565b849150610f83565b50346108785760e0366003190112610878576110c9611926565b9060c4356001600160401b038111610878576110e990369060040161193c565b916040516020810160018060a01b038616815260243560408301526044356060830152606435608083015260843560a083015260a43560c083015260c082528160e08101106001600160401b0360e0840111176114205760e0820160408190528251909120610100830152602081526001600160401b03610120830190811191111761142057610120810160405261010060e08201519101207f73a2a247d4b1b6fe056fe90935e9bd3694e896bafdd08f046c2afe6ec2db210054936111ae81611b12565b936111bc6040519586611a6d565b8185526020850190368360051b8201116108785780915b8360051b8201831061151c5750505050935f945b8351861015611229576111fa8685611c50565b519081811015611218575f52602052600160405f205b9501946111e7565b905f52602052600160405f20611210565b840361150a575f80516020612d6183398151915254602491906101e06001600160a01b03611255611f11565b604051630e8ddced60e41b81526001600160a01b038616600482015295869290918391165afa928315611434575f936114d7575b5065ffffffffffff6040845101511665ffffffffffff821611156114c5576112be60608401516112b881612c45565b90612808565b5151926112da65ffffffffffff8360401c166060830151612819565b600c0b905f611303836112fe6112f485836024358b6128ca565b98600c0b89611ecb565b611ee6565b126114b3576001600160801b0360c08201511660443581116114935761135a61134265ffffffffffff604085510151166001600160401b038716611c85565b5f80516020612d618339815191525460c01c90611efe565b908161136882604435611c85565b1161146a57505060643560843510908115611451575b5061143f576001600160a01b03611393611f11565b1692833b15610878575f8094610104936001600160401b0397604051988997889663051aa6fb60e21b885260018060a01b0316600488015216602486015260448501526064840152604435608484015260643560a484015260843560c484015260a43560e48401525af180156114345761140b575080f35b90506001600160401b03811161142057604052005b634e487b7160e01b5f52604160045260245ffd5b6040513d5f823e3d90fd5b604051638b3ecb0760e01b8152600490fd5b6001600160601b0391506020015116608435108661137e565b906114786044928335611c85565b90604051916355512b3560e01b835260048301526024820152fd5b6040516308b138cb60e01b81526044803560048301526024820192909252fd5b604051631c0c9d2f60e31b8152600490fd5b6040516337ffce7760e21b8152600490fd5b6114fc9193506101e03d6101e011611503575b6114f48183611a6d565b810190611d4f565b9184611289565b503d6114ea565b6040516309bde33960e01b8152600490fd5b82358152602092830192016111d3565b3461087857602036600319011261087857611545611926565b604051636dd6e80b60e01b81526001600160a01b03906020816004817f000000000000000000000000000000000000000000000000000000000000000086165afa80156114345782915f916115f0575b5016330361046357816115c1916001600160801b036115b45f95611ada565b54166115c4575b50611ada565b55005b81167f953c5453c1447e79e6b9eb3aa5c6db1d45ebe0f6f30cc1df54707536e294c0738480a2836115bb565b9150506020813d602011611624575b8161160c60209383611a6d565b810103126108785761161e8291611ac6565b84611595565b3d91506115ff565b3461087857604036600319011261087857611645611910565b336001600160a01b038216036116635761166190600435611cc0565b005b60405163334bd91960e11b8152600490fd5b3461087857604036600319011261087857600435611691611910565b815f525f80516020612d818339815191526020526116b5600160405f200154611c92565b6116bf81836126ff565b6116c557005b5f9182525f80516020612d218339815191526020526040909120611661916001600160a01b031690612b18565b34610878576020366003190112610878576004355f525f80516020612d818339815191526020526020600160405f200154604051908152f35b34610878575f366003190112610878575f80516020612d61833981519152547f73a2a247d4b1b6fe056fe90935e9bd3694e896bafdd08f046c2afe6ec2db210054906040515f927f73a2a247d4b1b6fe056fe90935e9bd3694e896bafdd08f046c2afe6ec2db210193845461179f81611a8e565b908185526020966001916001811690815f1461185f575060011461180c575b65ffffffffffff8761180888888c6117d8838b0384611a6d565b60405195856001600160401b03889716875260401c169085015260408401526080606084015260808301906118ec565b0390f35b5f90815292507f0d4c76a971f8b3c1f65ed94d600d9f434dd166870e83da033f9e90dae16ae9625b82841061184c5750505082018401846117d8846117be565b8054868501890152928701928101611834565b60ff191689880152505050151560051b830185019050846117d8846117be565b34610878576020366003190112610878576004359063ffffffff60e01b821680920361087857602091635a05180f60e01b81149081156118c1575b5015158152f35b637965db0b60e01b8114915081156118db575b50836118ba565b6301ffc9a760e01b149050836118d4565b805180835260209291819084018484015e5f828201840152601f01601f1916010190565b602435906001600160a01b038216820361087857565b600435906001600160a01b038216820361087857565b9181601f84011215610878578235916001600160401b038311610878576020808501948460051b01011161087857565b60018060a01b0381511682526020810151602083015260408101516040830152606081015160608301526080810151608083015260a081015160a083015260c081015160c08301526001600160601b0360e08201511660e0830152610100808201519061ffff80921690840152610120818184015116908401526101408181840151169084015261016081818401511690840152610180908183015116908301526101a0809101511515910152565b606081019081106001600160401b0382111761142057604052565b6101c081019081106001600160401b0382111761142057604052565b608081019081106001600160401b0382111761142057604052565b90601f801991011681019081106001600160401b0382111761142057604052565b90600182811c92168015611abc575b6020831014611aa857565b634e487b7160e01b5f52602260045260245ffd5b91607f1691611a9d565b51906001600160a01b038216820361087857565b6001600160a01b03165f9081527f73a2a247d4b1b6fe056fe90935e9bd3694e896bafdd08f046c2afe6ec2db21036020526040902090565b6001600160401b0381116114205760051b60200190565b60405190611b3682611a36565b5f6101a0838281528260208201528260408201528260608201528260808201528260a08201528260c08201528260e082015282610100820152826101208201528261014082015282610160820152826101808201520152565b611bb86040915f60608451611ba381611a52565b82815282602082015282868201520152611ada565b546001600160801b038116918215611c2b576001600160401b03809260801c16825f80516020612d618339815191525460701c16810191838311611c1757805194611c0286611a52565b60018652602086015284015216606082015290565b634e487b7160e01b5f52601160045260245ffd5b805192505f9150611c3b83611a52565b8183528160208401528201525f606082015290565b8051821015611c645760209160051b010190565b634e487b7160e01b5f52603260045260245ffd5b91908201809211611c1757565b91908203918211611c1757565b805f525f80516020612d8183398151915260205260405f20335f5260205260ff60405f20541615610e275750565b611cca8282612789565b9182611cd557505090565b5f9182525f80516020612d218339815191526020526040909120611d02916001600160a01b031690612b80565b5090565b519081600c0b820361087857565b519065ffffffffffff8216820361087857565b51906001600160601b038216820361087857565b51906001600160801b038216820361087857565b808203916101e08312610878576040908151936101008501916001600160401b03928681108482111761142057808552606080931261087857611d9181611a1b565b85516cffffffffffffffffffffffffff81168103610878578152602090611dba60208801611d06565b610120890152611dcb868801611d14565b6101408901528752611ddf60608701611d27565b6020880152611df060808701611d27565b858801528160bf870112156108785784519384860190811185821017611420578552836101608701958387116108785760a08801915b878310611e805750505050505091611e496101c092611e78946060870152611d3b565b6080850152611e5b6101808201611d3b565b60a0850152611e6d6101a08201611d3b565b60c085015201611d3b565b60e082015290565b8583860312610878578386918351611e9781611a1b565b611ea086611d06565b8152611ead838701611d06565b83820152611ebc858701611d14565b85820152815201920191611e26565b9190915f8382019384129112908015821691151617611c1757565b81810392915f138015828513169184121617611c1757565b81810292918115918404141715611c1757565b604051636dd6e80b60e01b81526001600160a01b03906020816004817f000000000000000000000000000000000000000000000000000000000000000086165afa908115611434575f91611f6457501690565b90506020813d602011611f94575b81611f7f60209383611a6d565b8101031261087857611f9090611ac6565b1690565b3d9150611f72565b919062278d00808411612090575061ffff8082116120725750678ac7230489e8000080831161205457505f80516020612d61833981519152805460b083901b61ffff60b01b166dffffffffffffffffffffffffffff909116607086901b67ffffffffffffffff60701b16171760c084901b6001600160c01b0319161790556040805193845260208401919091528201527f03f5f18556cc6a1f9c579e83bc3608cb2c78864190b0208a8a9614e1e566d53690606090a1565b826044916040519163903e86a760e01b835260048301526024820152fd5b604492506040519163039fccdb60e61b835260048301526024820152fd5b8360449160405191623292c360e51b835260048301526024820152fd5b519061ffff8216820361087857565b5190811515820361087857565b906120d2611b29565b5060405163280be2f560e01b81526001600160a01b038381166004830152610140908290602490829086165afa908115611434575f9161256a575b50604051630e8ddced60e41b81526001600160a01b0384811660048301526101e092919083908290602490829088165afa928315611434575f9361254b575b505060405163ab2f0e5160e01b81526020816004816001600160a01b0389165afa908115611434575f91612519575b50604051636f9978c960e01b8152906020826004816001600160a01b038a165afa908115611434575f916124e3575b6121b49250611c78565b916121c660608201516112b881612c45565b515160405163266bcf0560e11b8152600c9190910b916020826004816001600160a01b038b165afa918215611434575f926124af575b506001600160601b03602081604084015116920151166044602060018060a01b03612225611f11565b604051633641439f60e11b81526001600160a01b038d1660048201525f602482015293849290918391165afa908115611434575f9161247d575b506040516323509a2d60e01b8152906020826004817f00000000000000000000000000000000000000000000000000000000000000006001600160a01b03165afa918215611434575f9261243f575b506040516240cd2760e21b8152600481019190915290602090829060249082906001600160a01b03165afa908115611434575f9161240d575b5060208601516001600160601b031691608087015161ffff169360a088015161ffff169560c089015161ffff169760e08a015161ffff1699610100015161ffff169a8d604051809e819263f9c8d46b60e01b8352600160a01b60019003166004830152600160a01b60019003165a92602491602094fa9c8d15611434575f9d6123d1575b5060206040519e8f9061237d82611a36565b6001600160a01b03168152015260408d015260608c015260808b015260a08a015260c089015260e088015261010087015261012086015261014085015261016084015261018083015215156101a082015290565b909c506020813d602011612405575b816123ed60209383611a6d565b81010312610878576123fe906120bc565b9b5f61236b565b3d91506123e0565b90506020813d602011612437575b8161242860209383611a6d565b8101031261087857515f6122e7565b3d915061241b565b9091506020813d602011612475575b8161245b60209383611a6d565b810103126108785761246e602091611ac6565b91906122ae565b3d915061244e565b90506020813d6020116124a7575b8161249860209383611a6d565b8101031261087857515f61225f565b3d915061248b565b9091506020813d6020116124db575b816124cb60209383611a6d565b810103126108785751905f6121fc565b3d91506124be565b90506020823d602011612511575b816124fe60209383611a6d565b81010312610878576121b49151906121aa565b3d91506124f1565b90506020813d602011612543575b8161253460209383611a6d565b8101031261087857515f61217b565b3d9150612527565b612562929350803d10611503576114f48183611a6d565b905f8061214c565b9050610140813d6101401161265a575b816125886101409383611a6d565b81010312610878576040519061014082018281106001600160401b03821117611420576040526125b781611ac6565b82526125c560208201611d27565b60208301526125d660408201611d27565b60408301526125e760608201611d14565b60608301526125f8608082016120ad565b608083015261260960a082016120ad565b60a083015261261a60c082016120ad565b60c083015261262b60e082016120ad565b60e083015261010061263e8183016120ad565b908301526126506101208092016120bc565b908201525f61210d565b3d915061257a565b6001600160a01b03165f8181527fb7db2dd08fcb62d0c9e08c51941cae53c267786a0b75803fb7960902fc8ef97d60205260409020545f80516020612d818339815191529060ff166126f9575f805260205260405f20815f5260205260405f20600160ff1982541617905533905f7f2f8788117e7eff1d82e926ec794901d17c78024a50270940304540a733656f0d8180a4600190565b50505f90565b90815f525f80516020612d818339815191528060205260405f209160018060a01b031691825f5260205260ff60405f205416155f1461278257825f5260205260405f20815f5260205260405f20600160ff1982541617905533917f2f8788117e7eff1d82e926ec794901d17c78024a50270940304540a733656f0d5f80a4600190565b5050505f90565b90815f525f80516020612d818339815191528060205260405f209160018060a01b031691825f5260205260ff60405f2054165f1461278257825f5260205260405f20815f5260205260405f2060ff19815416905533917ff6391f5c32d9c69d2a47ea670b442974b53935d1edc7fd64eb21e047a839171b5f80a4600190565b906002811015611c645760051b0190565b61282281612c45565b9165ffffffffffff808060406128388787612808565b5101511692169182116128b657836001039360018511611c175781604061285f8787612808565b5101511683116128a6575060406128768585612808565b5101511614612891576040516311b11e8360e31b8152600490fd5b60209161289d91612808565b510151600c0b90565b9150506020925061289d91612808565b5050906128c291612808565b5151600c0b90565b9092916001600160601b038411612af15761291d6128e783611ada565b9360206129106001600160801b03875416946cffffffffffffffffffffffffff84515116611ecb565b91510151600c0b90611ee6565b925f80516020612d618339815191529182546127109161ffff8260b01c16830191828411611c175783612950848a611efe565b049361295c8387612c6e565b6003811015612add57806129a15750505050508511155f1461297f575050505090565b6001600160401b036129958561299e9697611c85565b92541692612cb5565b90565b60019192949693959750989798145f146129fd5750505050508311155f146129f757505f6129ce82611ada565b556040515f81526001600160a01b03909116905f80516020612d4183398151915290602090a290565b91505090565b93959293612a2990848a1115612ad357612a22612a1a868c611c85565b985b87611efe565b0486611c78565b8811612a8357505050505f612a3d84611ada565b558311612a6c57505f80516020612d4183398151915260205f925b6040519384526001600160a01b031692a290565b60205f80516020612d418339815191529192612a58565b90919461299e9750612ace9450612ac6846001600160401b03926040999699518281525f80516020612d41833981519152602060018060a01b038a1692a2611c85565b921692612cb5565b611c78565b612a225f98612a1c565b634e487b7160e01b5f52602160045260245ffd5b604051630fb1776160e11b8152600490fd5b8054821015611c64575f5260205f2001905f90565b6001810190825f528160205260405f2054155f146127825780546801000000000000000081101561142057612b6d612b57826001879401855584612b03565b819391549060031b91821b915f19901b19161790565b905554915f5260205260405f2055600190565b906001820191815f528260205260405f2054908115155f14612c3d575f1991808301818111611c1757825490848201918211611c1757818103612c08575b50505080548015612bf457820191612bd68383612b03565b909182549160031b1b19169055555f526020525f6040812055600190565b634e487b7160e01b5f52603160045260245ffd5b612c28612c18612b579386612b03565b90549060031b1c92839286612b03565b90555f528460205260405f20555f8080612bbe565b505050505f90565b65ffffffffffff604060208282855101511693015101511611155f14612c69575f90565b600190565b9015612cb0575f80516020612d6183398151915254906001600160401b0380915460801c168183160391818311611c175760701c8116911610612c6957600290565b505f90565b81546001600160c01b0319166001600160801b0384161760809490941b67ffffffffffffffff60801b169390931790556040519081526001600160a01b0391909116907f1b7857a0e6c81759bb67e03745ccda464c3be0c93757103ebd5440a7fc99bb3a90602090a256fec1f6fe24621ce81ec5827caf0253cadb74709b061630e6b55e82371705932000e42f3e59e53a29eadd89f976d3f8bd6dbbd1d12080c6828e457723bed1ab702173a2a247d4b1b6fe056fe90935e9bd3694e896bafdd08f046c2afe6ec2db210202dd7bc7dec4dceedda775e58dd541e08a116c6c53815c0bd028192f7b626800a2646970667358221220225a0db4742d86f9543a99022fcf1bdf5896462fe56cb676f50434cb166e620e64736f6c63430008190033","linkReferences":{}},"methodIdentifiers":{"DEFAULT_ADMIN_ROLE()":"a217fddf","LIDO_LOCATOR()":"dbba4b48","MAX_LIDO_FEE_RATE_PER_SECOND()":"dfd41d72","MAX_QUARANTINE_PERIOD()":"c019b0de","MAX_REWARD_RATIO()":"d591101f","UPDATE_SANITY_PARAMS_ROLE()":"f98fc06d","batchValidatorStages(bytes[])":"a73a0866","batchVaultsInfo(uint256,uint256)":"d1b303c9","getRoleAdmin(bytes32)":"248a9ca3","getRoleMember(bytes32,uint256)":"9010d07c","getRoleMemberCount(bytes32)":"ca15c873","getRoleMembers(bytes32)":"a3246ad3","grantRole(bytes32,address)":"2f2ff15d","hasRole(bytes32,address)":"91d14854","initialize(address,uint256,uint256,uint256)":"4ec81af1","latestReportData()":"228aa843","latestReportTimestamp()":"c6290e35","maxLidoFeeRatePerSecond()":"d8641a1d","maxRewardRatioBP()":"f255126e","quarantinePeriod()":"b3280f6a","removeVaultQuarantine(address)":"39a3a496","renounceRole(bytes32,address)":"36568abe","revokeRole(bytes32,address)":"d547741f","supportsInterface(bytes4)":"01ffc9a7","updateReportData(uint256,uint256,bytes32,string)":"feb7b74c","updateSanityParams(uint256,uint256,uint256)":"90f16f73","updateVaultData(address,uint256,uint256,uint256,uint256,uint256,bytes32[])":"4c11a509","vaultInfo(address)":"9164359a","vaultQuarantine(address)":"a64e320c","vaultsCount()":"88977738"},"id":43}