{"abi":[{"type":"constructor","inputs":[{"name":"_locator","type":"address","internalType":"contract ILidoLocator"},{"name":"_lido","type":"address","internalType":"contract ILido"},{"name":"_consensusContract","type":"address","internalType":"contract IHashConsensus"},{"name":"_maxRelativeShareLimitBP","type":"uint256","internalType":"uint256"}],"stateMutability":"nonpayable"},{"type":"receive","stateMutability":"payable"},{"type":"function","name":"BAD_DEBT_MASTER_ROLE","inputs":[],"outputs":[{"name":"","type":"bytes32","internalType":"bytes32"}],"stateMutability":"view"},{"type":"function","name":"CONNECT_DEPOSIT","inputs":[],"outputs":[{"name":"","type":"uint256","internalType":"uint256"}],"stateMutability":"view"},{"type":"function","name":"CONSENSUS_CONTRACT","inputs":[],"outputs":[{"name":"","type":"address","internalType":"contract IHashConsensus"}],"stateMutability":"view"},{"type":"function","name":"DEFAULT_ADMIN_ROLE","inputs":[],"outputs":[{"name":"","type":"bytes32","internalType":"bytes32"}],"stateMutability":"view"},{"type":"function","name":"LIDO","inputs":[],"outputs":[{"name":"","type":"address","internalType":"contract ILido"}],"stateMutability":"view"},{"type":"function","name":"LIDO_LOCATOR","inputs":[],"outputs":[{"name":"","type":"address","internalType":"contract ILidoLocator"}],"stateMutability":"view"},{"type":"function","name":"MAX_RELATIVE_SHARE_LIMIT_BP","inputs":[],"outputs":[{"name":"","type":"uint256","internalType":"uint256"}],"stateMutability":"view"},{"type":"function","name":"PAUSE_INFINITELY","inputs":[],"outputs":[{"name":"","type":"uint256","internalType":"uint256"}],"stateMutability":"view"},{"type":"function","name":"PAUSE_ROLE","inputs":[],"outputs":[{"name":"","type":"bytes32","internalType":"bytes32"}],"stateMutability":"view"},{"type":"function","name":"REDEMPTION_MASTER_ROLE","inputs":[],"outputs":[{"name":"","type":"bytes32","internalType":"bytes32"}],"stateMutability":"view"},{"type":"function","name":"REPORT_FRESHNESS_DELTA","inputs":[],"outputs":[{"name":"","type":"uint256","internalType":"uint256"}],"stateMutability":"view"},{"type":"function","name":"RESUME_ROLE","inputs":[],"outputs":[{"name":"","type":"bytes32","internalType":"bytes32"}],"stateMutability":"view"},{"type":"function","name":"VALIDATOR_EXIT_ROLE","inputs":[],"outputs":[{"name":"","type":"bytes32","internalType":"bytes32"}],"stateMutability":"view"},{"type":"function","name":"VAULT_MASTER_ROLE","inputs":[],"outputs":[{"name":"","type":"bytes32","internalType":"bytes32"}],"stateMutability":"view"},{"type":"function","name":"applyVaultReport","inputs":[{"name":"_vault","type":"address","internalType":"address"},{"name":"_reportTimestamp","type":"uint256","internalType":"uint256"},{"name":"_reportTotalValue","type":"uint256","internalType":"uint256"},{"name":"_reportInOutDelta","type":"int256","internalType":"int256"},{"name":"_reportCumulativeLidoFees","type":"uint256","internalType":"uint256"},{"name":"_reportLiabilityShares","type":"uint256","internalType":"uint256"},{"name":"_reportMaxLiabilityShares","type":"uint256","internalType":"uint256"},{"name":"_reportSlashingReserve","type":"uint256","internalType":"uint256"}],"outputs":[],"stateMutability":"nonpayable"},{"type":"function","name":"badDebtToInternalize","inputs":[],"outputs":[{"name":"","type":"uint256","internalType":"uint256"}],"stateMutability":"view"},{"type":"function","name":"burnShares","inputs":[{"name":"_vault","type":"address","internalType":"address"},{"name":"_amountOfShares","type":"uint256","internalType":"uint256"}],"outputs":[],"stateMutability":"nonpayable"},{"type":"function","name":"collectERC20FromVault","inputs":[{"name":"_vault","type":"address","internalType":"address"},{"name":"_token","type":"address","internalType":"address"},{"name":"_recipient","type":"address","internalType":"address"},{"name":"_amount","type":"uint256","internalType":"uint256"}],"outputs":[],"stateMutability":"nonpayable"},{"type":"function","name":"connectVault","inputs":[{"name":"_vault","type":"address","internalType":"address"}],"outputs":[],"stateMutability":"nonpayable"},{"type":"function","name":"decreaseInternalizedBadDebt","inputs":[{"name":"_amountOfShares","type":"uint256","internalType":"uint256"}],"outputs":[],"stateMutability":"nonpayable"},{"type":"function","name":"disconnect","inputs":[{"name":"_vault","type":"address","internalType":"address"}],"outputs":[],"stateMutability":"nonpayable"},{"type":"function","name":"forceRebalance","inputs":[{"name":"_vault","type":"address","internalType":"address"}],"outputs":[],"stateMutability":"nonpayable"},{"type":"function","name":"forceValidatorExit","inputs":[{"name":"_vault","type":"address","internalType":"address"},{"name":"_pubkeys","type":"bytes","internalType":"bytes"},{"name":"_refundRecipient","type":"address","internalType":"address"}],"outputs":[],"stateMutability":"payable"},{"type":"function","name":"fund","inputs":[{"name":"_vault","type":"address","internalType":"address"}],"outputs":[],"stateMutability":"payable"},{"type":"function","name":"getResumeSinceTimestamp","inputs":[],"outputs":[{"name":"","type":"uint256","internalType":"uint256"}],"stateMutability":"view"},{"type":"function","name":"getRoleAdmin","inputs":[{"name":"role","type":"bytes32","internalType":"bytes32"}],"outputs":[{"name":"","type":"bytes32","internalType":"bytes32"}],"stateMutability":"view"},{"type":"function","name":"getRoleMember","inputs":[{"name":"role","type":"bytes32","internalType":"bytes32"},{"name":"index","type":"uint256","internalType":"uint256"}],"outputs":[{"name":"","type":"address","internalType":"address"}],"stateMutability":"view"},{"type":"function","name":"getRoleMemberCount","inputs":[{"name":"role","type":"bytes32","internalType":"bytes32"}],"outputs":[{"name":"","type":"uint256","internalType":"uint256"}],"stateMutability":"view"},{"type":"function","name":"getRoleMembers","inputs":[{"name":"role","type":"bytes32","internalType":"bytes32"}],"outputs":[{"name":"","type":"address[]","internalType":"address[]"}],"stateMutability":"view"},{"type":"function","name":"grantRole","inputs":[{"name":"role","type":"bytes32","internalType":"bytes32"},{"name":"account","type":"address","internalType":"address"}],"outputs":[],"stateMutability":"nonpayable"},{"type":"function","name":"hasRole","inputs":[{"name":"role","type":"bytes32","internalType":"bytes32"},{"name":"account","type":"address","internalType":"address"}],"outputs":[{"name":"","type":"bool","internalType":"bool"}],"stateMutability":"view"},{"type":"function","name":"healthShortfallShares","inputs":[{"name":"_vault","type":"address","internalType":"address"}],"outputs":[{"name":"","type":"uint256","internalType":"uint256"}],"stateMutability":"view"},{"type":"function","name":"initialize","inputs":[{"name":"_admin","type":"address","internalType":"address"}],"outputs":[],"stateMutability":"nonpayable"},{"type":"function","name":"internalizeBadDebt","inputs":[{"name":"_badDebtVault","type":"address","internalType":"address"},{"name":"_maxSharesToInternalize","type":"uint256","internalType":"uint256"}],"outputs":[{"name":"","type":"uint256","internalType":"uint256"}],"stateMutability":"nonpayable"},{"type":"function","name":"isPaused","inputs":[],"outputs":[{"name":"","type":"bool","internalType":"bool"}],"stateMutability":"view"},{"type":"function","name":"isPendingDisconnect","inputs":[{"name":"_vault","type":"address","internalType":"address"}],"outputs":[{"name":"","type":"bool","internalType":"bool"}],"stateMutability":"view"},{"type":"function","name":"isReportFresh","inputs":[{"name":"_vault","type":"address","internalType":"address"}],"outputs":[{"name":"","type":"bool","internalType":"bool"}],"stateMutability":"view"},{"type":"function","name":"isVaultConnected","inputs":[{"name":"_vault","type":"address","internalType":"address"}],"outputs":[{"name":"","type":"bool","internalType":"bool"}],"stateMutability":"view"},{"type":"function","name":"isVaultHealthy","inputs":[{"name":"_vault","type":"address","internalType":"address"}],"outputs":[{"name":"","type":"bool","internalType":"bool"}],"stateMutability":"view"},{"type":"function","name":"latestReport","inputs":[{"name":"_vault","type":"address","internalType":"address"}],"outputs":[{"name":"","type":"tuple","internalType":"struct VaultHub.Report","components":[{"name":"totalValue","type":"uint104","internalType":"uint104"},{"name":"inOutDelta","type":"int104","internalType":"int104"},{"name":"timestamp","type":"uint48","internalType":"uint48"}]}],"stateMutability":"view"},{"type":"function","name":"liabilityShares","inputs":[{"name":"_vault","type":"address","internalType":"address"}],"outputs":[{"name":"","type":"uint256","internalType":"uint256"}],"stateMutability":"view"},{"type":"function","name":"locked","inputs":[{"name":"_vault","type":"address","internalType":"address"}],"outputs":[{"name":"","type":"uint256","internalType":"uint256"}],"stateMutability":"view"},{"type":"function","name":"maxLockableValue","inputs":[{"name":"_vault","type":"address","internalType":"address"}],"outputs":[{"name":"","type":"uint256","internalType":"uint256"}],"stateMutability":"view"},{"type":"function","name":"mintShares","inputs":[{"name":"_vault","type":"address","internalType":"address"},{"name":"_recipient","type":"address","internalType":"address"},{"name":"_amountOfShares","type":"uint256","internalType":"uint256"}],"outputs":[],"stateMutability":"nonpayable"},{"type":"function","name":"obligations","inputs":[{"name":"_vault","type":"address","internalType":"address"}],"outputs":[{"name":"sharesToBurn","type":"uint256","internalType":"uint256"},{"name":"feesToSettle","type":"uint256","internalType":"uint256"}],"stateMutability":"view"},{"type":"function","name":"obligationsShortfallValue","inputs":[{"name":"_vault","type":"address","internalType":"address"}],"outputs":[{"name":"","type":"uint256","internalType":"uint256"}],"stateMutability":"view"},{"type":"function","name":"pauseBeaconChainDeposits","inputs":[{"name":"_vault","type":"address","internalType":"address"}],"outputs":[],"stateMutability":"nonpayable"},{"type":"function","name":"pauseFor","inputs":[{"name":"_duration","type":"uint256","internalType":"uint256"}],"outputs":[],"stateMutability":"nonpayable"},{"type":"function","name":"pauseUntil","inputs":[{"name":"_pauseUntilInclusive","type":"uint256","internalType":"uint256"}],"outputs":[],"stateMutability":"nonpayable"},{"type":"function","name":"proveUnknownValidatorToPDG","inputs":[{"name":"_vault","type":"address","internalType":"address"},{"name":"_witness","type":"tuple","internalType":"struct IPredepositGuarantee.ValidatorWitness","components":[{"name":"proof","type":"bytes32[]","internalType":"bytes32[]"},{"name":"pubkey","type":"bytes","internalType":"bytes"},{"name":"validatorIndex","type":"uint256","internalType":"uint256"},{"name":"childBlockTimestamp","type":"uint64","internalType":"uint64"},{"name":"slot","type":"uint64","internalType":"uint64"},{"name":"proposerIndex","type":"uint64","internalType":"uint64"}]}],"outputs":[],"stateMutability":"nonpayable"},{"type":"function","name":"rebalance","inputs":[{"name":"_vault","type":"address","internalType":"address"},{"name":"_shares","type":"uint256","internalType":"uint256"}],"outputs":[],"stateMutability":"nonpayable"},{"type":"function","name":"renounceRole","inputs":[{"name":"role","type":"bytes32","internalType":"bytes32"},{"name":"callerConfirmation","type":"address","internalType":"address"}],"outputs":[],"stateMutability":"nonpayable"},{"type":"function","name":"requestValidatorExit","inputs":[{"name":"_vault","type":"address","internalType":"address"},{"name":"_pubkeys","type":"bytes","internalType":"bytes"}],"outputs":[],"stateMutability":"nonpayable"},{"type":"function","name":"resume","inputs":[],"outputs":[],"stateMutability":"nonpayable"},{"type":"function","name":"resumeBeaconChainDeposits","inputs":[{"name":"_vault","type":"address","internalType":"address"}],"outputs":[],"stateMutability":"nonpayable"},{"type":"function","name":"revokeRole","inputs":[{"name":"role","type":"bytes32","internalType":"bytes32"},{"name":"account","type":"address","internalType":"address"}],"outputs":[],"stateMutability":"nonpayable"},{"type":"function","name":"setLiabilitySharesTarget","inputs":[{"name":"_vault","type":"address","internalType":"address"},{"name":"_liabilitySharesTarget","type":"uint256","internalType":"uint256"}],"outputs":[],"stateMutability":"nonpayable"},{"type":"function","name":"settleLidoFees","inputs":[{"name":"_vault","type":"address","internalType":"address"}],"outputs":[],"stateMutability":"nonpayable"},{"type":"function","name":"settleableLidoFeesValue","inputs":[{"name":"_vault","type":"address","internalType":"address"}],"outputs":[{"name":"","type":"uint256","internalType":"uint256"}],"stateMutability":"view"},{"type":"function","name":"socializeBadDebt","inputs":[{"name":"_badDebtVault","type":"address","internalType":"address"},{"name":"_vaultAcceptor","type":"address","internalType":"address"},{"name":"_maxSharesToSocialize","type":"uint256","internalType":"uint256"}],"outputs":[{"name":"","type":"uint256","internalType":"uint256"}],"stateMutability":"nonpayable"},{"type":"function","name":"supportsInterface","inputs":[{"name":"interfaceId","type":"bytes4","internalType":"bytes4"}],"outputs":[{"name":"","type":"bool","internalType":"bool"}],"stateMutability":"view"},{"type":"function","name":"totalMintingCapacityShares","inputs":[{"name":"_vault","type":"address","internalType":"address"},{"name":"_deltaValue","type":"int256","internalType":"int256"}],"outputs":[{"name":"","type":"uint256","internalType":"uint256"}],"stateMutability":"view"},{"type":"function","name":"totalValue","inputs":[{"name":"_vault","type":"address","internalType":"address"}],"outputs":[{"name":"","type":"uint256","internalType":"uint256"}],"stateMutability":"view"},{"type":"function","name":"transferAndBurnShares","inputs":[{"name":"_vault","type":"address","internalType":"address"},{"name":"_amountOfShares","type":"uint256","internalType":"uint256"}],"outputs":[],"stateMutability":"nonpayable"},{"type":"function","name":"transferVaultOwnership","inputs":[{"name":"_vault","type":"address","internalType":"address"},{"name":"_newOwner","type":"address","internalType":"address"}],"outputs":[],"stateMutability":"nonpayable"},{"type":"function","name":"triggerValidatorWithdrawals","inputs":[{"name":"_vault","type":"address","internalType":"address"},{"name":"_pubkeys","type":"bytes","internalType":"bytes"},{"name":"_amountsInGwei","type":"uint64[]","internalType":"uint64[]"},{"name":"_refundRecipient","type":"address","internalType":"address"}],"outputs":[],"stateMutability":"payable"},{"type":"function","name":"updateConnection","inputs":[{"name":"_vault","type":"address","internalType":"address"},{"name":"_shareLimit","type":"uint256","internalType":"uint256"},{"name":"_reserveRatioBP","type":"uint256","internalType":"uint256"},{"name":"_forcedRebalanceThresholdBP","type":"uint256","internalType":"uint256"},{"name":"_infraFeeBP","type":"uint256","internalType":"uint256"},{"name":"_liquidityFeeBP","type":"uint256","internalType":"uint256"},{"name":"_reservationFeeBP","type":"uint256","internalType":"uint256"}],"outputs":[],"stateMutability":"nonpayable"},{"type":"function","name":"vaultByIndex","inputs":[{"name":"_index","type":"uint256","internalType":"uint256"}],"outputs":[{"name":"","type":"address","internalType":"address"}],"stateMutability":"view"},{"type":"function","name":"vaultConnection","inputs":[{"name":"_vault","type":"address","internalType":"address"}],"outputs":[{"name":"","type":"tuple","internalType":"struct VaultHub.VaultConnection","components":[{"name":"owner","type":"address","internalType":"address"},{"name":"shareLimit","type":"uint96","internalType":"uint96"},{"name":"vaultIndex","type":"uint96","internalType":"uint96"},{"name":"disconnectInitiatedTs","type":"uint48","internalType":"uint48"},{"name":"reserveRatioBP","type":"uint16","internalType":"uint16"},{"name":"forcedRebalanceThresholdBP","type":"uint16","internalType":"uint16"},{"name":"infraFeeBP","type":"uint16","internalType":"uint16"},{"name":"liquidityFeeBP","type":"uint16","internalType":"uint16"},{"name":"reservationFeeBP","type":"uint16","internalType":"uint16"},{"name":"beaconChainDepositsPauseIntent","type":"bool","internalType":"bool"}]}],"stateMutability":"view"},{"type":"function","name":"vaultRecord","inputs":[{"name":"_vault","type":"address","internalType":"address"}],"outputs":[{"name":"","type":"tuple","internalType":"struct VaultHub.VaultRecord","components":[{"name":"report","type":"tuple","internalType":"struct VaultHub.Report","components":[{"name":"totalValue","type":"uint104","internalType":"uint104"},{"name":"inOutDelta","type":"int104","internalType":"int104"},{"name":"timestamp","type":"uint48","internalType":"uint48"}]},{"name":"maxLiabilityShares","type":"uint96","internalType":"uint96"},{"name":"liabilityShares","type":"uint96","internalType":"uint96"},{"name":"inOutDelta","type":"tuple[2]","internalType":"struct DoubleRefSlotCache.Int104WithCache[2]","components":[{"name":"value","type":"int104","internalType":"int104"},{"name":"valueOnRefSlot","type":"int104","internalType":"int104"},{"name":"refSlot","type":"uint48","internalType":"uint48"}]},{"name":"minimalReserve","type":"uint128","internalType":"uint128"},{"name":"redemptionShares","type":"uint128","internalType":"uint128"},{"name":"cumulativeLidoFees","type":"uint128","internalType":"uint128"},{"name":"settledLidoFees","type":"uint128","internalType":"uint128"}]}],"stateMutability":"view"},{"type":"function","name":"vaultsCount","inputs":[],"outputs":[{"name":"","type":"uint256","internalType":"uint256"}],"stateMutability":"view"},{"type":"function","name":"voluntaryDisconnect","inputs":[{"name":"_vault","type":"address","internalType":"address"}],"outputs":[],"stateMutability":"nonpayable"},{"type":"function","name":"withdraw","inputs":[{"name":"_vault","type":"address","internalType":"address"},{"name":"_recipient","type":"address","internalType":"address"},{"name":"_ether","type":"uint256","internalType":"uint256"}],"outputs":[],"stateMutability":"nonpayable"},{"type":"function","name":"withdrawableValue","inputs":[{"name":"_vault","type":"address","internalType":"address"}],"outputs":[{"name":"","type":"uint256","internalType":"uint256"}],"stateMutability":"view"},{"type":"event","name":"BadDebtSocialized","inputs":[{"name":"vaultDonor","type":"address","indexed":true,"internalType":"address"},{"name":"vaultAcceptor","type":"address","indexed":true,"internalType":"address"},{"name":"badDebtShares","type":"uint256","indexed":false,"internalType":"uint256"}],"anonymous":false},{"type":"event","name":"BadDebtWrittenOffToBeInternalized","inputs":[{"name":"vault","type":"address","indexed":true,"internalType":"address"},{"name":"badDebtShares","type":"uint256","indexed":false,"internalType":"uint256"}],"anonymous":false},{"type":"event","name":"BeaconChainDepositsPauseIntentSet","inputs":[{"name":"vault","type":"address","indexed":true,"internalType":"address"},{"name":"pauseIntent","type":"bool","indexed":false,"internalType":"bool"}],"anonymous":false},{"type":"event","name":"BurnedSharesOnVault","inputs":[{"name":"vault","type":"address","indexed":true,"internalType":"address"},{"name":"amountOfShares","type":"uint256","indexed":false,"internalType":"uint256"}],"anonymous":false},{"type":"event","name":"ForcedValidatorExitTriggered","inputs":[{"name":"vault","type":"address","indexed":true,"internalType":"address"},{"name":"pubkeys","type":"bytes","indexed":false,"internalType":"bytes"},{"name":"refundRecipient","type":"address","indexed":false,"internalType":"address"}],"anonymous":false},{"type":"event","name":"Initialized","inputs":[{"name":"version","type":"uint64","indexed":false,"internalType":"uint64"}],"anonymous":false},{"type":"event","name":"LidoFeesSettled","inputs":[{"name":"vault","type":"address","indexed":true,"internalType":"address"},{"name":"transferred","type":"uint256","indexed":false,"internalType":"uint256"},{"name":"cumulativeLidoFees","type":"uint256","indexed":false,"internalType":"uint256"},{"name":"settledLidoFees","type":"uint256","indexed":false,"internalType":"uint256"}],"anonymous":false},{"type":"event","name":"MintedSharesOnVault","inputs":[{"name":"vault","type":"address","indexed":true,"internalType":"address"},{"name":"amountOfShares","type":"uint256","indexed":false,"internalType":"uint256"},{"name":"lockedAmount","type":"uint256","indexed":false,"internalType":"uint256"}],"anonymous":false},{"type":"event","name":"Paused","inputs":[{"name":"duration","type":"uint256","indexed":false,"internalType":"uint256"}],"anonymous":false},{"type":"event","name":"Resumed","inputs":[],"anonymous":false},{"type":"event","name":"RoleAdminChanged","inputs":[{"name":"role","type":"bytes32","indexed":true,"internalType":"bytes32"},{"name":"previousAdminRole","type":"bytes32","indexed":true,"internalType":"bytes32"},{"name":"newAdminRole","type":"bytes32","indexed":true,"internalType":"bytes32"}],"anonymous":false},{"type":"event","name":"RoleGranted","inputs":[{"name":"role","type":"bytes32","indexed":true,"internalType":"bytes32"},{"name":"account","type":"address","indexed":true,"internalType":"address"},{"name":"sender","type":"address","indexed":true,"internalType":"address"}],"anonymous":false},{"type":"event","name":"RoleRevoked","inputs":[{"name":"role","type":"bytes32","indexed":true,"internalType":"bytes32"},{"name":"account","type":"address","indexed":true,"internalType":"address"},{"name":"sender","type":"address","indexed":true,"internalType":"address"}],"anonymous":false},{"type":"event","name":"VaultConnected","inputs":[{"name":"vault","type":"address","indexed":true,"internalType":"address"},{"name":"shareLimit","type":"uint256","indexed":false,"internalType":"uint256"},{"name":"reserveRatioBP","type":"uint256","indexed":false,"internalType":"uint256"},{"name":"forcedRebalanceThresholdBP","type":"uint256","indexed":false,"internalType":"uint256"},{"name":"infraFeeBP","type":"uint256","indexed":false,"internalType":"uint256"},{"name":"liquidityFeeBP","type":"uint256","indexed":false,"internalType":"uint256"},{"name":"reservationFeeBP","type":"uint256","indexed":false,"internalType":"uint256"}],"anonymous":false},{"type":"event","name":"VaultConnectionUpdated","inputs":[{"name":"vault","type":"address","indexed":true,"internalType":"address"},{"name":"nodeOperator","type":"address","indexed":true,"internalType":"address"},{"name":"shareLimit","type":"uint256","indexed":false,"internalType":"uint256"},{"name":"reserveRatioBP","type":"uint256","indexed":false,"internalType":"uint256"},{"name":"forcedRebalanceThresholdBP","type":"uint256","indexed":false,"internalType":"uint256"}],"anonymous":false},{"type":"event","name":"VaultDisconnectAborted","inputs":[{"name":"vault","type":"address","indexed":true,"internalType":"address"},{"name":"slashingReserve","type":"uint256","indexed":false,"internalType":"uint256"}],"anonymous":false},{"type":"event","name":"VaultDisconnectCompleted","inputs":[{"name":"vault","type":"address","indexed":true,"internalType":"address"}],"anonymous":false},{"type":"event","name":"VaultDisconnectInitiated","inputs":[{"name":"vault","type":"address","indexed":true,"internalType":"address"}],"anonymous":false},{"type":"event","name":"VaultFeesUpdated","inputs":[{"name":"vault","type":"address","indexed":true,"internalType":"address"},{"name":"preInfraFeeBP","type":"uint256","indexed":false,"internalType":"uint256"},{"name":"preLiquidityFeeBP","type":"uint256","indexed":false,"internalType":"uint256"},{"name":"preReservationFeeBP","type":"uint256","indexed":false,"internalType":"uint256"},{"name":"infraFeeBP","type":"uint256","indexed":false,"internalType":"uint256"},{"name":"liquidityFeeBP","type":"uint256","indexed":false,"internalType":"uint256"},{"name":"reservationFeeBP","type":"uint256","indexed":false,"internalType":"uint256"}],"anonymous":false},{"type":"event","name":"VaultInOutDeltaUpdated","inputs":[{"name":"vault","type":"address","indexed":true,"internalType":"address"},{"name":"inOutDelta","type":"int256","indexed":false,"internalType":"int256"}],"anonymous":false},{"type":"event","name":"VaultOwnershipTransferred","inputs":[{"name":"vault","type":"address","indexed":true,"internalType":"address"},{"name":"newOwner","type":"address","indexed":true,"internalType":"address"},{"name":"oldOwner","type":"address","indexed":true,"internalType":"address"}],"anonymous":false},{"type":"event","name":"VaultRebalanced","inputs":[{"name":"vault","type":"address","indexed":true,"internalType":"address"},{"name":"sharesBurned","type":"uint256","indexed":false,"internalType":"uint256"},{"name":"etherWithdrawn","type":"uint256","indexed":false,"internalType":"uint256"}],"anonymous":false},{"type":"event","name":"VaultRedemptionSharesUpdated","inputs":[{"name":"vault","type":"address","indexed":true,"internalType":"address"},{"name":"redemptionShares","type":"uint256","indexed":false,"internalType":"uint256"}],"anonymous":false},{"type":"event","name":"VaultReportApplied","inputs":[{"name":"vault","type":"address","indexed":true,"internalType":"address"},{"name":"reportTimestamp","type":"uint256","indexed":false,"internalType":"uint256"},{"name":"reportTotalValue","type":"uint256","indexed":false,"internalType":"uint256"},{"name":"reportInOutDelta","type":"int256","indexed":false,"internalType":"int256"},{"name":"reportCumulativeLidoFees","type":"uint256","indexed":false,"internalType":"uint256"},{"name":"reportLiabilityShares","type":"uint256","indexed":false,"internalType":"uint256"},{"name":"reportMaxLiabilityShares","type":"uint256","indexed":false,"internalType":"uint256"},{"name":"reportSlashingReserve","type":"uint256","indexed":false,"internalType":"uint256"}],"anonymous":false},{"type":"error","name":"AccessControlBadConfirmation","inputs":[]},{"type":"error","name":"AccessControlUnauthorizedAccount","inputs":[{"name":"account","type":"address","internalType":"address"},{"name":"neededRole","type":"bytes32","internalType":"bytes32"}]},{"type":"error","name":"AlreadyConnected","inputs":[{"name":"vault","type":"address","internalType":"address"},{"name":"index","type":"uint256","internalType":"uint256"}]},{"type":"error","name":"AmountExceedsTotalValue","inputs":[{"name":"vault","type":"address","internalType":"address"},{"name":"totalValue","type":"uint256","internalType":"uint256"},{"name":"withdrawAmount","type":"uint256","internalType":"uint256"}]},{"type":"error","name":"AmountExceedsWithdrawableValue","inputs":[{"name":"vault","type":"address","internalType":"address"},{"name":"withdrawable","type":"uint256","internalType":"uint256"},{"name":"requested","type":"uint256","internalType":"uint256"}]},{"type":"error","name":"BadDebtSocializationNotAllowed","inputs":[]},{"type":"error","name":"ForcedValidatorExitNotAllowed","inputs":[]},{"type":"error","name":"InsufficientSharesToBurn","inputs":[{"name":"vault","type":"address","internalType":"address"},{"name":"amount","type":"uint256","internalType":"uint256"}]},{"type":"error","name":"InsufficientStagedBalance","inputs":[{"name":"vault","type":"address","internalType":"address"}]},{"type":"error","name":"InsufficientValue","inputs":[{"name":"vault","type":"address","internalType":"address"},{"name":"etherToLock","type":"uint256","internalType":"uint256"},{"name":"maxLockableValue","type":"uint256","internalType":"uint256"}]},{"type":"error","name":"InvalidBasisPoints","inputs":[{"name":"valueBP","type":"uint256","internalType":"uint256"},{"name":"maxValueBP","type":"uint256","internalType":"uint256"}]},{"type":"error","name":"InvalidInitialization","inputs":[]},{"type":"error","name":"NoFundsForForceRebalance","inputs":[{"name":"vault","type":"address","internalType":"address"}]},{"type":"error","name":"NoFundsToSettleLidoFees","inputs":[{"name":"vault","type":"address","internalType":"address"},{"name":"unsettledLidoFees","type":"uint256","internalType":"uint256"}]},{"type":"error","name":"NoLiabilitySharesShouldBeLeft","inputs":[{"name":"vault","type":"address","internalType":"address"},{"name":"liabilityShares","type":"uint256","internalType":"uint256"}]},{"type":"error","name":"NoReasonForForceRebalance","inputs":[{"name":"vault","type":"address","internalType":"address"}]},{"type":"error","name":"NoUnsettledLidoFeesShouldBeLeft","inputs":[{"name":"vault","type":"address","internalType":"address"},{"name":"unsettledLidoFees","type":"uint256","internalType":"uint256"}]},{"type":"error","name":"NoUnsettledLidoFeesToSettle","inputs":[{"name":"vault","type":"address","internalType":"address"}]},{"type":"error","name":"NotAuthorized","inputs":[]},{"type":"error","name":"NotConnectedToHub","inputs":[{"name":"vault","type":"address","internalType":"address"}]},{"type":"error","name":"NotInitializing","inputs":[]},{"type":"error","name":"PDGNotDepositor","inputs":[{"name":"vault","type":"address","internalType":"address"}]},{"type":"error","name":"PartialValidatorWithdrawalNotAllowed","inputs":[]},{"type":"error","name":"PauseIntentAlreadySet","inputs":[]},{"type":"error","name":"PauseIntentAlreadyUnset","inputs":[]},{"type":"error","name":"PauseUntilMustBeInFuture","inputs":[]},{"type":"error","name":"PausedExpected","inputs":[]},{"type":"error","name":"ResumedExpected","inputs":[]},{"type":"error","name":"SafeCastOverflowedIntToUint","inputs":[{"name":"value","type":"int256","internalType":"int256"}]},{"type":"error","name":"SafeCastOverflowedUintDowncast","inputs":[{"name":"bits","type":"uint8","internalType":"uint8"},{"name":"value","type":"uint256","internalType":"uint256"}]},{"type":"error","name":"ShareLimitExceeded","inputs":[{"name":"vault","type":"address","internalType":"address"},{"name":"expectedSharesAfterMint","type":"uint256","internalType":"uint256"},{"name":"shareLimit","type":"uint256","internalType":"uint256"}]},{"type":"error","name":"ShareLimitTooHigh","inputs":[{"name":"shareLimit","type":"uint256","internalType":"uint256"},{"name":"maxShareLimit","type":"uint256","internalType":"uint256"}]},{"type":"error","name":"VaultHubNotPendingOwner","inputs":[{"name":"vault","type":"address","internalType":"address"}]},{"type":"error","name":"VaultInsufficientBalance","inputs":[{"name":"vault","type":"address","internalType":"address"},{"name":"currentBalance","type":"uint256","internalType":"uint256"},{"name":"expectedBalance","type":"uint256","internalType":"uint256"}]},{"type":"error","name":"VaultIsDisconnecting","inputs":[{"name":"vault","type":"address","internalType":"address"}]},{"type":"error","name":"VaultMintingCapacityExceeded","inputs":[{"name":"vault","type":"address","internalType":"address"},{"name":"totalValue","type":"uint256","internalType":"uint256"},{"name":"liabilityShares","type":"uint256","internalType":"uint256"},{"name":"newRebalanceThresholdBP","type":"uint256","internalType":"uint256"}]},{"type":"error","name":"VaultNotFactoryDeployed","inputs":[{"name":"vault","type":"address","internalType":"address"}]},{"type":"error","name":"VaultOssified","inputs":[{"name":"vault","type":"address","internalType":"address"}]},{"type":"error","name":"VaultReportStale","inputs":[{"name":"vault","type":"address","internalType":"address"}]},{"type":"error","name":"ZeroAddress","inputs":[]},{"type":"error","name":"ZeroArgument","inputs":[]},{"type":"error","name":"ZeroPauseDuration","inputs":[]}],"bytecode":{"object":"0x610180346102d9576001600160401b0390601f61611b38819003918201601f191683019190848311848410176102dd5781608092859260409586528339810103126102d95781516001600160a01b039182821682036102d95760208401519383851685036102d9578181015193841684036102d95760600151947f479bc4a51d27fbdc8e51b5b1ebd3dcd58bd229090980bff226f8930587e69ce36080527f44f007e8cc2a08047a03d8d9c295057454942eb49ee3ced9c87e9b9406f2117460a0527f2159c5943234d9f3a7225b9a743ea06e4a0d0ba5ed82889e867759a8a9eb788360c0527fa85bab4b576ca359fa6ae02ab8744b5c85c7e7ed4d7e0bca7b5b64580ac5d17d60e05285156102c8576127108087116102ab57506101009586526101409283526101209485526101609384527ff0c57e16840df040f15088dc2f81fe391c3923bec73e23a9662efc9c229c6a009081549060ff82851c1661029a578080831603610256575b5050505192615e2994856102f28639608051858181610dab0152613a9b015260a0518581816115f80152612f48015260c0518581816109e60152612703015260e0518581816123440152818161381d0152613c610152518481816114a301526151fe01525183818161067001528181610c44015281816112640152818161269101528181614ebf01528181614f26015281816151bc0152615a1201525182818161053f01528181610a1f015281816116e90152818161465b015281816151010152818161515401526155fb0152518181816113ca0152818161264e015281816138c90152614a350152f35b6001600160401b0319909116811790915581519081527fc7f505b2f371ae2175ee4913f4499e1f2633a7b5936321eed1cdaeb6115181d290602090a15f808061016b565b835163f92ee8a960e01b8152600490fd5b8660449184519163b874199760e01b835260048301526024820152fd5b815163b7852ebb60e01b8152600490fd5b5f80fd5b634e487b7160e01b5f52604160045260245ffdfe608080604052600436101561001c575b50361561001a575f80fd5b005b5f905f3560e01c908163014d6eb114613c4c5750806301ffc9a714613bdc578063046f7da214613b04578063146a9bec14613abe5780631650aba514613a84578063176aa84714613a255780631eb40a5e14613a025780631ec63b32146137fc578063230244081461375b578063248a9ca314613722578063280be2f5146135855780632de03aa11461354a5780632de0e075146135235780632f00a7e1146133465780632f2ff15d146132bf57806330b0680b146132985780633451c9231461324b57806336568abe1461320357806337749ad414613128578063389ed267146130ed5780633a4952a3146130c95780633da9b9d01461306a5780633fd4d4131461300f5780633ffa490d14612f6b57806342c3aa2d14612f305780634a2264ef14612f0957806354013f4014612d8057806356a3d84014612cf65780635888454e14612bc1578063589ff76c14612b975780635926e3b914612978578063625c14f21461295a578063637e7473146129295780636bdce1b6146129015780636c82873e146128d957806373fbd9311461282a57806388977738146127df5780638a3f9a8e146126c05780638b21f1701461267b5780639001c6661461262e5780639010d07c146125dc57806391d148541461258657806396c4d5141461232e5780639ae15ac8146116a95780639c157e03146115b3578063a217fddf14611597578063a302ee381461157b578063a3246ad3146114c6578063a54e57991461148b578063abe9cfc814611425578063b187bd26146113f9578063b7fe7a90146113b4578063bf8ba59614611135578063c4d66de814610f5d578063ca15c87314610f27578063ca73922414610eeb578063cbf2433914610d8c578063cbf9fe5f14610d4d578063cd76658d14610bf8578063d547741f14610baa578063d779f38014610ae8578063d9caed1214610a4e578063dbba4b4814610a09578063e2af7c48146109ce578063e8ddced0146107fb578063e91c46c3146107d8578063ee762f2b14610723578063ee7a7c041461060d578063f0f0dadc14610518578063f3f449c7146104b4578063f9c821a714610448578063f9c8d46b14610417578063fdc10daf1461038f5763ffc976c00361000f573461038c57602036600319011261038c5760206001600160601b03600161037f61037a613c84565b614417565b0154161515604051908152f35b80fd5b503461038c57604036600319011261038c576103a9613c84565b6103b1613c9a565b906103bb826147f7565b6103c481614def565b80549160018060a01b039182808516956103dd876146c8565b1680946001600160601b0360a01b16179055167f0a402ba985b2a2d3af819d918cd60986d4478eca48be243a929b98372e1dce658480a480f35b503461038c57602036600319011261038c57602061043e61043961037a613c84565b614fcf565b6040519015158152f35b503461038c57602036600319011261038c57606061047d61047861046a613c84565b6104726144a0565b5061444f565b6144f2565b6104b2604051809265ffffffffffff604080926001600160681b0381511685526020810151600c0b6020860152015116910152565bf35b503461038c57602036600319011261038c576004356104d161458b565b6104d9614614565b8015610506576104f3905f19908181036104f65750615b8b565b80f35b6105019150426153a9565b615b8b565b60405163ad58bfc760e01b8152600490fd5b503461038c57602036600319011261038c57604051634b12741f60e11b81526020816004817f00000000000000000000000000000000000000000000000000000000000000006001600160a01b03165afa80156106025782906105c3575b61058091506146c8565b6001600160681b038060043516815f80516020615d748339815191525416039081116105af576104f3906142e3565b634e487b7160e01b82526011600452602482fd5b506020813d6020116105fa575b816105dd60209383613da9565b810103126105f6576105f161058091614474565b610576565b5080fd5b3d91506105d0565b6040513d84823e3d90fd5b503461038c57604036600319011261038c57610627613c84565b60243590610633614614565b61063c82614819565b6001600160a01b036106588161065184614def565b54166146c8565b6106618261444f565b61066c8482856148c6565b84827f000000000000000000000000000000000000000000000000000000000000000016803b156105f657818091602460405180948193633973172b60e11b83528b60048401525af1801561060257610707575b505090826106fb6020936106f47f762ab2e5aa5c6af0a3286390139644bf1e9190c1bc5410211a44b106f60f861996614417565b9083614748565b6040519485521692a280f35b61071390939293613d43565b61071f5790845f6106c0565b8480fd5b503461038c57602036600319011261038c5761073d613c84565b61074681614def565b80546001600160a01b039061075c9082166146c8565b600182019283549160ff8360e01c16156107c6576104f39461077d8361444f565b936107888585614832565b60ff60e01b19169055604051868152908216907fa6be802730cbe05b306ffd49eff61ff0eac8a59aff4a9507d9412914dde0015390602090a2614748565b604051637dee45d160e01b8152600490fd5b503461038c578060031936011261038c576020604051670de0b6b3a76400008152f35b503461038c57602036600319011261038c57610863610818613c84565b8260e060405161082781613d8d565b61082f6144a0565b81528260208201528260408201526108456144be565b60608201528260808201528260a08201528260c0820152015261444f565b9060056040519261087384613d8d565b61087c816144f2565b84526001600160601b036001820154818116602087015260601c1660408501526108a860028201614550565b606085015260048101546001600160801b038116608086015260801c60a085015201546001600160801b03811660c084015260801c60e08301526040519061091982845165ffffffffffff604080926001600160681b0381511685526020810151600c0b6020860152015116910152565b6001600160601b0360208401511660608301526001600160601b036040840151166080830152606083015160a083019091905b60028210610995576101e0846001600160801b0360e088826080820151166101608501528260a0820151166101808501528260c0820151166101a08501520151166101c0820152f35b6020606060019265ffffffffffff604087518051600c90810b855286820151900b8685015201511660408201520193019101909161094c565b503461038c578060031936011261038c5760206040517f00000000000000000000000000000000000000000000000000000000000000008152f35b503461038c578060031936011261038c576040517f00000000000000000000000000000000000000000000000000000000000000006001600160a01b03168152602090f35b503461038c57610a5d36613cf3565b90610a69939293614614565b610a7284614def565b8054610a86906001600160a01b03166146c8565b610aa4610a928661444f565b8092610a9e8289614832565b87614ff6565b94858411610ab7576104f39495506156f7565b60405163924ade0160e01b81526001600160a01b039190911660048201526024810186905260448101849052606490fd5b503461038c57602036600319011261038c57610b02613c84565b90610b0c82614def565b91610b168161444f565b92610b218483614832565b610b2a84614d89565b938415610b8957610b3c818385615a4d565b85811015610b8157925b8315610b57576104f39495506155a9565b60405163e35f5a5360e01b81526001600160a01b0391909116600482015260248101869052604490fd5b508492610b46565b60405163b3fa57e160e01b81526001600160a01b0384166004820152602490fd5b503461038c57604036600319011261038c57610bf4600435610bca613c9a565b908084525f80516020615db4833981519152602052610bef60016040862001546145e6565b614da9565b5080f35b503461038c57604036600319011261038c57610c12613c84565b604051636d78045960e01b815233600482015230602480830191909152356044820181905291906001600160a01b03907f000000000000000000000000000000000000000000000000000000000000000082169060208160648189865af18015610d4257610d13575b50610c84614614565b610c8d84614819565b610c9a8261065185614def565b84610ca48461444f565b91610cb08684876148c6565b803b156105f657818091602460405180948193633973172b60e11b83528b60048401525af180156106025761070757505090826106fb6020936106f47f762ab2e5aa5c6af0a3286390139644bf1e9190c1bc5410211a44b106f60f861996614417565b602090813d8311610d3b575b610d298183613da9565b81010312610d37575f610c7b565b5f80fd5b503d610d1f565b6040513d88823e3d90fd5b503461038c57602036600319011261038c576020610d84610d6c613c84565b610d7e610d7882614417565b9161444f565b90615577565b604051908152f35b503461038c57602036600319011261038c57610da6613c84565b610dcf7f00000000000000000000000000000000000000000000000000000000000000006145e6565b610dd881614def565b610de18261444f565b610deb8184614832565b6001600160601b03600182015460601c1680610ec257509081610e10610e3d93614d89565b80610e6d575b5050600101805465ffffffffffff60601b19164260601b65ffffffffffff60601b16179055565b6001600160a01b03167fe2148fa8ae559f8dd99097c035b2e7be8c5e4a21c69353cd9222e72b5bf549028280a280f35b610e7685614e3f565b610e7f83614cdc565b80821015610eba5750905b80821015610eb357505b8281610ea1575b50610e16565b610eab92866155a9565b5f8082610e9b565b9050610e94565b905090610e8a565b6040516391eef04b60e01b81526001600160a01b03851660048201526024810191909152604490fd5b503461038c57602036600319011261038c5760206001600160601b036001610f19610f14613c84565b61444f565b015460601c16604051908152f35b503461038c57602036600319011261038c57604060209160043581525f80516020615d3483398151915283522054604051908152f35b503461038c57602036600319011261038c57610f77613c84565b7ff0c57e16840df040f15088dc2f81fe391c3923bec73e23a9662efc9c229c6a009081549060ff8260401c1615916001600160401b0381168015908161112d575b6001149081611123575b15908161111a575b506111085767ffffffffffffffff1981166001178455826110e9575b50610ff0816147f7565b60ff835460401c16156110d7575f80516020615d948339815191528054600160401b8110156110c357611028916001820190556143b5565b81546001600160a01b0360039290921b82901b19169091559061104a81615856565b611097575b5050611059575080f35b68ff00000000000000001981541690557fc7f505b2f371ae2175ee4913f4499e1f2633a7b5936321eed1cdaeb6115181d2602060405160018152a180f35b6110bb918580525f80516020615d3483398151915260205260408620911690615c13565b505f8061104f565b634e487b7160e01b5f52604160045260245ffd5b604051631afcd79f60e31b8152600490fd5b68ffffffffffffffffff1916680100000000000000011783555f610fe6565b60405163f92ee8a960e01b8152600490fd5b9050155f610fca565b303b159150610fc2565b849150610fb8565b503461038c5761114436613cf3565b909161114e614614565b611157836147f7565b61116082614819565b61116981614def565b80546001600160a01b03949092906111828685166146c8565b61118b8261444f565b936111968584614832565b61ffff600185015460901c166111ab86614c27565b9160a01c60018701928354906001600160601b03936111cf8b868560601c166153a9565b9380851161138557506111f0906001600160801b0360048c01541685615b17565b9080821161135757505090818361121395949316821161133c575b501690614893565b8561121c615136565b1695863b15610d37575f8160648295604051968793849263528d369f60e11b8452169b8c60048401528b60248401528160448401525af1928315611331578893611322575b507f000000000000000000000000000000000000000000000000000000000000000016803b1561131e576040516301bc61e960e21b81526001600160a01b039290921660048301526024820186905282908290604490829084905af1801561060257611306575b5050916112f86040927fe2bf4630323f8bf3e2a566e7ea4e39add0b78286e8f2ea7e255ec6fc9c8e7fac94615577565b82519182526020820152a280f35b61131290949294613d43565b61071f5791845f6112c8565b8280fd5b61132b90613d43565b5f611261565b6040513d5f823e3d90fd5b6bffffffffffffffffffffffff19168183161783555f61120b565b6040516314b9d8c360e11b81526001600160a01b038916600482015260248101929092526044820152606490fd5b6040516262710360e81b81526001600160a01b038a166004820152602481018690526044810191909152606490fd5b503461038c578060031936011261038c576040517f00000000000000000000000000000000000000000000000000000000000000006001600160a01b03168152602090f35b503461038c578060031936011261038c5760205f80516020615dd4833981519152544210604051908152f35b503461038c57602036600319011261038c5760043561144261458b565b61144a614614565b428110611479575f1981811461146f5750600181018091116105af576104f390615b8b565b6104f39150615b8b565b6040516339e2ec5360e11b8152600490fd5b503461038c578060031936011261038c5760206040517f00000000000000000000000000000000000000000000000000000000000000008152f35b503461038c576020806003193601126105f65760043582525f80516020615d3483398151915281526040822060405192838383549182815201908193835284832090835b8181106115675750505084611520910385613da9565b60405193838594850191818652518092526040850193925b82811061154757505050500390f35b83516001600160a01b031685528695509381019392810192600101611538565b82548452928601926001928301920161150a565b503461038c578060031936011261038c5760206040515f198152f35b503461038c578060031936011261038c57602090604051908152f35b503461038c57604036600319011261038c576115cd613c84565b7f396707ab7a4153358cdc11df4a0023d5baef5fc9a1b70e39fd5c545b71913734602060243561161c7f00000000000000000000000000000000000000000000000000000000000000006145e6565b61168461162885614def565b6116318661444f565b926001600160601b03600185015460601c16908082115f146116a0576116569161440a565b925b6004810180546001600160801b031660809590951b6001600160801b0319169490941784555b86614748565b5460405160809190911c81526001600160a01b0390931692a280f35b50508692611658565b503461038c57602036600319011261038c576116c3613c84565b6116cb614614565b6116d4816147f7565b60405163d8a06f7360e01b81526020816004817f00000000000000000000000000000000000000000000000000000000000000006001600160a01b03165afa9081156120c75783916122ef575b5060405163faf20d1160e01b81526001600160a01b038381166004830152909160209183916024918391165afa9081156120c75783916122d0575b50156122ae57604051638da5cb5b60e01b81526020816004816001600160a01b0386165afa80156120c7578390612273575b61179891506146c8565b604051631c61872f60e31b81526020816004816001600160a01b0386165afa9081156120c7578391612239575b50306001600160a01b039091160361221757604051631b4dc62560e21b81526020816004816001600160a01b0386165afa9081156120c75783916121f8575b506121d6576040516363e27fa360e11b81526020816004816001600160a01b0386165afa9081156120c757839161219c575b506001600160a01b036118476150e3565b166001600160a01b039091160361217a57604051636f9978c960e01b81526020816004816001600160a01b0386165afa80156120c7578390612147575b6024915060206001600160a01b0361189a6150e3565b60405163170ca9f360e01b81526001600160a01b038716600482015294859290918391165afa91821561213c578492612108575b506801ae361fc1451c0000918281029281840414901517156120f457036120d25760246101006001600160a01b03611904615136565b6040516379b7e67560e11b81526001600160a01b038616600482015293849290918391165afa9182156120c75783928492859386908792889461205d575b5061194c876151a7565b61195585614417565b60016040519161196483613d56565b8054828060a01b038116845260a01c602084015201549061012060ff6001600160601b0384169384604085015265ffffffffffff8160601c16606085015261ffff8160901c16608085015261ffff8160a01c1660a085015261ffff8160b01c1660c085015261ffff8160c01c1660e085015261ffff8160d01c1661010085015260e01c1615159101528061203457506119fc85614e3f565b670de0b6b3a76400008110611ffd5760405190611a1882613d28565b6001600160681b038116825280600c0b602083015265ffffffffffff42166040830152611a436144be565b5060405190611a5182613d72565b60405190611a5e82613d28565b600c0b81528a60208201528a60408201528152604051611a7d81613d28565b8a81528a60208201528a6040820152602082015260405191611a9e83613d8d565b82528960208301528960408301526060820152670de0b6b3a764000060808201528860a08201528860c08201528860e0820152604051638da5cb5b60e01b815260208160048160018060a01b038b165afa908115611ff2578a91611fb4575b505f80516020615d9483398151915254604051639a23d85160e01b81526020816004816001600160a01b038d165afa908115611fa9578c91611f7a575b5060405192611b4884613d56565b6001600160a01b031683526001600160601b038b811660208501528216604084015265ffffffffffff606084015261ffff85811660808501528a811660a085015286811660c085015287811660e085015288166101008401521515610120830152600160401b8110156110c35787611bd5826001611bf394015f80516020615d94833981519152556143b5565b90919060018060a01b038084549260031b9316831b921b1916179055565b6001610120611c0189614417565b835160208501516001600160a01b0360a086811b8790039390931616911b6001600160a01b031916178155926040810151838501805460608085015165ffffffffffff60601b911b166001600160601b0390931671ffffffffffffffffffffffffffffffffffff19909116179190911790556080810151848401805461ffff60901b191660909290921b61ffff60901b1691909117905560a081810151858501805461ffff60a01b19169190921b61ffff60a01b1617905560c0810151848401805461ffff60b01b191660b09290921b61ffff60b01b1691909117905560e0810151848401805461ffff60c01b191660c09290921b61ffff60c01b16919091179055610100810151848401805461ffff60d01b191660d09290921b61ffff60d01b1691909117905501511515818301549060ff60e01b9060e01b169060ff60e01b19161791015560018060a01b03861689525f80516020615d5483398151915260205260408920611dc265ffffffffffff604084516001600160681b038151166001600160681b0319865416178555611da16020820151600c0b86614722565b015183546001600160d01b0316911660d01b6001600160d01b031916178255565b611dfa600182016001600160601b036020850151166001600160601b03198254161781556001600160601b0360408501511690614893565b606082015160028201908b905b60028210611f0e5750505060808281015160a08401516001600160801b039182166001600160801b031991841b821617600485015560c085015160e09095015190921b9091169216919091176005909101556001600160a01b0385163b15611f0a576040516379ba509760e01b815288908181600481836001600160a01b038c165af1801561060257611eec575b5050907f6cafd7bfe010e6f126c13f2b1504349b3e224d5920933e55470526e864da96549560c095949392604051988952602089015260408801526060870152608086015260a085015260018060a01b031692a280f35b611efb90969594939296613d43565b611f0a5790919293875f611e95565b8780fd5b6001602082611f6e65ffffffffffff604085965180516001600160681b03198b5416906001600160681b0316178a55611f4d86820151600c0b8b614722565b015188546001600160d01b0316911660d01b6001600160d01b031916178755565b01930191019091611e07565b611f9c915060203d602011611fa2575b611f948183613da9565b810190614488565b5f611b3a565b503d611f8a565b6040513d8e823e3d90fd5b90506020813d602011611fea575b81611fcf60209383613da9565b81010312611fe657611fe090614474565b5f611afd565b8980fd5b3d9150611fc2565b6040513d8c823e3d90fd5b604051635e9a719d60e01b81526001600160a01b03871660048201526024810191909152670de0b6b3a76400006044820152606490fd5b60405163b7090efd60e01b81526001600160a01b03871660048201526024810191909152604490fd5b9550505050509150610100813d610100116120bf575b816120816101009383613da9565b8101031261131e5761209281614474565b5060408101516060820151608083015160a084015160c085015160e090950151939591949193925f611942565b3d9150612073565b6040513d85823e3d90fd5b60405163874d1f5160e01b81526001600160a01b039091166004820152602490fd5b634e487b7160e01b84526011600452602484fd5b9091506020813d602011612134575b8161212460209383613da9565b81010312610d375751905f6118ce565b3d9150612117565b6040513d86823e3d90fd5b506020813d602011612172575b8161216160209383613da9565b81010312610d375760249051611884565b3d9150612154565b60405163060dbfa560e01b81526001600160a01b039091166004820152602490fd5b90506020813d6020116121ce575b816121b760209383613da9565b8101031261131e576121c890614474565b5f611836565b3d91506121aa565b604051633f0b567f60e11b81526001600160a01b039091166004820152602490fd5b612211915060203d602011611fa257611f948183613da9565b5f611804565b604051635619c71560e11b81526001600160a01b039091166004820152602490fd5b90506020813d60201161226b575b8161225460209383613da9565b8101031261131e5761226590614474565b5f6117c5565b3d9150612247565b506020813d6020116122a6575b8161228d60209383613da9565b8101031261131e576122a161179891614474565b61178e565b3d9150612280565b60405163d75be63360e01b81526001600160a01b039091166004820152602490fd5b6122e9915060203d602011611fa257611f948183613da9565b5f61175c565b90506020813d602011612326575b8161230a60209383613da9565b8101031261131e57602061231f602492614474565b9150611721565b3d91506122fd565b503461038c5761233d36613cf3565b92916123687f00000000000000000000000000000000000000000000000000000000000000006145e6565b612371816147f7565b61237a826147f7565b61238384614819565b61238c826152a8565b6001600160a01b03929083806123a1856152a8565b16911603612574576123b282614417565b946123bc8361444f565b946123c683614417565b916123da856123d48661444f565b996146eb565b6123e484846146eb565b6123ee8786614832565b6123f88885614832565b61240187614866565b908082101561256d57505b61241d61241889614cdc565b614ea2565b9060018901926001600160601b039283855460601c168082105f1461255e575050805b50808210156125565750965b8761245d575b602088604051908152f35b9061246d886124b59493886148c6565b88886124a361ffff600188015460901c166001600160801b036004612499885495888760601c166153a9565b9501541684615b17565b50828116821161133c57501690614893565b836124be615136565b1693843b15610d37576040519163528d369f60e11b83525f83606481838689169a8b60048401528c6024840152600160448401525af1908115611331576020987fb0308a426277dc22fbd9476d84caf873a32e7b2b90d8f0e5186739fa1ff59723958a9561253194612547575b50614748565b604051938685521692a35f808080808080612452565b61255090613d43565b5f61252b565b90509661244c565b6125679161440a565b90612440565b905061240c565b604051635b0bdae160e01b8152600490fd5b503461038c57604036600319011261038c5760406125a2613c9a565b9160043581525f80516020615db4833981519152602052209060018060a01b03165f52602052602060ff60405f2054166040519015158152f35b503461038c57604036600319011261038c5761261560209160043581525f80516020615d348339815191528352604060243591206143f5565b905460405160039290921b1c6001600160a01b03168152f35b503461038c578060031936011261038c5760206001600160681b036126727f0000000000000000000000000000000000000000000000000000000000000000615539565b16604051908152f35b503461038c578060031936011261038c576040517f00000000000000000000000000000000000000000000000000000000000000006001600160a01b03168152602090f35b50606036600319011261038c576126d5613c84565b6001600160401b036024358181116127db576126f5903690600401613cc6565b6126fd613cb0565b936127277f00000000000000000000000000000000000000000000000000000000000000006145e6565b61274d61273382614def565b61273c8361444f565b906127478285614832565b836147c2565b156127c95760405160208101948511818610176110c3578561279a917fb72daec26efc999a5ee81bf5e1e12643d16c64b9a097f9f54ced277240924df49660405288815284863486614c33565b60018060a01b0390816127ba604051958695604087526040870191614395565b9616602084015216930390a280f35b604051631345a33960e01b8152600490fd5b8380fd5b503461038c578060031936011261038c575f80516020615d94833981519152545f1981019190821161281657602082604051908152f35b634e487b7160e01b81526011600452602490fd5b503461038c57608036600319011261038c5780612845613c84565b61284d613c9a565b90612856613cb0565b906001600160a01b039061286d8261065183614def565b1691823b156128d4576040516301372c0d60e31b81526001600160a01b039182166004820152911660248201526064803560448301529091839183919082908490829081015b03925af18015610602576128c45750f35b6128cd90613d43565b61038c5780f35b505050fd5b503461038c57604036600319011261038c576020610d846128f8613c84565b602435906153b6565b503461038c57602036600319011261038c57602061261560043561292481614819565b6143b5565b503461038c57602036600319011261038c576020610d84612948613c84565b612954610d7882614417565b9061530f565b503461038c578060031936011261038c5760206040516202a3008152f35b503461038c5760e036600319011261038c57612992613c84565b6129ab6001600160a01b036129a5615136565b166146c8565b6129b66024356151a7565b6129bf81614def565b6129c88261444f565b6129d28184614832565b6001600160601b0360016129e583614cdc565b92015460601c16906129fa6044358383615281565b612b60575050806001612b0492015461ffff60405191818160b01c168352818160c01c16602084015260d01c166040820152608435606082015260a435608082015260c43560a08201527fb40a5079978a7d2c8f3b6ce12f3aa3542d46a8ee0dd66076f5cbcdf66a43812660c060018060a01b03861692a280546001600160a01b031660243560a090811b6001600160a01b0319169190911782556001909101805460a43560c01b61ffff60c01b1660843560b01b61ffff60b01b1660643590941b61ffff60a01b1660443560901b61ffff60901b1669ffffffffffffffffffff60901b199093169290921791909117929092179190911760c43560d01b61ffff60d01b16179055565b6001600160a01b03612b15826152a8565b16907fc8ebd2ec00a418017fcc64a0fd1837fcb1871060c1755245c92a00db20881c3960606040519260243584526044356020850152606435604085015260018060a01b031692a380f35b6040516313ceef8d60e31b81526001600160a01b039094166004850152602484015260448084019190915235606483015250608490fd5b503461038c578060031936011261038c5760205f80516020615dd483398151915254604051908152f35b503461038c57602036600319011261038c57612bdb613c84565b612be3614614565b612bec81614def565b80546001600160a01b03929190612c049084166146c8565b612c0d8261444f565b612c178184614832565b6001600160601b03600182015460601c1680610ec25750612c3781614d89565b9081612c8c575b5050600101805465ffffffffffff60601b19164260601b65ffffffffffff60601b161790555b167fe2148fa8ae559f8dd99097c035b2e7be8c5e4a21c69353cd9222e72b5bf549028280a280f35b81612c9685614e3f565b612c9f83614cdc565b80821015612cef57505b10612cc5578291612c6493612cbe92866155a9565b905f612c3e565b50604051635e02cc2560e11b81526001600160a01b03841660048201526024810191909152604490fd5b9050612ca9565b503461038c57604036600319011261038c5780612d11613c84565b6024356001600160401b038111612d7c57612d30903690600401613cc6565b90916001600160a01b0390612d488261065183614def565b1691823b156128d4576128b39284928360405180968195829463083a0aa960e11b8452602060048501526024840191614395565b5050fd5b503461038c5780600319604036820112612f0657612d9c613c84565b906024356001600160401b039182821161071f5760c08236039182011261071f576001600160a01b0391612dd38361065187614def565b82612ddc6150e3565b1691823b15612f0257604051956338b76e8960e01b875260406004880152826004013591602219019182811215612efe57830192602460048501359401878511611fe6578460051b908136038113612efa5760c060448b01526101048a01869052610124956001600160fb1b0310612efa578190868b0137880192602482013590811215611fe65781019560246004880135970192888811612efa578736038413612efa578a98612edd60a4612ea78d9b978c9a988b998f9b60e08c82030160648d01520191614395565b956044810135608489015283612ebf60648301614357565b168289015283612ed160848301614357565b1660c489015201614357565b1660e485015216602483015203925af18015610602576128c45750f35b8a80fd5b8880fd5b8680fd5b50fd5b503461038c57602036600319011261038c57602061043e612f2b610f14613c84565b61504a565b503461038c578060031936011261038c5760206040517f00000000000000000000000000000000000000000000000000000000000000008152f35b503461038c57602036600319011261038c57612f85613c84565b612f8e81614def565b80546001600160a01b0391600191612fa79084166146c8565b019182549260ff8460e01c16612ffd576104f393600160e01b9060ff60e01b191617905516807fa6be802730cbe05b306ffd49eff61ff0eac8a59aff4a9507d9412914dde00153602060405160018152a2615004565b604051635f295ef960e01b8152600490fd5b503461038c57602036600319011261038c5760209061302c613c84565b6130506130388261444f565b61304183614417565b61304a82614d89565b93615a4d565b9150808210156130635750604051908152f35b9050610d84565b503461038c57604036600319011261038c576104f3613087613c84565b60243590613093614614565b61309c82614819565b6130b06001600160a01b0361065183614def565b6130b98161444f565b906130c48282614832565b614efa565b503461038c57602036600319011261038c576020610d846130e8613c84565b61436b565b503461038c578060031936011261038c5760206040517f8d0e4ae4847b49935b55c99f9c3ce025c87e7c4604c35b7ae56929bd32fa5a788152f35b503461038c57602036600319011261038c57613142613c84565b9061314c82614def565b6131558361444f565b906131608285614832565b61316984614e3f565b61317283614cdc565b808210156131fb5750905b81156131da576131908361319692614d66565b91614ea2565b808210156131d25750905b81156131b1576104f39293614efa565b604051630cf6efe760e21b81526001600160a01b0385166004820152602490fd5b9050906131a1565b6040516361af744d60e01b81526001600160a01b0386166004820152602490fd5b90509061317d565b503461038c57604036600319011261038c5761321d613c9a565b336001600160a01b0382160361323957610bf490600435614da9565b60405163334bd91960e11b8152600490fd5b503461038c57602036600319011261038c576040613267613c84565b61328c61328661327f61327984614417565b9361444f565b8093614d66565b91614d89565b82519182526020820152f35b503461038c57602036600319011261038c576020610d846132ba610f14613c84565b614cdc565b503461038c57604036600319011261038c576004356132dc613c9a565b8183525f80516020615db483398151915260205261330060016040852001546145e6565b61330a81836158ed565b613312578280f35b5f9182525f80516020615d34833981519152602052604090912061333f916001600160a01b031690615c13565b505f808280f35b50608036600319011261038c5761335b613c84565b906001600160401b0360243581811161131e5761337c903690600401613cc6565b6044359183831161071f573660238401121561071f5782600401359584871161351f576024840160248860051b8096010190368211611f0a57606435966001600160a01b038089168903610d37576133df6133d686614def565b918254166146c8565b6133e88561444f565b5f19928b5b8d81106134bd5750505f19831061344a575b5050506020986134156020604051980188613da9565b8652602086015b828210613433575050506104f39596503490614c33565b89809161343f84614357565b81520191019061341c565b61345e916134588288614832565b866147c2565b8015159182613488575b5050613476575f80806133ff565b604051636d8a432360e11b8152600490fd5b909150633b9aca00908181029181830414901517156134a957105f80613468565b634e487b7160e01b8a52601160045260248afd5b8d826134d26134cd84848b61430c565b614330565b16151580613507575b6134e9575b506001016133ed565b8195506134fd6134cd60019385938a61430c565b169490508d6134e0565b5085836135186134cd85858c61430c565b16106134db565b8580fd5b503461038c57602036600319011261038c576020610d84613545610f14613c84565b614c27565b503461038c578060031936011261038c5760206040517fa79a6aede309e0d48bf2ef0f71355c06ad317956d4c0da2deb0dc47cc34f826c8152f35b503461038c57602036600319011261038c576135f1610140916135a6613c84565b906101206040516135b681613d56565b8281528260208201528260408201528260608201528260808201528260a08201528260c08201528260e0820152826101008201520152614417565b61012060405161360081613d56565b60ff6001845494818060a01b03861684528560a01c602085015201546001600160601b038116604084015265ffffffffffff8160601c16606084015261ffff8160901c16608084015261ffff8160a01c1660a084015261ffff8160b01c1660c084015261ffff8160c01c1660e084015261ffff8160d01c1661010084015260e01c161515828201526040519260018060a01b031683526001600160601b0360208201511660208401526001600160601b03604082015116604084015265ffffffffffff606082015116606084015261ffff608082015116608084015261ffff60a08201511660a084015261ffff60c08201511660c084015261ffff60e08201511660e084015261ffff6101008201511661010084015201511515610120820152f35b503461038c57602036600319011261038c576001604060209260043581525f80516020615db48339815191528452200154604051908152f35b506020366003190112610d3757613770613c84565b613778614614565b613781816147f7565b61378a81614417565b9061379581836146eb565b90546001600160a01b0391906137ac9083166146c8565b6137c36137b88261444f565b34600c0b9083614a20565b16803b15610d37575f600491604051928380926316c1a85160e31b825234905af18015611331576137f2575080f35b61001a9150613d43565b34610d37576040366003190112610d3757613815613c84565b6024356138417f00000000000000000000000000000000000000000000000000000000000000006145e6565b61384a826147f7565b61385381614819565b61385c82614417565b906138708361386a8161444f565b936146eb565b61387a8284614832565b61388382614866565b90808210156139fa5750905b816138a0575b602082604051908152f35b816138ab91846148c6565b6001600160681b03918282116139da576138c36144a0565b506138ed7f00000000000000000000000000000000000000000000000000000000000000006157e8565b604051936138fa85613d28565b5f80516020615d748339815191529182548281168088526020880191848160681c16835260d01c65ffffffffffff60408a0194828652168091036139cf575b50838716018381116139bb576020978461395692168091526142e3565b519183549165ffffffffffff60d01b905160d01b16926001600160681b0360681b9060681b169116171790557fbbffe7e2912d185623eb32d8b1b371643227b9346907ee3f914398fd29180d4c836040519284845260018060a01b031692a282613895565b634e487b7160e01b5f52601160045260245ffd5b818352835288613939565b6040516306dfcc6560e41b81526068600482015260248101839052604490fd5b90509061388f565b34610d37576020366003190112610d37576020610d84613a20613c84565b6142aa565b34610d37576020366003190112610d37576020613a7b613a43613c84565b613a4f610d7882614417565b9061ffff60016001600160601b0381613a6786614cdc565b95015460601c1692015460a01c1691615281565b15604051908152f35b34610d37575f366003190112610d375760206040517f00000000000000000000000000000000000000000000000000000000000000008152f35b34610d3757610100366003190112610d375761001a613adb613c84565b613ae3614614565b60e4359060c4359060a4359060843590606435906044359060243590613dca565b34610d37575f366003190112610d3757335f9081527f9b37064ab82713689e742bcb1777ed5bb5c4404524a39c294bf934d7bafe02df60205260409020547fa79a6aede309e0d48bf2ef0f71355c06ad317956d4c0da2deb0dc47cc34f826c9060ff1615613bbe575f80516020615dd48339815191528054421015613bac574290557f62451d457bc659158be6e6247f56ec1df424a5c7597f71c20c2bc44e0965c8f95f80a1005b60405163b047186b60e01b8152600490fd5b6044906040519063e2517d3f60e01b82523360048301526024820152fd5b34610d37576020366003190112610d375760043563ffffffff60e01b8116809103610d3757602090635a05180f60e01b8114908115613c21575b506040519015158152f35b637965db0b60e01b811491508115613c3b575b5082613c16565b6301ffc9a760e01b14905082613c34565b34610d37575f366003190112610d37576020907f00000000000000000000000000000000000000000000000000000000000000008152f35b600435906001600160a01b0382168203610d3757565b602435906001600160a01b0382168203610d3757565b604435906001600160a01b0382168203610d3757565b9181601f84011215610d37578235916001600160401b038311610d375760208381860195010111610d3757565b6060906003190112610d37576001600160a01b03906004358281168103610d3757916024359081168103610d37579060443590565b606081019081106001600160401b038211176110c357604052565b6001600160401b0381116110c357604052565b61014081019081106001600160401b038211176110c357604052565b604081019081106001600160401b038211176110c357604052565b61010081019081106001600160401b038211176110c357604052565b90601f801991011681019081106001600160401b038211176110c357604052565b93969092949195613dd961463d565b5f966001600160a01b039491613df09086166146c8565b613df987614417565b98613e04888b6146eb565b613e0d8861444f565b98600190818c019182549265ffffffffffff938b858260601c161115613f91575b505092613f2a8e93613f579f8c8f7f5b654a0520c4233754982cb2d5863d2958cd674ae9269bc3c8ee8469350bba819d9b99968d9b9960e09e613f0a956001600160801b039160058601836001600160801b0319931683825416179055670de0b6b3a7640000908082115f14613f895750915b600486019216908254161790558201908154906001600160601b03908d82841614613f59575b505050506001600160681b0386169387600c0b9216938460408051613eeb81613d28565b83815285602082015201526001600160681b0319825416178155614722565b8d546001600160d01b031660d09190911b6001600160d01b031916178d55565b604051998a5260208a015260408901526060880152608087015260a086015260c0850152841692a2614748565b565b50606082901c81168c811115613f82575b16906001600160601b0319161790555f808080613ec7565b508b613f6a565b905091613ea1565b899795929a9b9896939e9f94919c9d991580614293575b156141f857505050505050505050508180851696541693863b15610d3757604093845163f2fde38b60e01b8152600496878201525f81602481838d5af180156141ee576141d4575b506001600160601b039054165f80516020615d94833981519152908154905f19918281019081116141c15790611bd58761402c61405a946143b5565b90549060031b1c16918761403f84614417565b0180546bffffffffffffffffffffffff1916821790556143b5565b815480156141ae578894938593859361408a930190614078826143b5565b8a82549160031b1b1916905555614417565b82815501558682525f80516020615d5483398151915260205283822090828255828183015585820190600283015b8281106141a157505082905560050155806140d161463d565b16803b1561071f578480916024855180948193631cd1d24b60e11b83528b8a8401525af1801561419757908591614183575b505061410d615136565b1691823b156127db578460248592838551968794859363627b5ba160e01b85528401525af190811561417a5750614166575b50807f04d84edd5125ca14d6c5ab319ae4ba991cd2fc27c13a6b5b5c604eeb354607b791a2565b6141708291613d43565b61038c575f61413f565b513d84823e3d90fd5b61418c90613d43565b6127db57835f614103565b83513d87823e3d90fd5b5f815588945081016140b8565b634e487b7160e01b895260318852602489fd5b634e487b7160e01b8a526011895260248afd5b6141df919750613d43565b5f956001600160601b03613ff0565b86513d5f823e3d90fd5b90613f579f9e898b9f9e9b8f928f9c9f9e7f5b654a0520c4233754982cb2d5863d2958cd674ae9269bc3c8ee8469350bba819f60e09f60208f92613f0a987fcd8385b1ed4fe8319c1c853529df2480963fa377ed4c92e13a8257abb3d638d293613f2a9c65ffffffffffff60601b9065ffffffffffff60601b19161790556040519485521692a296999b9d5096999b9d50505050939e613e2e565b506001600160601b038b8b015460601c1615613fa8565b6142b381614417565b906001600160601b03600183015416156142dd576142da916142d48261444f565b916147c2565b90565b50505f90565b6001600160681b035f80516020615d7483398151915291166001600160681b0319825416179055565b919081101561431c5760051b0190565b634e487b7160e01b5f52603260045260245ffd5b356001600160401b0381168103610d375790565b818102929181159184041417156139bb57565b35906001600160401b0382168203610d3757565b61437481614417565b9061437e82614fcf565b6142dd576142da9161438f8261444f565b91614ff6565b908060209392818452848401375f828201840152601f01601f1916010190565b5f80516020615d94833981519152805482101561431c575f527f9febd96e665d8e0994316f72dd4e08de01e139da0745fc066de0c82eb81f795601905f90565b805482101561431c575f5260205f2001905f90565b919082039182116139bb57565b6001600160a01b03165f9081527f9eb73ffa4c77d08d5d1746cf5a5e50a47018b610ea5d728ea9bd9e399b76e2016020526040902090565b6001600160a01b03165f9081525f80516020615d548339815191526020526040902090565b51906001600160a01b0382168203610d3757565b90816020910312610d3757518015158103610d375790565b604051906144ad82613d28565b5f6040838281528260208201520152565b604090604051916144ce83613d72565b825f5b8281106144dd57505050565b6020906144e86144a0565b81840152016144d1565b906040516144ff81613d28565b60408193546001600160681b03811683528060681c600c0b602084015260d01c910152565b9060405161453181613d28565b604081935480600c0b83528060681c600c0b602084015260d01c910152565b906040519161455e83613d72565b5f835b6002821061456e57505050565b60016020819261457d86614524565b815201930191019091614561565b335f9081527fbcb1b11de498c6b52a7a7d947da69c0b177cbcc5f8e7e65a1354e8972904915c60205260409020547f8d0e4ae4847b49935b55c99f9c3ce025c87e7c4604c35b7ae56929bd32fa5a789060ff1615613bbe5750565b805f525f80516020615db483398151915260205260405f20335f5260205260ff60405f20541615613bbe5750565b5f80516020615dd483398151915254421061462b57565b604051630286f07360e31b8152600490fd5b604051630b8e411760e21b81526001600160a01b03906020816004817f000000000000000000000000000000000000000000000000000000000000000086165afa908115611331575f9161469057501690565b90506020813d6020116146c0575b816146ab60209383613da9565b81010312610d37576146bc90614474565b1690565b3d915061469e565b6001600160a01b031633036146d957565b60405163ea8e4eb560e01b8152600490fd5b600101546001600160601b0316156147005750565b604051636787bb7d60e01b81526001600160a01b039091166004820152602490fd5b9081549060681b6001600160681b0360681b16906001600160681b0360681b1916179055565b6001600160a01b0316919061475d908261579e565b1561476c5750613f5790615004565b6001015460e01c60ff161561477f575b50565b61478881615aca565b61478f5750565b803b15610d37575f8091600460405180948193639563110560e01b83525af18015611331571561477c57613f5790613d43565b916147cc9161579e565b905f198083146147f157506147e090614e3f565b808211156142dd576142da9161440a565b91505090565b6001600160a01b03161561480757565b60405163d92e233d60e01b8152600490fd5b1561482057565b60405163b7852ebb60e01b8152600490fd5b9061483c9061504a565b156148445750565b60405163b7aad5af60e01b81526001600160a01b039091166004820152602490fd5b6148836124186001600160601b03600184015460601c1692614cdc565b8181116142dd576142da9161440a565b80546bffffffffffffffffffffffff60601b191660609290921b6bffffffffffffffffffffffff60601b16919091179055565b90600181016001600160601b0380825460601c168581106149f757916148fa916148f3876004969561440a565b1690614893565b01805460801c831515806149ee575b614973575b506001600160a01b039050614921615136565b1691823b15610d375760405163d925079760e01b81526001600160a01b0390921660048301526024820152905f908290818381604481015b03925af180156113315761496a5750565b613f5790613d43565b6149896149a9918581105f146149e7578061440a565b82546001600160801b0316608082901b6001600160801b03191617909255565b6040519081526001600160a01b038216907f396707ab7a4153358cdc11df4a0023d5baef5fc9a1b70e39fd5c545b7191373490602090a25f8061490e565b859061440a565b50801515614909565b6040516325ea730f60e21b81526001600160a01b03861660048201526024810191909152604490fd5b91906002809101614a2f6144be565b50614a597f00000000000000000000000000000000000000000000000000000000000000006157e8565b9260409160405194614a6a86613d72565b815f875b878210614c0a57505050614a8186615bea565b908165ffffffffffff9283806040614a99858d615845565b510151169316809303614baa575b50614ab3915087615845565b518051600c94600c0b90600c0b016001600160671b031981126001600160671b038213176139bb57600c0b90525f93865b868610614b4457505050505050506020614b2882614b227fb7cba63c4ae0a52f628ea1fcbc19b99b22fdcf9d3d4e0a707441ffe7649060ec94615bea565b90615845565b5151604051600c9190910b81526001600160a01b0390931692a2565b6001818192519081516001600160681b0319885416906001600160681b0316178755614b9e8686602094614b7d868201518d0b8c614722565b015189546001600160d01b0316911660d01b6001600160d01b031916178855565b01940195019492614ae4565b9060010391600183116139bb576040614c01848b6020614bf883614bed614ab39a99614bd68187615845565b5151600c0b614be58488615845565b515285615845565b5151600c0b93615845565b5101528b615845565b5101525f614aa7565b600160208192614c1986614524565b815201930191019091614a6e565b6147e061328682614cdc565b92946001600160a01b039384169491939192853b15610d375795939190614c776040969496519788966313e40efb60e01b8852606060048901526064880191614395565b85810360031901602487015286518082526020918201978201915f5b828110614cbc57505050505f95859392849216604483015203925af180156113315761496a5750565b83516001600160401b03168a52988101988a985092810192600101614c93565b614cf16002614cea836144f2565b9201614550565b90614d0a6001600160681b0382511692614b2281615bea565b5151600c0b915f83820193841291129080158216911516176139bb5760200151600c0b905f82820392128183128116918313901516176139bb575f8112614d4e5790565b60249060405190635467221960e11b82526004820152fd5b614d728260049261530f565b91015460801c80821115614d84575090565b905090565b600501546001600160801b0390818160801c9116038181116139bb571690565b614db38282615977565b9182614dbe57505090565b5f9182525f80516020615d348339815191526020526040909120614deb916001600160a01b031690615c76565b5090565b614df8816147f7565b614e0181614417565b90614e0c81836146eb565b614e1582614fcf565b614e1d575090565b60405163cc89767160e01b81526001600160a01b039091166004820152602490fd5b60405163ab2f0e5160e01b815290602090829060049082906001600160a01b03165afa908115611331575f91614e73575090565b90506020813d602011614e9a575b81614e8e60209383613da9565b81010312610d37575190565b3d9150614e81565b604051631920845160e01b815260048101919091526020816024817f00000000000000000000000000000000000000000000000000000000000000006001600160a01b03165afa908115611331575f91614e73575090565b614f03836159f6565b90614f0f8484836148c6565b614f1b823085846156f7565b6001600160a01b03907f00000000000000000000000000000000000000000000000000000000000000008216803b15610d37575f8491602460405180978193630f91b3c760e31b83528b60048401525af18015611331577f0e1be26d90753559ba15c00379d92dc13e03aad057c5ce2bad52b1f4f6d194d395604095614fb192614fc0575b50614faa84614417565b9084614748565b835195865260208601521692a2565b614fc990613d43565b5f614fa0565b6001015460601c65ffffffffffff908116801515919082614fef57505090565b1415919050565b826147e09261328692615a4d565b61500d81615aca565b156150155750565b6001600160a01b0316803b15610d37575f8091600460405180948193632f77cc0360e21b83525af180156113315761496a5750565b60049060206001600160a01b0361505f61463d565b166040519384809263c6290e3560e01b82525afa918215611331575f926150af575b505460d01c65ffffffffffff82161115908161509b575090565b6202a30091506150ab904261440a565b1090565b9091506020813d6020116150db575b816150cb60209383613da9565b81010312610d375751905f615081565b3d91506150be565b604051638d4e615360e01b81526001600160a01b03906020816004817f000000000000000000000000000000000000000000000000000000000000000086165afa908115611331575f9161469057501690565b604051631734070560e31b81526001600160a01b03906020816004817f000000000000000000000000000000000000000000000000000000000000000086165afa908115611331575f9161469057501690565b8115615193570490565b634e487b7160e01b5f52601260045260245ffd5b604051636a80179760e11b81526020816004817f00000000000000000000000000000000000000000000000000000000000000006001600160a01b03165afa908115611331575f9161524d575b50615223612710917f000000000000000000000000000000000000000000000000000000000000000090614344565b0480821161522f575050565b6044925060405191636d06d20560e11b835260048301526024820152fd5b90506020813d602011615279575b8161526860209383613da9565b81010312610d3757516152236151f4565b3d915061525b565b919061528c906159f6565b916127109182038281116139bb576152a391614344565b041090565b60405162478b6160e31b815290602090829060049082906001600160a01b03165afa908115611331575f916152db575090565b90506020813d602011615307575b816152f660209383613da9565b81010312610d37576142da90614474565b3d91506152e9565b9060016001600160601b038161532484614cdc565b93015460601c1692015461ffff90615342828260a01c168585615281565b156153a15760901c1690612710828103918183116139bb5761536390614ea2565b9384811015615397578181029181830414901517156139bb5761538c615392926142da95614344565b9061440a565b615189565b50505050505f1990565b505050505f90565b919082018092116139bb57565b6001600160a01b038082165f8181525f80516020615d5483398151915260205260409020919390926153e790614417565b906153f183614c27565b905f81126155015761540d6004916001600160801b03936153a9565b935b01541690818311156154f85761ffff600161543092015460901c1683614344565b806154cc5750612418602092615452925f905b808211156154c457509061440a565b9261545b615136565b1691602460405180948193630131592760e61b835260048301525afa908115611331575f91615492575b5080821015614d84575090565b90506020813d6020116154bc575b816154ad60209383613da9565b81010312610d3757515f615485565b3d91506154a0565b90509061440a565b5f1981019081116139bb576127109004600181018091116139bb57602092615452926124189290615443565b50505050505f90565b600160ff1b81146139bb575f0380821061552f576155296004916001600160801b039361440a565b9361540f565b5050505050505f90565b65ffffffffffff6155516001600160681b03926157e8565b5f80516020615d7483398151915254911660d082901c14615570571690565b60681c1690565b906142da9161ffff60016001600160801b0360046001600160601b0383870154169501541692015460901c1691615b17565b600582016155bb85825460801c6153a9565b81546001600160801b03908116608083901b6001600160801b03191617835590916040516361d027b360e01b81526001600160a01b0395906020816004817f00000000000000000000000000000000000000000000000000000000000000008b165afa80156113315789915f9161567e575b50978261167e615667937f59ee5e31ebc8f1179ac15c92dbcf82cb6affc1a8ae9f90cf6c56dd580e521acb9b8a9998979660609c9b6156f7565b5416604051968752602087015260408601521692a2565b915050602096959493929196813d6020116156ef575b816156a160209383613da9565b81010312610d37577f59ee5e31ebc8f1179ac15c92dbcf82cb6affc1a8ae9f90cf6c56dd580e521acb9760609761167e8b6156de61566795614474565b939b5093505092939495969761562d565b3d9150615694565b9061570181614cdc565b80851161576e575083600c0b906001600160671b031982146139bb5761572a915f039083614a20565b6001600160a01b031691823b15610d375760405163f3fef3a360e01b81526001600160a01b0390921660048301526024820152905f90829081838160448101614959565b6040516318c6cff360e31b81526001600160a01b0384166004820152602481019190915260448101859052606490fd5b816157a891614d66565b5f198181146147f157506157be6142da92614d89565b670de0b6b3a76400008110156157de57506157d95f916159f6565b6153a9565b6157d990916159f6565b604080516372f79b1360e01b815290918290829060049082906001600160a01b03165afa91821561583c575f9261581e57505090565b90809250813d8311615835575b614e8e8183613da9565b503d61582b565b513d5f823e3d90fd5b90600281101561431c5760051b0190565b6001600160a01b03165f8181527fb7db2dd08fcb62d0c9e08c51941cae53c267786a0b75803fb7960902fc8ef97d60205260409020545f80516020615db48339815191529060ff166142dd575f805260205260405f20815f5260205260405f20600160ff1982541617905533905f7f2f8788117e7eff1d82e926ec794901d17c78024a50270940304540a733656f0d8180a4600190565b90815f525f80516020615db48339815191528060205260405f209160018060a01b031691825f5260205260ff60405f205416155f1461597057825f5260205260405f20815f5260205260405f20600160ff1982541617905533917f2f8788117e7eff1d82e926ec794901d17c78024a50270940304540a733656f0d5f80a4600190565b5050505f90565b90815f525f80516020615db48339815191528060205260405f209160018060a01b031691825f5260205260ff60405f2054165f1461597057825f5260205260405f20815f5260205260405f2060ff19815416905533917ff6391f5c32d9c69d2a47ea670b442974b53935d1edc7fd64eb21e047a839171b5f80a4600190565b6040516240cd2760e21b815260048101919091526020816024817f00000000000000000000000000000000000000000000000000000000000000006001600160a01b03165afa908115611331575f91614e73575090565b615a5690614e3f565b615a5f83614cdc565b80821015615ac357505b615a79600484015460801c6159f6565b908082116153a157615a9e91615a8e9161440a565b92615a9881614cdc565b92615577565b80821115615abb57615aaf9161440a565b80821015614d84575090565b50505f615aaf565b9050615a69565b604051639a23d85160e01b815290602090829060049082906001600160a01b03165afa908115611331575f91615afe575090565b6142da915060203d602011611fa257611f948183613da9565b615b23909291926159f6565b90615b2e8183614344565b906127109081039081116139bb5781615b615750506142da915f905b80821115615b595750906153a9565b9050906153a9565b5f1982019182116139bb57615b7591615189565b91600183018093116139bb576142da9290615b4a565b60207f32fb7c9891bc4f963c7de9f1186d2a7755c7d6e9f4604dabe1d8bb3027c2f49e91805f80516020615dd4833981519152555f19908181145f14615bd55750604051908152a1565b615be19150429061440a565b604051908152a1565b65ffffffffffff604060208282855101511693015101511611155f14615c0e575f90565b600190565b6001810190825f528160205260405f2054155f14615970578054600160401b8110156110c357615c63615c4d8260018794018555846143f5565b819391549060031b91821b915f19901b19161790565b905554915f5260205260405f2055600190565b906001820191815f528260205260405f2054908115155f146153a1575f19918083018181116139bb578254908482019182116139bb57818103615cfe575b50505080548015615cea57820191615ccc83836143f5565b909182549160031b1b19169055555f526020525f6040812055600190565b634e487b7160e01b5f52603160045260245ffd5b615d1e615d0e615c4d93866143f5565b90549060031b1c928392866143f5565b90555f528460205260405f20555f8080615cb456fec1f6fe24621ce81ec5827caf0253cadb74709b061630e6b55e823717059320009eb73ffa4c77d08d5d1746cf5a5e50a47018b610ea5d728ea9bd9e399b76e2009eb73ffa4c77d08d5d1746cf5a5e50a47018b610ea5d728ea9bd9e399b76e2039eb73ffa4c77d08d5d1746cf5a5e50a47018b610ea5d728ea9bd9e399b76e20202dd7bc7dec4dceedda775e58dd541e08a116c6c53815c0bd028192f7b626800e8b012900cb200ee5dfc3b895a32791b67d12891b09f117814f167a237783a02a264697066735822122096ec53e31597043803d0ce2c8c642658ff4ce4e4921d65578d015490ebe2a4c464736f6c63430008190033","linkReferences":{}},"methodIdentifiers":{"BAD_DEBT_MASTER_ROLE()":"014d6eb1","CONNECT_DEPOSIT()":"e91c46c3","CONSENSUS_CONTRACT()":"b7fe7a90","DEFAULT_ADMIN_ROLE()":"a217fddf","LIDO()":"8b21f170","LIDO_LOCATOR()":"dbba4b48","MAX_RELATIVE_SHARE_LIMIT_BP()":"a54e5799","PAUSE_INFINITELY()":"a302ee38","PAUSE_ROLE()":"389ed267","REDEMPTION_MASTER_ROLE()":"42c3aa2d","REPORT_FRESHNESS_DELTA()":"625c14f2","RESUME_ROLE()":"2de03aa1","VALIDATOR_EXIT_ROLE()":"e2af7c48","VAULT_MASTER_ROLE()":"1650aba5","applyVaultReport(address,uint256,uint256,int256,uint256,uint256,uint256,uint256)":"146a9bec","badDebtToInternalize()":"9001c666","burnShares(address,uint256)":"ee7a7c04","collectERC20FromVault(address,address,address,uint256)":"73fbd931","connectVault(address)":"9ae15ac8","decreaseInternalizedBadDebt(uint256)":"f0f0dadc","disconnect(address)":"cbf24339","forceRebalance(address)":"37749ad4","forceValidatorExit(address,bytes,address)":"8a3f9a8e","fund(address)":"23024408","getResumeSinceTimestamp()":"589ff76c","getRoleAdmin(bytes32)":"248a9ca3","getRoleMember(bytes32,uint256)":"9010d07c","getRoleMemberCount(bytes32)":"ca15c873","getRoleMembers(bytes32)":"a3246ad3","grantRole(bytes32,address)":"2f2ff15d","hasRole(bytes32,address)":"91d14854","healthShortfallShares(address)":"637e7473","initialize(address)":"c4d66de8","internalizeBadDebt(address,uint256)":"1ec63b32","isPaused()":"b187bd26","isPendingDisconnect(address)":"f9c8d46b","isReportFresh(address)":"4a2264ef","isVaultConnected(address)":"ffc976c0","isVaultHealthy(address)":"176aa847","latestReport(address)":"f9c821a7","liabilityShares(address)":"ca739224","locked(address)":"cbf9fe5f","maxLockableValue(address)":"2de0e075","mintShares(address,address,uint256)":"bf8ba596","obligations(address)":"3451c923","obligationsShortfallValue(address)":"1eb40a5e","pauseBeaconChainDeposits(address)":"3ffa490d","pauseFor(uint256)":"f3f449c7","pauseUntil(uint256)":"abe9cfc8","proveUnknownValidatorToPDG(address,(bytes32[],bytes,uint256,uint64,uint64,uint64))":"54013f40","rebalance(address,uint256)":"3da9b9d0","renounceRole(bytes32,address)":"36568abe","requestValidatorExit(address,bytes)":"56a3d840","resume()":"046f7da2","resumeBeaconChainDeposits(address)":"ee762f2b","revokeRole(bytes32,address)":"d547741f","setLiabilitySharesTarget(address,uint256)":"9c157e03","settleLidoFees(address)":"d779f380","settleableLidoFeesValue(address)":"3fd4d413","socializeBadDebt(address,address,uint256)":"96c4d514","supportsInterface(bytes4)":"01ffc9a7","totalMintingCapacityShares(address,int256)":"6c82873e","totalValue(address)":"30b0680b","transferAndBurnShares(address,uint256)":"cd76658d","transferVaultOwnership(address,address)":"fdc10daf","triggerValidatorWithdrawals(address,bytes,uint64[],address)":"2f00a7e1","updateConnection(address,uint256,uint256,uint256,uint256,uint256,uint256)":"5926e3b9","vaultByIndex(uint256)":"6bdce1b6","vaultConnection(address)":"280be2f5","vaultRecord(address)":"e8ddced0","vaultsCount()":"88977738","voluntaryDisconnect(address)":"5888454e","withdraw(address,address,uint256)":"d9caed12","withdrawableValue(address)":"3a4952a3"},"id":46}