{"abi":[{"type":"constructor","inputs":[{"name":"_locator","type":"address","internalType":"contract ILidoLocator"}],"stateMutability":"nonpayable"},{"type":"function","name":"DEFAULT_ADMIN_ROLE","inputs":[],"outputs":[{"name":"","type":"bytes32","internalType":"bytes32"}],"stateMutability":"view"},{"type":"function","name":"DEFAULT_TIER_ID","inputs":[],"outputs":[{"name":"","type":"uint256","internalType":"uint256"}],"stateMutability":"view"},{"type":"function","name":"DEFAULT_TIER_OPERATOR","inputs":[],"outputs":[{"name":"","type":"address","internalType":"address"}],"stateMutability":"view"},{"type":"function","name":"LIDO_LOCATOR","inputs":[],"outputs":[{"name":"","type":"address","internalType":"contract ILidoLocator"}],"stateMutability":"view"},{"type":"function","name":"MAX_CONFIRM_EXPIRY","inputs":[],"outputs":[{"name":"","type":"uint256","internalType":"uint256"}],"stateMutability":"view"},{"type":"function","name":"MIN_CONFIRM_EXPIRY","inputs":[],"outputs":[{"name":"","type":"uint256","internalType":"uint256"}],"stateMutability":"view"},{"type":"function","name":"REGISTRY_ROLE","inputs":[],"outputs":[{"name":"","type":"bytes32","internalType":"bytes32"}],"stateMutability":"view"},{"type":"function","name":"alterTiers","inputs":[{"name":"_tierIds","type":"uint256[]","internalType":"uint256[]"},{"name":"_tierParams","type":"tuple[]","internalType":"struct TierParams[]","components":[{"name":"shareLimit","type":"uint256","internalType":"uint256"},{"name":"reserveRatioBP","type":"uint256","internalType":"uint256"},{"name":"forcedRebalanceThresholdBP","type":"uint256","internalType":"uint256"},{"name":"infraFeeBP","type":"uint256","internalType":"uint256"},{"name":"liquidityFeeBP","type":"uint256","internalType":"uint256"},{"name":"reservationFeeBP","type":"uint256","internalType":"uint256"}]}],"outputs":[],"stateMutability":"nonpayable"},{"type":"function","name":"changeTier","inputs":[{"name":"_vault","type":"address","internalType":"address"},{"name":"_requestedTierId","type":"uint256","internalType":"uint256"},{"name":"_requestedShareLimit","type":"uint256","internalType":"uint256"}],"outputs":[{"name":"","type":"bool","internalType":"bool"}],"stateMutability":"nonpayable"},{"type":"function","name":"confirmation","inputs":[{"name":"_callData","type":"bytes","internalType":"bytes"},{"name":"_role","type":"bytes32","internalType":"bytes32"}],"outputs":[{"name":"","type":"uint256","internalType":"uint256"}],"stateMutability":"view"},{"type":"function","name":"effectiveShareLimit","inputs":[{"name":"_vault","type":"address","internalType":"address"}],"outputs":[{"name":"","type":"uint256","internalType":"uint256"}],"stateMutability":"view"},{"type":"function","name":"getConfirmExpiry","inputs":[],"outputs":[{"name":"","type":"uint256","internalType":"uint256"}],"stateMutability":"view"},{"type":"function","name":"getRoleAdmin","inputs":[{"name":"role","type":"bytes32","internalType":"bytes32"}],"outputs":[{"name":"","type":"bytes32","internalType":"bytes32"}],"stateMutability":"view"},{"type":"function","name":"getRoleMember","inputs":[{"name":"role","type":"bytes32","internalType":"bytes32"},{"name":"index","type":"uint256","internalType":"uint256"}],"outputs":[{"name":"","type":"address","internalType":"address"}],"stateMutability":"view"},{"type":"function","name":"getRoleMemberCount","inputs":[{"name":"role","type":"bytes32","internalType":"bytes32"}],"outputs":[{"name":"","type":"uint256","internalType":"uint256"}],"stateMutability":"view"},{"type":"function","name":"getRoleMembers","inputs":[{"name":"role","type":"bytes32","internalType":"bytes32"}],"outputs":[{"name":"","type":"address[]","internalType":"address[]"}],"stateMutability":"view"},{"type":"function","name":"grantRole","inputs":[{"name":"role","type":"bytes32","internalType":"bytes32"},{"name":"account","type":"address","internalType":"address"}],"outputs":[],"stateMutability":"nonpayable"},{"type":"function","name":"group","inputs":[{"name":"_nodeOperator","type":"address","internalType":"address"}],"outputs":[{"name":"","type":"tuple","internalType":"struct OperatorGrid.Group","components":[{"name":"operator","type":"address","internalType":"address"},{"name":"shareLimit","type":"uint96","internalType":"uint96"},{"name":"liabilityShares","type":"uint96","internalType":"uint96"},{"name":"tierIds","type":"uint256[]","internalType":"uint256[]"}]}],"stateMutability":"view"},{"type":"function","name":"hasRole","inputs":[{"name":"role","type":"bytes32","internalType":"bytes32"},{"name":"account","type":"address","internalType":"address"}],"outputs":[{"name":"","type":"bool","internalType":"bool"}],"stateMutability":"view"},{"type":"function","name":"initialize","inputs":[{"name":"_admin","type":"address","internalType":"address"},{"name":"_defaultTierParams","type":"tuple","internalType":"struct TierParams","components":[{"name":"shareLimit","type":"uint256","internalType":"uint256"},{"name":"reserveRatioBP","type":"uint256","internalType":"uint256"},{"name":"forcedRebalanceThresholdBP","type":"uint256","internalType":"uint256"},{"name":"infraFeeBP","type":"uint256","internalType":"uint256"},{"name":"liquidityFeeBP","type":"uint256","internalType":"uint256"},{"name":"reservationFeeBP","type":"uint256","internalType":"uint256"}]}],"outputs":[],"stateMutability":"nonpayable"},{"type":"function","name":"isVaultInJail","inputs":[{"name":"_vault","type":"address","internalType":"address"}],"outputs":[{"name":"","type":"bool","internalType":"bool"}],"stateMutability":"view"},{"type":"function","name":"nodeOperatorAddress","inputs":[{"name":"_index","type":"uint256","internalType":"uint256"}],"outputs":[{"name":"","type":"address","internalType":"address"}],"stateMutability":"view"},{"type":"function","name":"nodeOperatorCount","inputs":[],"outputs":[{"name":"","type":"uint256","internalType":"uint256"}],"stateMutability":"view"},{"type":"function","name":"onBurnedShares","inputs":[{"name":"_vault","type":"address","internalType":"address"},{"name":"_amount","type":"uint256","internalType":"uint256"}],"outputs":[],"stateMutability":"nonpayable"},{"type":"function","name":"onMintedShares","inputs":[{"name":"_vault","type":"address","internalType":"address"},{"name":"_amount","type":"uint256","internalType":"uint256"},{"name":"_overrideLimits","type":"bool","internalType":"bool"}],"outputs":[],"stateMutability":"nonpayable"},{"type":"function","name":"registerGroup","inputs":[{"name":"_nodeOperator","type":"address","internalType":"address"},{"name":"_shareLimit","type":"uint256","internalType":"uint256"}],"outputs":[],"stateMutability":"nonpayable"},{"type":"function","name":"registerTiers","inputs":[{"name":"_nodeOperator","type":"address","internalType":"address"},{"name":"_tiers","type":"tuple[]","internalType":"struct TierParams[]","components":[{"name":"shareLimit","type":"uint256","internalType":"uint256"},{"name":"reserveRatioBP","type":"uint256","internalType":"uint256"},{"name":"forcedRebalanceThresholdBP","type":"uint256","internalType":"uint256"},{"name":"infraFeeBP","type":"uint256","internalType":"uint256"},{"name":"liquidityFeeBP","type":"uint256","internalType":"uint256"},{"name":"reservationFeeBP","type":"uint256","internalType":"uint256"}]}],"outputs":[],"stateMutability":"nonpayable"},{"type":"function","name":"renounceRole","inputs":[{"name":"role","type":"bytes32","internalType":"bytes32"},{"name":"callerConfirmation","type":"address","internalType":"address"}],"outputs":[],"stateMutability":"nonpayable"},{"type":"function","name":"resetVaultTier","inputs":[{"name":"_vault","type":"address","internalType":"address"}],"outputs":[],"stateMutability":"nonpayable"},{"type":"function","name":"revokeRole","inputs":[{"name":"role","type":"bytes32","internalType":"bytes32"},{"name":"account","type":"address","internalType":"address"}],"outputs":[],"stateMutability":"nonpayable"},{"type":"function","name":"setVaultJailStatus","inputs":[{"name":"_vault","type":"address","internalType":"address"},{"name":"_isInJail","type":"bool","internalType":"bool"}],"outputs":[],"stateMutability":"nonpayable"},{"type":"function","name":"supportsInterface","inputs":[{"name":"interfaceId","type":"bytes4","internalType":"bytes4"}],"outputs":[{"name":"","type":"bool","internalType":"bool"}],"stateMutability":"view"},{"type":"function","name":"syncTier","inputs":[{"name":"_vault","type":"address","internalType":"address"}],"outputs":[{"name":"","type":"bool","internalType":"bool"}],"stateMutability":"nonpayable"},{"type":"function","name":"tier","inputs":[{"name":"_tierId","type":"uint256","internalType":"uint256"}],"outputs":[{"name":"","type":"tuple","internalType":"struct OperatorGrid.Tier","components":[{"name":"operator","type":"address","internalType":"address"},{"name":"shareLimit","type":"uint96","internalType":"uint96"},{"name":"liabilityShares","type":"uint96","internalType":"uint96"},{"name":"reserveRatioBP","type":"uint16","internalType":"uint16"},{"name":"forcedRebalanceThresholdBP","type":"uint16","internalType":"uint16"},{"name":"infraFeeBP","type":"uint16","internalType":"uint16"},{"name":"liquidityFeeBP","type":"uint16","internalType":"uint16"},{"name":"reservationFeeBP","type":"uint16","internalType":"uint16"}]}],"stateMutability":"view"},{"type":"function","name":"tiersCount","inputs":[],"outputs":[{"name":"","type":"uint256","internalType":"uint256"}],"stateMutability":"view"},{"type":"function","name":"updateGroupShareLimit","inputs":[{"name":"_nodeOperator","type":"address","internalType":"address"},{"name":"_shareLimit","type":"uint256","internalType":"uint256"}],"outputs":[],"stateMutability":"nonpayable"},{"type":"function","name":"updateVaultFees","inputs":[{"name":"_vault","type":"address","internalType":"address"},{"name":"_infraFeeBP","type":"uint256","internalType":"uint256"},{"name":"_liquidityFeeBP","type":"uint256","internalType":"uint256"},{"name":"_reservationFeeBP","type":"uint256","internalType":"uint256"}],"outputs":[],"stateMutability":"nonpayable"},{"type":"function","name":"updateVaultShareLimit","inputs":[{"name":"_vault","type":"address","internalType":"address"},{"name":"_requestedShareLimit","type":"uint256","internalType":"uint256"}],"outputs":[{"name":"","type":"bool","internalType":"bool"}],"stateMutability":"nonpayable"},{"type":"function","name":"vaultTierInfo","inputs":[{"name":"_vault","type":"address","internalType":"address"}],"outputs":[{"name":"nodeOperator","type":"address","internalType":"address"},{"name":"tierId","type":"uint256","internalType":"uint256"},{"name":"shareLimit","type":"uint256","internalType":"uint256"},{"name":"reserveRatioBP","type":"uint256","internalType":"uint256"},{"name":"forcedRebalanceThresholdBP","type":"uint256","internalType":"uint256"},{"name":"infraFeeBP","type":"uint256","internalType":"uint256"},{"name":"liquidityFeeBP","type":"uint256","internalType":"uint256"},{"name":"reservationFeeBP","type":"uint256","internalType":"uint256"}],"stateMutability":"view"},{"type":"event","name":"ConfirmExpirySet","inputs":[{"name":"sender","type":"address","indexed":true,"internalType":"address"},{"name":"oldConfirmExpiry","type":"uint256","indexed":false,"internalType":"uint256"},{"name":"newConfirmExpiry","type":"uint256","indexed":false,"internalType":"uint256"}],"anonymous":false},{"type":"event","name":"GroupAdded","inputs":[{"name":"nodeOperator","type":"address","indexed":true,"internalType":"address"},{"name":"shareLimit","type":"uint256","indexed":false,"internalType":"uint256"}],"anonymous":false},{"type":"event","name":"GroupShareLimitUpdated","inputs":[{"name":"nodeOperator","type":"address","indexed":true,"internalType":"address"},{"name":"shareLimit","type":"uint256","indexed":false,"internalType":"uint256"}],"anonymous":false},{"type":"event","name":"Initialized","inputs":[{"name":"version","type":"uint64","indexed":false,"internalType":"uint64"}],"anonymous":false},{"type":"event","name":"RoleAdminChanged","inputs":[{"name":"role","type":"bytes32","indexed":true,"internalType":"bytes32"},{"name":"previousAdminRole","type":"bytes32","indexed":true,"internalType":"bytes32"},{"name":"newAdminRole","type":"bytes32","indexed":true,"internalType":"bytes32"}],"anonymous":false},{"type":"event","name":"RoleGranted","inputs":[{"name":"role","type":"bytes32","indexed":true,"internalType":"bytes32"},{"name":"account","type":"address","indexed":true,"internalType":"address"},{"name":"sender","type":"address","indexed":true,"internalType":"address"}],"anonymous":false},{"type":"event","name":"RoleMemberConfirmed","inputs":[{"name":"member","type":"address","indexed":true,"internalType":"address"},{"name":"role","type":"bytes32","indexed":true,"internalType":"bytes32"},{"name":"confirmTimestamp","type":"uint256","indexed":false,"internalType":"uint256"},{"name":"expiryTimestamp","type":"uint256","indexed":false,"internalType":"uint256"},{"name":"data","type":"bytes","indexed":false,"internalType":"bytes"}],"anonymous":false},{"type":"event","name":"RoleRevoked","inputs":[{"name":"role","type":"bytes32","indexed":true,"internalType":"bytes32"},{"name":"account","type":"address","indexed":true,"internalType":"address"},{"name":"sender","type":"address","indexed":true,"internalType":"address"}],"anonymous":false},{"type":"event","name":"TierAdded","inputs":[{"name":"nodeOperator","type":"address","indexed":true,"internalType":"address"},{"name":"tierId","type":"uint256","indexed":true,"internalType":"uint256"},{"name":"shareLimit","type":"uint256","indexed":false,"internalType":"uint256"},{"name":"reserveRatioBP","type":"uint256","indexed":false,"internalType":"uint256"},{"name":"forcedRebalanceThresholdBP","type":"uint256","indexed":false,"internalType":"uint256"},{"name":"infraFeeBP","type":"uint256","indexed":false,"internalType":"uint256"},{"name":"liquidityFeeBP","type":"uint256","indexed":false,"internalType":"uint256"},{"name":"reservationFeeBP","type":"uint256","indexed":false,"internalType":"uint256"}],"anonymous":false},{"type":"event","name":"TierChanged","inputs":[{"name":"vault","type":"address","indexed":true,"internalType":"address"},{"name":"tierId","type":"uint256","indexed":true,"internalType":"uint256"},{"name":"shareLimit","type":"uint256","indexed":false,"internalType":"uint256"}],"anonymous":false},{"type":"event","name":"TierUpdated","inputs":[{"name":"tierId","type":"uint256","indexed":true,"internalType":"uint256"},{"name":"shareLimit","type":"uint256","indexed":false,"internalType":"uint256"},{"name":"reserveRatioBP","type":"uint256","indexed":false,"internalType":"uint256"},{"name":"forcedRebalanceThresholdBP","type":"uint256","indexed":false,"internalType":"uint256"},{"name":"infraFeeBP","type":"uint256","indexed":false,"internalType":"uint256"},{"name":"liquidityFeeBP","type":"uint256","indexed":false,"internalType":"uint256"},{"name":"reservationFeeBP","type":"uint256","indexed":false,"internalType":"uint256"}],"anonymous":false},{"type":"event","name":"VaultJailStatusUpdated","inputs":[{"name":"vault","type":"address","indexed":true,"internalType":"address"},{"name":"isInJail","type":"bool","indexed":false,"internalType":"bool"}],"anonymous":false},{"type":"error","name":"AccessControlBadConfirmation","inputs":[]},{"type":"error","name":"AccessControlUnauthorizedAccount","inputs":[{"name":"account","type":"address","internalType":"address"},{"name":"neededRole","type":"bytes32","internalType":"bytes32"}]},{"type":"error","name":"ArrayLengthMismatch","inputs":[]},{"type":"error","name":"CannotChangeToDefaultTier","inputs":[]},{"type":"error","name":"ConfirmExpiryOutOfBounds","inputs":[]},{"type":"error","name":"ForcedRebalanceThresholdTooHigh","inputs":[{"name":"tierId","type":"uint256","internalType":"uint256"},{"name":"forcedRebalanceThresholdBP","type":"uint256","internalType":"uint256"},{"name":"reserveRatioBP","type":"uint256","internalType":"uint256"}]},{"type":"error","name":"GroupExists","inputs":[]},{"type":"error","name":"GroupLimitExceeded","inputs":[]},{"type":"error","name":"GroupNotExists","inputs":[]},{"type":"error","name":"InfraFeeTooHigh","inputs":[{"name":"tierId","type":"uint256","internalType":"uint256"},{"name":"infraFeeBP","type":"uint256","internalType":"uint256"},{"name":"maxInfraFeeBP","type":"uint256","internalType":"uint256"}]},{"type":"error","name":"InvalidBasisPoints","inputs":[{"name":"valueBP","type":"uint256","internalType":"uint256"},{"name":"maxValueBP","type":"uint256","internalType":"uint256"}]},{"type":"error","name":"InvalidInitialization","inputs":[]},{"type":"error","name":"LiquidityFeeTooHigh","inputs":[{"name":"tierId","type":"uint256","internalType":"uint256"},{"name":"liquidityFeeBP","type":"uint256","internalType":"uint256"},{"name":"maxLiquidityFeeBP","type":"uint256","internalType":"uint256"}]},{"type":"error","name":"NodeOperatorNotExists","inputs":[]},{"type":"error","name":"NotAuthorized","inputs":[{"name":"operation","type":"string","internalType":"string"},{"name":"sender","type":"address","internalType":"address"}]},{"type":"error","name":"NotInitializing","inputs":[]},{"type":"error","name":"RequestedShareLimitTooHigh","inputs":[{"name":"requestedShareLimit","type":"uint256","internalType":"uint256"},{"name":"tierShareLimit","type":"uint256","internalType":"uint256"}]},{"type":"error","name":"ReservationFeeTooHigh","inputs":[{"name":"tierId","type":"uint256","internalType":"uint256"},{"name":"reservationFeeBP","type":"uint256","internalType":"uint256"},{"name":"maxReservationFeeBP","type":"uint256","internalType":"uint256"}]},{"type":"error","name":"ReserveRatioTooHigh","inputs":[{"name":"tierId","type":"uint256","internalType":"uint256"},{"name":"reserveRatioBP","type":"uint256","internalType":"uint256"},{"name":"maxReserveRatioBP","type":"uint256","internalType":"uint256"}]},{"type":"error","name":"SenderNotMember","inputs":[]},{"type":"error","name":"ShareLimitAlreadySet","inputs":[]},{"type":"error","name":"TierAlreadySet","inputs":[]},{"type":"error","name":"TierLimitExceeded","inputs":[]},{"type":"error","name":"TierNotExists","inputs":[]},{"type":"error","name":"TierNotInOperatorGroup","inputs":[]},{"type":"error","name":"VaultAlreadySyncedWithTier","inputs":[]},{"type":"error","name":"VaultInJail","inputs":[]},{"type":"error","name":"VaultInJailAlreadySet","inputs":[]},{"type":"error","name":"VaultNotConnected","inputs":[]},{"type":"error","name":"ZeroArgument","inputs":[{"name":"argument","type":"string","internalType":"string"}]},{"type":"error","name":"ZeroConfirmingRoles","inputs":[]}],"bytecode":{"object":"0x60a034610119576001600160401b0390601f61392238819003918201601f19168301918483118484101761011d5780849260209460405283398101031261011957516001600160a01b0381168103610119576080527ff0c57e16840df040f15088dc2f81fe391c3923bec73e23a9662efc9c229c6a009081549060ff8260401c166101075780808316036100c2575b6040516137f090816101328239608051818181610778015281816107df01528181610a38015281816113a60152612f600152f35b6001600160401b031990911681179091556040519081527fc7f505b2f371ae2175ee4913f4499e1f2633a7b5936321eed1cdaeb6115181d290602090a15f808061008e565b60405163f92ee8a960e01b8152600490fd5b5f80fd5b634e487b7160e01b5f52604160045260245ffdfe6080806040526004361015610012575f80fd5b5f905f3560e01c90816301ffc9a714611f5057508063032d9b3014611ea657806303a7a26c14611e8357806303af7c7b14611e615780630b91990d14611e255780630bff888114611e08578063248a9ca314611dcf578063285f591c14611d265780632f2ff15d14611ca957806336568abe14611c6257806338f180bc14611c1b57806342f1e87914611be157806343ab497e14611bb657806345368a7414611b855780634c5649c014611a7057806354544bcb14611781578063552b91da146114f0578063627b5ba11461136e57806368d44bc014610f985780636dda34db14610ea45780637b5cf44f14610d7f5780639010d07c14610d2e57806391d1485414610cd957806392dc494b14610ca8578063a217fddf146109ac578063a3246ad314610bf3578063a51a6d3e146109ef578063b67c6716146109c6578063b7a22a5a146109ac578063bc9f63a114610983578063ca15c8731461094d578063d547741f14610904578063d9250797146107a7578063dbba4b4814610763578063e37a7c0b14610575578063e52b60851461048d578063ed7139a714610290578063f36fccea146101ea5763f6c76318146101cb575f80fd5b346101e757806003193601126101e7576020604051610e108152f35b80fd5b50346101e75760203660031901126101e75761010061020f61020a612044565b6122c4565b5461022261021c826120a0565b50612a87565b9060018060a01b03825116916001600160601b0360208201511661ffff908160608401511682608085015116918360a0860151169360e08160c0880151169601511695604051978852602088015260408701526060860152608085015260a084015260c083015260e0820152f35b50346103df5760803660031901126103df576102aa612044565b60643590604435906024356102bd612e55565b6001600160a01b0391821691821561045e576102d8826131f8565b6102e1846131f8565b6102ea856131f8565b6102f2612f42565b16916040516303ff25db60e61b8152816004820152602081602481875afa9081156103d4575f91610424575b50156104125760405163280be2f560e01b81526004810182905261014095908681602481885afa9687156103d4575f976103e3575b50506001600160601b036020870151169361ffff60a08160808a0151169801511691813b156103df575f9660e49588946040519a8b998a98635926e3b960e01b8a5260048a0152602489015260448801526064870152608486015260a485015260c48401525af180156103d4576103c8575080f35b6103d29150611ff4565b005b6040513d5f823e3d90fd5b5f80fd5b610403929750803d1061040b575b6103fb8183612023565b810190612395565b945f80610353565b503d6103f1565b60405163163260d960e11b8152600490fd5b90506020813d602011610456575b8161043f60209383612023565b810103126103df5761045090612351565b5f61031e565b3d9150610432565b6040516356e4289360e01b815260206004820152600660248201526517dd985d5b1d60d21b6044820152606490fd5b346103df5760403660031901126103df576104a6612044565b6104ae612e55565b6001600160a01b0381811691821561053f576104c99061228c565b908154161561052d5780546001600160a01b031660243560a081901b6001600160a01b031916919091179091557f95c525c6495cd731a5dd1251915694b38dc2dfc5ebc567dd8e216db21af53832906020906001600160601b0316604051908152a2005b6040516379d4d94360e11b8152600490fd5b6040516356e4289360e01b815260206004820152600d60248201526c2fb737b232a7b832b930ba37b960991b6044820152606490fd5b346103df5760403660031901126103df5761058e612044565b610596612e55565b6001600160a01b0381811691821561053f57816105b28261228c565b5416610751576001600160601b0391826024351690604051936020938486016001600160401b039187821083831117610702576002916040525f8852604051906105fb82611fd9565b898252610645858984018981528861062060408701955f8752606088019e8f5261228c565b955191516001600160a01b039190921616911660a01b6001600160a01b031916178355565b600194600183019151166001600160601b031982541617905501955195865191821161070257600160401b968783116107025786908254848455808510610727575b5001905f52855f205f5b8381106107165750505050505f8051602061375b83398151915280549485101561070257846106e69160017fc4c635fe1d56eb1619db0415c4995464ae47c48c17807db6fad719c6eb86bd2e970190556122fc565b819291549060031b9187831b921b1916179055604051908152a2005b634e487b7160e01b5f52604160045260245ffd5b825182820155918701918401610691565b835f528585845f2092830192015b828110610743575050610687565b5f81558a9450879101610735565b60405163c0925ab360e01b8152600490fd5b346103df575f3660031901126103df576040517f00000000000000000000000000000000000000000000000000000000000000006001600160a01b03168152602090f35b346103df5760403660031901126103df576107c0612044565b604051636dd6e80b60e01b81526001600160a01b0391906020816004817f000000000000000000000000000000000000000000000000000000000000000087165afa80156103d45783915f916108c8575b5016330361089057610822906122c4565b5461082c816120a0565b50906001600160601b03928360243516926001810192835493866108528782881661249b565b166001600160601b031980961617905561086857005b60019161087691541661228c565b019261088684549382851661249b565b1691161790555f80f35b60846040516373e3652560e01b815260406004820152600a6044820152696275726e53686172657360b01b6064820152336024820152fd5b9150506020813d6020116108fc575b816108e460209383612023565b810103126103df576108f6839161235e565b84610811565b3d91506108d7565b346103df5760403660031901126103df576103d260043561092361205a565b90805f525f8051602061379b833981519152602052610948600160405f200154612ece565b612efc565b346103df5760203660031901126103df576004355f525f8051602061371b833981519152602052602060405f2054604051908152f35b346103df575f3660031901126103df5760205f8051602061373b83398151915254604051908152f35b346103df575f3660031901126103df5760206040515f8152f35b346103df575f3660031901126103df5760205f8051602061375b83398151915254604051908152f35b346103df5760603660031901126103df57610a08612044565b602435604435918215928315036103df57604051636dd6e80b60e01b81526001600160a01b0391906020816004817f000000000000000000000000000000000000000000000000000000000000000087165afa80156103d45783915f91610bb7575b50163303610b7b578380610b68575b610b5657610a86906122c4565b54610a90816120a0565b509260018401938454936001600160601b0393848616968880610b40575b610b2e5785610ac0818716809a612480565b166001600160601b0319809816179055610ad657005b610ae191541661228c565b9360018501958654958487169382610b15575b5050610b035761088691612480565b604051635300be5f60e11b8152600490fd5b610b219192508461245f565b905460a01c108780610af4565b60405163f338707160e01b8152600490fd5b50610b4b858961245f565b845460a01c10610aae565b60405163a29e4a4760e01b8152600490fd5b5060ff610b7482612254565b5416610a79565b60846040516373e3652560e01b815260406004820152600e60448201526d6f6e4d696e74656453686172657360901b6064820152336024820152fd5b9150506020813d602011610beb575b81610bd360209383612023565b810103126103df57610be5839161235e565b86610a6a565b3d9150610bc6565b346103df576020806003193601126103df576004355f525f8051602061371b833981519152815260405f20604051908183825491828152019081925f52845f20905f5b86828210610c94578686610c4c82880383612023565b60405192839281840190828552518091526040840192915f5b828110610c7457505050500390f35b83516001600160a01b031685528695509381019392810192600101610c65565b835485529093019260019283019201610c36565b346103df5760403660031901126103df576020610ccf610cc6612044565b60243590612af8565b6040519015158152f35b346103df5760403660031901126103df57610cf261205a565b6004355f525f8051602061379b83398151915260205260405f209060018060a01b03165f52602052602060ff60405f2054166040519015158152f35b346103df5760403660031901126103df576004355f525f8051602061371b8339815191526020526020610d6660243560405f2061233c565b905460405160039290921b1c6001600160a01b03168152f35b346103df576020806003193601126103df57610dc0610d9c612044565b606080604051610dab81611fd9565b5f81525f868201525f6040820152015261228c565b9060405191610dce83611fd9565b80549160018060a01b039283811685528185019060a01c81526001600160601b036001936002826001830154169160408901928352019260405193848682549182815201915f52865f20905f5b818110610e915750505090610e338585930386612023565b606089019485526040519786895260a08901995116868901525116604087015251166060850152519360808085015284518091528160c085019501915f5b828110610e7e5785870386f35b8351875295810195928101928401610e71565b8254845292880192918901918901610e1b565b346103df5760203660031901126103df576004355f60e0604051610ec781611fbd565b8281528260208201528260408201528260608201528260808201528260a08201528260c082015201525f8051602061373b83398151915254811015610f8657610f1561021c610100926120a0565b6040519060018060a01b03815116825260208101516001600160601b038091166020840152604082015116604083015260e060608201519161ffff80931660608501528260808201511660808501528260a08201511660a08501528260c08201511660c085015201511660e0820152f35b60405163dbbe245360e01b8152600490fd5b346103df5760e03660031901126103df57610fb1612044565b60c03660231901126103df577ff0c57e16840df040f15088dc2f81fe391c3923bec73e23a9662efc9c229c6a0080549160ff8360401c1615926001600160401b03811680159081611366575b600114908161135c575b159081611353575b506113415767ffffffffffffffff198116600117835583611322575b506001600160a01b039281841680156112f35760ff845460401c16156112e1576110b17fe4ca011a1344eb515c922209bf867930fc05bf79f4b0e3bb4ec9938eedd4770193845462015180809655604051908152602095868201527f437dc1a3e26abf0b8381463abca48d1e7d322e803c2b160d3ee75c04a492a18260403392a261346a565b6112ba575b5060a43593604460c435608435606480359084359081156112865761270f80831161126557508215611223578183116112025761ffff958685116111e057868c116111be5786861161119c57505084928361115a98999a9b938180946040519a61111f8c611fbd565b8b526024356001600160601b03168e8c01525f60408c01521660608a01521660808801521660a08601521660c08401521660e082015261297e565b61116057005b7fc7f505b2f371ae2175ee4913f4499e1f2633a7b5936321eed1cdaeb6115181d29168ff000000000000000019815416905560405160018152a1005b604051631c9be16160e01b81525f600482015260248101879052908101879052fd5b60405163ce51044360e01b81525f6004820152602481018d9052908101879052fd5b604051631a7485c360e21b81525f600482015260248101869052908101879052fd5b9250846040519263189e700f60e21b84525f60048501526024840152820152fd5b6040516356e4289360e01b8152600481018a9052601b60248201527f5f666f72636564526562616c616e63655468726573686f6c644250000000000081880152fd5b829087604051926316435e7560e21b84525f60048501526024840152820152fd5b6040516356e4289360e01b8152600481018a9052600f60248201526e05f72657365727665526174696f425608c1b81880152fd5b6112da905f80525f8051602061371b833981519152845260405f20613610565b50846110b6565b604051631afcd79f60e31b8152600490fd5b6040516356e4289360e01b81526020600482015260066024820152652fb0b236b4b760d11b6044820152606490fd5b68ffffffffffffffffff1916680100000000000000011782558361102b565b60405163f92ee8a960e01b8152600490fd5b9050158561100f565b303b159150611007565b859150610ffd565b346103df576020806003193601126103df57611388612044565b604051636dd6e80b60e01b81526001600160a01b03929081816004817f000000000000000000000000000000000000000000000000000000000000000088165afa80156103d45784915f916114b8575b5016330361147c576113e9826122c4565b546113f057005b5f6113fa836122c4565b555f8051602061373b83398151915290815415611468575f937fda8f799db4ea20d174d3b033ccc543d81f677f16dc5cb86a10122948881922e49285527f2d13b0be661eb6388a2a1b1af84a6392809d5a5d3985d726f4b57709835503fe5460a01c936040519485521692a3005b634e487b7160e01b5f52603260045260245ffd5b60846040516373e3652560e01b815260406004820152600e60448201526d3932b9b2ba2b30bab63a2a34b2b960911b6064820152336024820152fd5b809250838092503d83116114e9575b6114d18183612023565b810103126103df576114e3849161235e565b856113d8565b503d6114c7565b346103df5760403660031901126103df57611509612044565b6024356001600160401b0381116103df57611528903690600401612070565b9091611532612e55565b6001600160a01b03928184161561053f5761154c8261228c565b848154161561052d575f8051602061373b83398151915254915f925b85841061157157005b61157c84878461296e565b6020013561158b85888561296e565b6040013561159a86898661296e565b606001356115a9878a8761296e565b60800135906115b9888b8861296e565b60a00135926115c89486613076565b6115d384878461296e565b356001600160601b03166115e885888561296e565b6020013561ffff166115fb86898661296e565b6040013561ffff1661160e878a8761296e565b6060013561ffff16611621888b8861296e565b6080013561ffff1691611635898c8961296e565b60a0013561ffff16936040519561164b87611fbd565b8b8e16875260208701525f60408701526060860152608085015260a084015260c083015260e082015261167d8161297e565b600284015491600160401b831015610702578061177992816116c56116af87600180990160028c015560028b0161233c565b819391549060031b91821b915f19901b19161790565b90557f4e442ada5127ea6dd149d62a2dd3955688c429882c8a7299dcebfb7998ce8a6c8b8a6117716001600160601b036020860151169461ffff6060820151169061ffff60808201511661ffff60a0830151169061ffff60e08160c08601511694015116936040519788971699876001600160601b03909116815261ffff918216602082015291811660408301529182166060820152918116608083015290911660a082015260c00190565b0390a3612a79565b930192611568565b346103df5760403660031901126103df576004356001600160401b038082116103df57366023830112156103df578160040135908082116103df576024830192602436918460051b0101116103df576024359081116103df576117e8903690600401612070565b6117f3929192612e55565b808203611a5e575f8051602061373b83398151915254935f5b83811061181557005b8561182182868561295e565b351015610f86578261183482868561295e565b3560208061184385858b61296e565b0135848461185282828d61296e565b60400135938b838c816060998a61186a83898861296e565b0135986080998a61187c858b8a61296e565b01359060a09c8d61188e878d8c61296e565b01359361189a95613076565b6118a4918d61295e565b356118ae906120a0565b50986118b99261296e565b87546001600160a01b0316903560a01b6001600160a01b0319161787558b61ffff9384936118e69261296e565b60018801805461ffff60601b191692909101359290921660601b61ffff60601b161781559181858c898c8461191c83838661296e565b895461ffff60701b1916604091909101359190911660701b61ffff60701b161788556119479261296e565b855461ffff60801b19169101359190911660801b61ffff60801b1617835581848c898c848661197784848761296e565b8a5461ffff60901b19169101359190911660901b61ffff60901b1617885561199e9261296e565b855461ffff60a01b19169101359190911660a01b61ffff60a01b161783556119c7878b8a61295e565b359554841c92548095836040519788971c16938083818160901c16951c1692818160701c16921c16611a3295876001600160601b03909116815261ffff918216602082015291811660408301529182166060820152918116608083015290911660a082015260c00190565b037f90cc3589eb1af7fa49b576e282d4873d0f2631f9da290d75c3c7de37133826de91a260010161180c565b60405163512509d360e11b8152600490fd5b346103df576020806003193601126103df57611a8a612044565b6001600160a01b039081611a9c612f42565b16906040519263280be2f560e01b8452811692836004820152610140908181602481875afa9182156103d45786926001600160601b039284925f92611b68575b50500151169360246040518095819363329ce48960e21b835260048301525afa9182156103d4575f92611b37575b5090611b18611b1d92612fda565b61245f565b9080821015611b3057505b604051908152f35b9050611b28565b91508382813d8311611b61575b611b4e8183612023565b810103126103df57905190611b18611b0a565b503d611b44565b611b7e9250803d1061040b576103fb8183612023565b8880611adc565b346103df5760203660031901126103df57602060ff611baa611ba5612044565b612254565b54166040519015158152f35b346103df5760603660031901126103df576020610ccf611bd4612044565b60443590602435906124fa565b346103df575f3660031901126103df5760206040517fa495a3428837724c7f7648cda02eb83c9c4c778c8688d6f254c7f3f80c154d558152f35b346103df5760203660031901126103df576004355f8051602061375b83398151915254811015611c5057610d666020916122fc565b6040516329f26cf160e21b8152600490fd5b346103df5760403660031901126103df57611c7b61205a565b336001600160a01b03821603611c97576103d290600435612efc565b60405163334bd91960e11b8152600490fd5b346103df5760403660031901126103df57600435611cc561205a565b815f525f8051602061379b833981519152602052611ce9600160405f200154612ece565b611cf38183613507565b611cf957005b5f9182525f8051602061371b83398151915260205260409091206103d2916001600160a01b031690613610565b346103df5760403660031901126103df57611d3f612044565b6024358015158091036103df57611d54612e55565b6001600160a01b03821691821561045e578160ff611d7183612254565b5416151514611dbd577fe74110b00e6f33765fb0d8c1a7be0cdaca2ce45522e34b0e7fcbc907c3a1353b91611da7602092612254565b60ff1981541660ff8316179055604051908152a2005b6040516309b4636d60e01b8152600490fd5b346103df5760203660031901126103df576004355f525f8051602061379b8339815191526020526020600160405f200154604051908152f35b346103df575f3660031901126103df57602060405162278d008152f35b346103df575f3660031901126103df5760207fe4ca011a1344eb515c922209bf867930fc05bf79f4b0e3bb4ec9938eedd4770154604051908152f35b346103df575f3660031901126103df576040516001600160a01b038152602090f35b346103df5760203660031901126103df576020610ccf611ea1612044565b6120e3565b346103df5760403660031901126103df576004356001600160401b038082116103df57366023830112156103df57816004013590811161070257602091604051611ef984601f19601f8601160182612023565b8281528381019236602482850101116103df5784815f926024839601873783010152604051928391518091835e81015f8051602061377b8339815191528152030190206024355f52815260405f2054604051908152f35b346103df5760203660031901126103df576004359063ffffffff60e01b82168092036103df57602091635a05180f60e01b8114908115611f92575b5015158152f35b637965db0b60e01b811491508115611fac575b5083611f8b565b6301ffc9a760e01b14905083611fa5565b61010081019081106001600160401b0382111761070257604052565b608081019081106001600160401b0382111761070257604052565b6001600160401b03811161070257604052565b61014081019081106001600160401b0382111761070257604052565b90601f801991011681019081106001600160401b0382111761070257604052565b600435906001600160a01b03821682036103df57565b602435906001600160a01b03821682036103df57565b9181601f840112156103df578235916001600160401b0383116103df5760208085019460c085020101116103df57565b5f8051602061373b8339815191528054821015611468575f5260011b7f2d13b0be661eb6388a2a1b1af84a6392809d5a5d3985d726f4b57709835503fe01905f90565b6120fb6120ef82612c01565b959195949092946120a0565b509461ffff92600184608088015116970196875490858260601c1614908161223e575b81612228575b81612212575b816121fb575b506121e95761213f9136612dfa565b156121e0576001600160601b03602060018060a01b03809516950151169454843b156103df575f9460e49386926040519889978896635926e3b960e01b88521660048701526024860152818160601c166044860152818160701c166064860152818160801c166084860152818160901c1660a486015260a01c1660c48401525af180156103d4576121d1575b50600190565b6121da90611ff4565b5f6121cb565b50505050505f90565b60405163fd58871560e01b8152600490fd5b90508480610100890151169160a01c16145f612130565b90508460e088015116858260901c16149061212a565b90508460c088015116858260801c161490612124565b90508460a088015116858260701c16149061211e565b6001600160a01b03165f9081527f6b64617c951381e2c1eff2be939fe368ab6d76b7d335df2e47ba2309eba1c7046020526040902090565b6001600160a01b03165f9081527f6b64617c951381e2c1eff2be939fe368ab6d76b7d335df2e47ba2309eba1c7026020526040902090565b6001600160a01b03165f9081527f6b64617c951381e2c1eff2be939fe368ab6d76b7d335df2e47ba2309eba1c7016020526040902090565b5f8051602061375b8339815191528054821015611468575f527f69b99ed135140881c0a0404e7cb710f197dbe22458b46ad662524eb4ded8de3201905f90565b8054821015611468575f5260205f2001905f90565b519081151582036103df57565b51906001600160a01b03821682036103df57565b51906001600160601b03821682036103df57565b519061ffff821682036103df57565b90816101409103126103df57604051906123ae82612007565b6123b78161235e565b82526123c560208201612372565b60208301526123d660408201612372565b6040830152606081015165ffffffffffff811681036103df57606083015261240060808201612386565b608083015261241160a08201612386565b60a083015261242260c08201612386565b60c083015261243360e08201612386565b60e0830152610100612446818301612386565b90830152612458610120809201612351565b9082015290565b9190820180921161246c57565b634e487b7160e01b5f52601160045260245ffd5b9190916001600160601b038080941691160191821161246c57565b6001600160601b03918216908216039190821161246c57565b6001600160a01b039091168152602081019190915261ffff91821660408201529181166060830152918216608082015291811660a083015290911660c082015260e00190565b6001600160a01b0393928482169190821561045e575f8051602061373b83398151915254841015610f8657831561294c5785612534612f42565b166040908151936303ff25db60e61b8552600498868a8701526020958681602481875afa90811561290d575f91612917575b50156128b157835163280be2f560e01b81528a8101889052610140908181602481885afa91821561288a57908392915f92612894575b505051165b845162478b6160e31b81529187838d818c5afa92831561288a575f93612853575b506125cc846122c4565b54918a8314612843576125de8b6120a0565b5091825490808216908616036128335760a01c8089116128175750836126049136612dfa565b1561280857855163329ce48960e21b81528c81018a9052918883602481895afa9283156127fe575f936127cf575b5060018201936001600160601b039261264e858588541661245f565b905460a01c106127bf5782908215612759575b5061266d6001926120a0565b509316920190815491816126838582861661249b565b166001600160601b03198094161790556126a1845493828516612480565b169116178155876126b1836122c4565b55549161ffff813b156103df575f809461270087519d8e9687958694635926e3b960e01b8652818160a01c16938d838360901c1694848460801c1694808560701c169460601c169289016124b4565b03925af196871561274f577fda8f799db4ea20d174d3b033ccc543d81f677f16dc5cb86a10122948881922e494959697612740575b5051908152a3600190565b61274990611ff4565b5f612735565b50513d5f823e3d90fd5b612763915061228c565b600181019081549084821690612779878361245f565b905460a01c106127b05792849261266d928461279a600197828b1690612480565b16906001600160601b0319161790559250612661565b8f8a51635300be5f60e11b8152fd5b875163f338707160e01b81528e90fd5b9092508881813d83116127f7575b6127e78183612023565b810103126103df5751915f612632565b503d6127dd565b87513d5f823e3d90fd5b505f9a50505050505050505050565b8d6044918a8a51926354eb576760e11b84528301526024820152fd5b875163fb7272fb60e01b81528e90fd5b865163d88d74c560e01b81528d90fd5b9092508781813d8311612883575b61286b8183612023565b810103126103df5761287c9061235e565b915f6125c2565b503d612861565b86513d5f823e3d90fd5b6128aa9250803d1061040b576103fb8183612023565b5f8061259c565b8351638da5cb5b60e01b815286818c818b5afa90811561290d575f916128d8575b506125a1565b90508681813d8311612906575b6128ef8183612023565b810103126103df576129009061235e565b5f6128d2565b503d6128e5565b85513d5f823e3d90fd5b90508681813d8311612945575b61292e8183612023565b810103126103df5761293f90612351565b5f612566565b503d612924565b604051631e01332760e11b8152600490fd5b91908110156114685760051b0190565b91908110156114685760c0020190565b5f8051602061373b8339815191528054600160401b811015610702576129a9916001820190556120a0565b612a66578151602083015160a090811b6001600160a01b0319166001600160a01b039092169190911782556040830151600190920180546060808601516080808801518689015160c08a015160e0909a015160909a909a1b61ffff60901b16921b61ffff60801b1660709190911b61ffff60701b1661ffff60601b9390941b929092166001600160601b039097166001600160b01b0319909416939093179590951717939093179290921792901b61ffff60a01b16919091179055565b634e487b7160e01b5f525f60045260245ffd5b5f19811461246c5760010190565b90604051612a9481611fbd565b60e0600182948054828060a01b038116855260a01c602085015201546001600160601b038116604084015261ffff90818160601c166060850152818160701c166080850152818160801c1660a0850152818160901c1660c085015260a01c16910152565b90612b0f612b0583612c01565b94909192946120a0565b505460a01c808611612bcc57506001600160601b036020850151168514612bba57612b3a9136612dfa565b15612bb25760018060a01b031661ffff9283608084015116928460a082015116958560c083015116956101008160e0850151169301511695843b156103df575f968793612b9e926040519a8b998a988997635926e3b960e01b8952600489016124b4565b03925af180156103d4576121d15750600190565b505050505f90565b6040516301c008bd60e01b8152600490fd5b85604491604051916354eb576760e11b835260048301526024820152fd5b6001600160401b0381116107025760051b60200190565b906040805192612c1084612007565b5f84525f610120602095828782015282858201528260608201528260808201528260a08201528260c08201528260e082015282610100820152015260018060a01b0392838216928315612db957612c65612f42565b958587169582516303ff25db60e61b815286600482015282816024818b5afa908115612d69575f91612d84575b5015612d73578251809763280be2f560e01b82528760048301528160246101409a8b935afa978815612d69575f98612d41575b50509080600493928851169683519485809262478b6160e31b82525afa918215612d3857505f91612d01575b50612cfd9150926122c4565b5490565b905081813d8311612d31575b612d178183612023565b810103126103df57612d2b612cfd9161235e565b5f612cf1565b503d612d0d565b513d5f823e3d90fd5b83929850600494939181612d6092903d1061040b576103fb8183612023565b97919293612cc5565b84513d5f823e3d90fd5b825163163260d960e11b8152600490fd5b90508281813d8311612db2575b612d9b8183612023565b810103126103df57612dac90612351565b5f612c92565b503d612d91565b516356e4289360e01b815260206004820152600660248201526517dd985d5b1d60d21b6044820152606490fd5b80518210156114685760209160051b010190565b60405191606083018381106001600160401b03821117610702576040526002835260208301604036823783516001600160a01b03929015611468578216905282516001101561146857612e5293166040830152613224565b90565b335f9081527f94082ce042128a58fb9dba57cb97144ab4af7ce8b0cce98bd2a0822461a49a2160205260409020547fa495a3428837724c7f7648cda02eb83c9c4c778c8688d6f254c7f3f80c154d559060ff1615612eb05750565b6044906040519063e2517d3f60e01b82523360048301526024820152fd5b805f525f8051602061379b83398151915260205260405f20335f5260205260ff60405f20541615612eb05750565b612f068282613591565b9182612f1157505090565b5f9182525f8051602061371b8339815191526020526040909120612f3e916001600160a01b03169061365d565b5090565b604051636dd6e80b60e01b81526001600160a01b03906020816004817f000000000000000000000000000000000000000000000000000000000000000086165afa9081156103d4575f91612f9557501690565b90506020813d602011612fc5575b81612fb060209383612023565b810103126103df57612fc19061235e565b1690565b3d9150612fa3565b9190820391821161246c57565b612fe3906122c4565b546001612fef826120a0565b508054908160a01c906001600160601b039384910154168082115f1461306d5761301891612fcd565b925b1561306857613031906001600160a01b031661228c565b906001825460a01c920154168082115f146130605761304f91612fcd565b8082101561305b575090565b905090565b50505f61304f565b505090565b50505f9261301a565b939181156131c05761270f80831161319c575080156131565781811161313257505061ffff9182811161310957508181116130e0575082116130b6575050565b604051631c9be16160e01b81526004810191909152602481019190915261ffff6044820152606490fd5b60405163ce51044360e01b815260048101849052602481019190915261ffff6044820152606490fd5b604051631a7485c360e21b815260048101859052602481019190915261ffff6044820152606490fd5b60649185916040519263189e700f60e21b8452600484015260248301526044820152fd5b6040516356e4289360e01b815260206004820152601b60248201527f5f666f72636564526562616c616e63655468726573686f6c64425000000000006044820152606490fd5b8560649184604051926316435e7560e21b8452600484015260248301526044820152fd5b6040516356e4289360e01b815260206004820152600f60248201526e05f72657365727665526174696f425608c1b6044820152606490fd5b61ffff808211613206575050565b604492506040519163b874199760e01b835260048301526024820152fd5b919091825115613458578251905f9061323c83612bea565b9160409261324c84519182612023565b84815261325885612bea565b602092601f199291830136858401375f906132947fe4ca011a1344eb515c922209bf867930fc05bf79f4b0e3bb4ec9938eedd47701544261245f565b935f5b89811061337c575050901561336b5786036132ff5750505f5b8481106132c257506001955050505050565b806132cf60019289612de6565b518551855f823784818781015f8051602061377b833981519152815203019020905f5283525f85812055016132b0565b5f97919596975b8781106133195750505050505050505f90565b8061332660019284612de6565b51613332575b01613306565b61333c8185612de6565b518751875f823786818981015f8051602061377b833981519152815203019020905f52855287875f205561332c565b855163dd16cb2360e01b8152600490fd5b613386818d612de6565b519333850361340a575060019061339d8294612a79565b94846133a98389612de6565b528a516060428252898b830152808d83015236908201527f52a98ceea5bf73fc6482a17b325efa51b21372c60578c2fa4cac0c2fa780035a608091365f848301375f83368301015233928188601f3601168101030190a35b01929192613297565b92938951895f823788818b81015f8051602061377b833981519152815203019020905f52875242895f20541015613444575b600190613401565b92613450600191612a79565b93905061343c565b60405163f814a95b60e01b8152600490fd5b6001600160a01b03165f8181527fb7db2dd08fcb62d0c9e08c51941cae53c267786a0b75803fb7960902fc8ef97d60205260409020545f8051602061379b8339815191529060ff16613501575f805260205260405f20815f5260205260405f20600160ff1982541617905533905f7f2f8788117e7eff1d82e926ec794901d17c78024a50270940304540a733656f0d8180a4600190565b50505f90565b90815f525f8051602061379b8339815191528060205260405f209160018060a01b031691825f5260205260ff60405f205416155f1461358a57825f5260205260405f20815f5260205260405f20600160ff1982541617905533917f2f8788117e7eff1d82e926ec794901d17c78024a50270940304540a733656f0d5f80a4600190565b5050505f90565b90815f525f8051602061379b8339815191528060205260405f209160018060a01b031691825f5260205260ff60405f2054165f1461358a57825f5260205260405f20815f5260205260405f2060ff19815416905533917ff6391f5c32d9c69d2a47ea670b442974b53935d1edc7fd64eb21e047a839171b5f80a4600190565b6001810190825f528160205260405f2054155f1461358a578054600160401b8110156107025761364a6116af82600187940185558461233c565b905554915f5260205260405f2055600190565b906001820191815f528260205260405f2054908115155f14612bb2575f199180830181811161246c5782549084820191821161246c578181036136e5575b505050805480156136d1578201916136b3838361233c565b909182549160031b1b19169055555f526020525f6040812055600190565b634e487b7160e01b5f52603160045260245ffd5b6137056136f56116af938661233c565b90549060031b1c9283928661233c565b90555f528460205260405f20555f808061369b56fec1f6fe24621ce81ec5827caf0253cadb74709b061630e6b55e823717059320006b64617c951381e2c1eff2be939fe368ab6d76b7d335df2e47ba2309eba1c7006b64617c951381e2c1eff2be939fe368ab6d76b7d335df2e47ba2309eba1c703e4ca011a1344eb515c922209bf867930fc05bf79f4b0e3bb4ec9938eedd4770002dd7bc7dec4dceedda775e58dd541e08a116c6c53815c0bd028192f7b626800a2646970667358221220fb9aa737b33d48f237ab7fb48db461a4eeb4e7799f7fb5df032b4c80421263ca64736f6c63430008190033","linkReferences":{}},"methodIdentifiers":{"DEFAULT_ADMIN_ROLE()":"a217fddf","DEFAULT_TIER_ID()":"b7a22a5a","DEFAULT_TIER_OPERATOR()":"03af7c7b","LIDO_LOCATOR()":"dbba4b48","MAX_CONFIRM_EXPIRY()":"0bff8881","MIN_CONFIRM_EXPIRY()":"f6c76318","REGISTRY_ROLE()":"42f1e879","alterTiers(uint256[],(uint256,uint256,uint256,uint256,uint256,uint256)[])":"54544bcb","changeTier(address,uint256,uint256)":"43ab497e","confirmation(bytes,bytes32)":"032d9b30","effectiveShareLimit(address)":"4c5649c0","getConfirmExpiry()":"0b91990d","getRoleAdmin(bytes32)":"248a9ca3","getRoleMember(bytes32,uint256)":"9010d07c","getRoleMemberCount(bytes32)":"ca15c873","getRoleMembers(bytes32)":"a3246ad3","grantRole(bytes32,address)":"2f2ff15d","group(address)":"7b5cf44f","hasRole(bytes32,address)":"91d14854","initialize(address,(uint256,uint256,uint256,uint256,uint256,uint256))":"68d44bc0","isVaultInJail(address)":"45368a74","nodeOperatorAddress(uint256)":"38f180bc","nodeOperatorCount()":"b67c6716","onBurnedShares(address,uint256)":"d9250797","onMintedShares(address,uint256,bool)":"a51a6d3e","registerGroup(address,uint256)":"e37a7c0b","registerTiers(address,(uint256,uint256,uint256,uint256,uint256,uint256)[])":"552b91da","renounceRole(bytes32,address)":"36568abe","resetVaultTier(address)":"627b5ba1","revokeRole(bytes32,address)":"d547741f","setVaultJailStatus(address,bool)":"285f591c","supportsInterface(bytes4)":"01ffc9a7","syncTier(address)":"03a7a26c","tier(uint256)":"6dda34db","tiersCount()":"bc9f63a1","updateGroupShareLimit(address,uint256)":"e52b6085","updateVaultFees(address,uint256,uint256,uint256)":"ed7139a7","updateVaultShareLimit(address,uint256)":"92dc494b","vaultTierInfo(address)":"f36fccea"},"id":44}