{"abi":[{"type":"constructor","inputs":[{"name":"_stETH","type":"address","internalType":"address"},{"name":"_wstETH","type":"address","internalType":"address"},{"name":"_vaultHub","type":"address","internalType":"address"},{"name":"_lidoLocator","type":"address","internalType":"address"}],"stateMutability":"nonpayable"},{"type":"receive","stateMutability":"payable"},{"type":"function","name":"BURN_ROLE","inputs":[],"outputs":[{"name":"","type":"bytes32","internalType":"bytes32"}],"stateMutability":"view"},{"type":"function","name":"COLLECT_VAULT_ERC20_ROLE","inputs":[],"outputs":[{"name":"","type":"bytes32","internalType":"bytes32"}],"stateMutability":"view"},{"type":"function","name":"DEFAULT_ADMIN_ROLE","inputs":[],"outputs":[{"name":"","type":"bytes32","internalType":"bytes32"}],"stateMutability":"view"},{"type":"function","name":"FUND_ON_RECEIVE_FLAG_SLOT","inputs":[],"outputs":[{"name":"","type":"bytes32","internalType":"bytes32"}],"stateMutability":"view"},{"type":"function","name":"FUND_ROLE","inputs":[],"outputs":[{"name":"","type":"bytes32","internalType":"bytes32"}],"stateMutability":"view"},{"type":"function","name":"LIDO_LOCATOR","inputs":[],"outputs":[{"name":"","type":"address","internalType":"contract ILidoLocator"}],"stateMutability":"view"},{"type":"function","name":"MAX_CONFIRM_EXPIRY","inputs":[],"outputs":[{"name":"","type":"uint256","internalType":"uint256"}],"stateMutability":"view"},{"type":"function","name":"MINT_ROLE","inputs":[],"outputs":[{"name":"","type":"bytes32","internalType":"bytes32"}],"stateMutability":"view"},{"type":"function","name":"MIN_CONFIRM_EXPIRY","inputs":[],"outputs":[{"name":"","type":"uint256","internalType":"uint256"}],"stateMutability":"view"},{"type":"function","name":"NODE_OPERATOR_FEE_EXEMPT_ROLE","inputs":[],"outputs":[{"name":"","type":"bytes32","internalType":"bytes32"}],"stateMutability":"view"},{"type":"function","name":"NODE_OPERATOR_MANAGER_ROLE","inputs":[],"outputs":[{"name":"","type":"bytes32","internalType":"bytes32"}],"stateMutability":"view"},{"type":"function","name":"NODE_OPERATOR_PROVE_UNKNOWN_VALIDATOR_ROLE","inputs":[],"outputs":[{"name":"","type":"bytes32","internalType":"bytes32"}],"stateMutability":"view"},{"type":"function","name":"NODE_OPERATOR_UNGUARANTEED_DEPOSIT_ROLE","inputs":[],"outputs":[{"name":"","type":"bytes32","internalType":"bytes32"}],"stateMutability":"view"},{"type":"function","name":"PAUSE_BEACON_CHAIN_DEPOSITS_ROLE","inputs":[],"outputs":[{"name":"","type":"bytes32","internalType":"bytes32"}],"stateMutability":"view"},{"type":"function","name":"REBALANCE_ROLE","inputs":[],"outputs":[{"name":"","type":"bytes32","internalType":"bytes32"}],"stateMutability":"view"},{"type":"function","name":"REQUEST_VALIDATOR_EXIT_ROLE","inputs":[],"outputs":[{"name":"","type":"bytes32","internalType":"bytes32"}],"stateMutability":"view"},{"type":"function","name":"RESUME_BEACON_CHAIN_DEPOSITS_ROLE","inputs":[],"outputs":[{"name":"","type":"bytes32","internalType":"bytes32"}],"stateMutability":"view"},{"type":"function","name":"STETH","inputs":[],"outputs":[{"name":"","type":"address","internalType":"contract ILido"}],"stateMutability":"view"},{"type":"function","name":"TRIGGER_VALIDATOR_WITHDRAWAL_ROLE","inputs":[],"outputs":[{"name":"","type":"bytes32","internalType":"bytes32"}],"stateMutability":"view"},{"type":"function","name":"VAULT_CONFIGURATION_ROLE","inputs":[],"outputs":[{"name":"","type":"bytes32","internalType":"bytes32"}],"stateMutability":"view"},{"type":"function","name":"VAULT_HUB","inputs":[],"outputs":[{"name":"","type":"address","internalType":"contract VaultHub"}],"stateMutability":"view"},{"type":"function","name":"VOLUNTARY_DISCONNECT_ROLE","inputs":[],"outputs":[{"name":"","type":"bytes32","internalType":"bytes32"}],"stateMutability":"view"},{"type":"function","name":"WITHDRAW_ROLE","inputs":[],"outputs":[{"name":"","type":"bytes32","internalType":"bytes32"}],"stateMutability":"view"},{"type":"function","name":"WSTETH","inputs":[],"outputs":[{"name":"","type":"address","internalType":"contract IWstETH"}],"stateMutability":"view"},{"type":"function","name":"abandonDashboard","inputs":[{"name":"_newOwner","type":"address","internalType":"address"}],"outputs":[],"stateMutability":"nonpayable"},{"type":"function","name":"accruedFee","inputs":[],"outputs":[{"name":"fee","type":"uint256","internalType":"uint256"}],"stateMutability":"view"},{"type":"function","name":"addFeeExemption","inputs":[{"name":"_exemptedAmount","type":"uint256","internalType":"uint256"}],"outputs":[],"stateMutability":"nonpayable"},{"type":"function","name":"burnShares","inputs":[{"name":"_amountOfShares","type":"uint256","internalType":"uint256"}],"outputs":[],"stateMutability":"nonpayable"},{"type":"function","name":"burnStETH","inputs":[{"name":"_amountOfStETH","type":"uint256","internalType":"uint256"}],"outputs":[],"stateMutability":"nonpayable"},{"type":"function","name":"burnWstETH","inputs":[{"name":"_amountOfWstETH","type":"uint256","internalType":"uint256"}],"outputs":[],"stateMutability":"nonpayable"},{"type":"function","name":"changeTier","inputs":[{"name":"_tierId","type":"uint256","internalType":"uint256"},{"name":"_requestedShareLimit","type":"uint256","internalType":"uint256"}],"outputs":[{"name":"","type":"bool","internalType":"bool"}],"stateMutability":"nonpayable"},{"type":"function","name":"collectERC20FromVault","inputs":[{"name":"_token","type":"address","internalType":"address"},{"name":"_recipient","type":"address","internalType":"address"},{"name":"_amount","type":"uint256","internalType":"uint256"}],"outputs":[],"stateMutability":"nonpayable"},{"type":"function","name":"confirmation","inputs":[{"name":"_callData","type":"bytes","internalType":"bytes"},{"name":"_role","type":"bytes32","internalType":"bytes32"}],"outputs":[{"name":"","type":"uint256","internalType":"uint256"}],"stateMutability":"view"},{"type":"function","name":"confirmingRoles","inputs":[],"outputs":[{"name":"roles","type":"bytes32[]","internalType":"bytes32[]"}],"stateMutability":"pure"},{"type":"function","name":"connectAndAcceptTier","inputs":[{"name":"_tierId","type":"uint256","internalType":"uint256"},{"name":"_requestedShareLimit","type":"uint256","internalType":"uint256"}],"outputs":[],"stateMutability":"payable"},{"type":"function","name":"connectToVaultHub","inputs":[],"outputs":[],"stateMutability":"payable"},{"type":"function","name":"correctSettledGrowth","inputs":[{"name":"_newSettledGrowth","type":"int256","internalType":"int256"},{"name":"_expectedSettledGrowth","type":"int256","internalType":"int256"}],"outputs":[{"name":"","type":"bool","internalType":"bool"}],"stateMutability":"nonpayable"},{"type":"function","name":"disburseFee","inputs":[],"outputs":[],"stateMutability":"nonpayable"},{"type":"function","name":"feeRate","inputs":[],"outputs":[{"name":"","type":"uint16","internalType":"uint16"}],"stateMutability":"view"},{"type":"function","name":"feeRecipient","inputs":[],"outputs":[{"name":"","type":"address","internalType":"address"}],"stateMutability":"view"},{"type":"function","name":"fund","inputs":[],"outputs":[],"stateMutability":"payable"},{"type":"function","name":"getConfirmExpiry","inputs":[],"outputs":[{"name":"","type":"uint256","internalType":"uint256"}],"stateMutability":"view"},{"type":"function","name":"getRoleAdmin","inputs":[{"name":"role","type":"bytes32","internalType":"bytes32"}],"outputs":[{"name":"","type":"bytes32","internalType":"bytes32"}],"stateMutability":"view"},{"type":"function","name":"getRoleMember","inputs":[{"name":"role","type":"bytes32","internalType":"bytes32"},{"name":"index","type":"uint256","internalType":"uint256"}],"outputs":[{"name":"","type":"address","internalType":"address"}],"stateMutability":"view"},{"type":"function","name":"getRoleMemberCount","inputs":[{"name":"role","type":"bytes32","internalType":"bytes32"}],"outputs":[{"name":"","type":"uint256","internalType":"uint256"}],"stateMutability":"view"},{"type":"function","name":"getRoleMembers","inputs":[{"name":"role","type":"bytes32","internalType":"bytes32"}],"outputs":[{"name":"","type":"address[]","internalType":"address[]"}],"stateMutability":"view"},{"type":"function","name":"grantRole","inputs":[{"name":"role","type":"bytes32","internalType":"bytes32"},{"name":"account","type":"address","internalType":"address"}],"outputs":[],"stateMutability":"nonpayable"},{"type":"function","name":"grantRoles","inputs":[{"name":"_assignments","type":"tuple[]","internalType":"struct Permissions.RoleAssignment[]","components":[{"name":"account","type":"address","internalType":"address"},{"name":"role","type":"bytes32","internalType":"bytes32"}]}],"outputs":[],"stateMutability":"nonpayable"},{"type":"function","name":"hasRole","inputs":[{"name":"role","type":"bytes32","internalType":"bytes32"},{"name":"account","type":"address","internalType":"address"}],"outputs":[{"name":"","type":"bool","internalType":"bool"}],"stateMutability":"view"},{"type":"function","name":"healthShortfallShares","inputs":[],"outputs":[{"name":"","type":"uint256","internalType":"uint256"}],"stateMutability":"view"},{"type":"function","name":"initialize","inputs":[{"name":"_defaultAdmin","type":"address","internalType":"address"},{"name":"_nodeOperatorManager","type":"address","internalType":"address"},{"name":"_nodeOperatorFeeRecipient","type":"address","internalType":"address"},{"name":"_nodeOperatorFeeBP","type":"uint256","internalType":"uint256"},{"name":"_confirmExpiry","type":"uint256","internalType":"uint256"}],"outputs":[],"stateMutability":"nonpayable"},{"type":"function","name":"initialized","inputs":[],"outputs":[{"name":"","type":"bool","internalType":"bool"}],"stateMutability":"view"},{"type":"function","name":"isApprovedToConnect","inputs":[],"outputs":[{"name":"","type":"bool","internalType":"bool"}],"stateMutability":"view"},{"type":"function","name":"latestCorrectionTimestamp","inputs":[],"outputs":[{"name":"","type":"uint64","internalType":"uint64"}],"stateMutability":"view"},{"type":"function","name":"latestReport","inputs":[],"outputs":[{"name":"","type":"tuple","internalType":"struct VaultHub.Report","components":[{"name":"totalValue","type":"uint104","internalType":"uint104"},{"name":"inOutDelta","type":"int104","internalType":"int104"},{"name":"timestamp","type":"uint48","internalType":"uint48"}]}],"stateMutability":"view"},{"type":"function","name":"liabilityShares","inputs":[],"outputs":[{"name":"","type":"uint256","internalType":"uint256"}],"stateMutability":"view"},{"type":"function","name":"locked","inputs":[],"outputs":[{"name":"","type":"uint256","internalType":"uint256"}],"stateMutability":"view"},{"type":"function","name":"maxLockableValue","inputs":[],"outputs":[{"name":"","type":"uint256","internalType":"uint256"}],"stateMutability":"view"},{"type":"function","name":"minimalReserve","inputs":[],"outputs":[{"name":"","type":"uint256","internalType":"uint256"}],"stateMutability":"view"},{"type":"function","name":"mintShares","inputs":[{"name":"_recipient","type":"address","internalType":"address"},{"name":"_amountOfShares","type":"uint256","internalType":"uint256"}],"outputs":[],"stateMutability":"payable"},{"type":"function","name":"mintStETH","inputs":[{"name":"_recipient","type":"address","internalType":"address"},{"name":"_amountOfStETH","type":"uint256","internalType":"uint256"}],"outputs":[],"stateMutability":"payable"},{"type":"function","name":"mintWstETH","inputs":[{"name":"_recipient","type":"address","internalType":"address"},{"name":"_amountOfWstETH","type":"uint256","internalType":"uint256"}],"outputs":[],"stateMutability":"payable"},{"type":"function","name":"obligations","inputs":[],"outputs":[{"name":"sharesToBurn","type":"uint256","internalType":"uint256"},{"name":"feesToSettle","type":"uint256","internalType":"uint256"}],"stateMutability":"view"},{"type":"function","name":"obligationsShortfallValue","inputs":[],"outputs":[{"name":"","type":"uint256","internalType":"uint256"}],"stateMutability":"view"},{"type":"function","name":"pauseBeaconChainDeposits","inputs":[],"outputs":[],"stateMutability":"nonpayable"},{"type":"function","name":"pdgPolicy","inputs":[],"outputs":[{"name":"","type":"uint8","internalType":"enum Dashboard.PDGPolicy"}],"stateMutability":"view"},{"type":"function","name":"proveUnknownValidatorsToPDG","inputs":[{"name":"_witnesses","type":"tuple[]","internalType":"struct IPredepositGuarantee.ValidatorWitness[]","components":[{"name":"proof","type":"bytes32[]","internalType":"bytes32[]"},{"name":"pubkey","type":"bytes","internalType":"bytes"},{"name":"validatorIndex","type":"uint256","internalType":"uint256"},{"name":"childBlockTimestamp","type":"uint64","internalType":"uint64"},{"name":"slot","type":"uint64","internalType":"uint64"},{"name":"proposerIndex","type":"uint64","internalType":"uint64"}]}],"outputs":[],"stateMutability":"nonpayable"},{"type":"function","name":"rebalanceVaultWithEther","inputs":[{"name":"_ether","type":"uint256","internalType":"uint256"}],"outputs":[],"stateMutability":"payable"},{"type":"function","name":"rebalanceVaultWithShares","inputs":[{"name":"_shares","type":"uint256","internalType":"uint256"}],"outputs":[],"stateMutability":"nonpayable"},{"type":"function","name":"reconnectToVaultHub","inputs":[],"outputs":[],"stateMutability":"nonpayable"},{"type":"function","name":"recoverERC20","inputs":[{"name":"_token","type":"address","internalType":"address"},{"name":"_recipient","type":"address","internalType":"address"},{"name":"_amount","type":"uint256","internalType":"uint256"}],"outputs":[],"stateMutability":"nonpayable"},{"type":"function","name":"remainingMintingCapacityShares","inputs":[{"name":"_etherToFund","type":"uint256","internalType":"uint256"}],"outputs":[{"name":"","type":"uint256","internalType":"uint256"}],"stateMutability":"view"},{"type":"function","name":"renounceRole","inputs":[{"name":"role","type":"bytes32","internalType":"bytes32"},{"name":"callerConfirmation","type":"address","internalType":"address"}],"outputs":[],"stateMutability":"nonpayable"},{"type":"function","name":"requestValidatorExit","inputs":[{"name":"_pubkeys","type":"bytes","internalType":"bytes"}],"outputs":[],"stateMutability":"nonpayable"},{"type":"function","name":"resumeBeaconChainDeposits","inputs":[],"outputs":[],"stateMutability":"nonpayable"},{"type":"function","name":"revokeRole","inputs":[{"name":"role","type":"bytes32","internalType":"bytes32"},{"name":"account","type":"address","internalType":"address"}],"outputs":[],"stateMutability":"nonpayable"},{"type":"function","name":"revokeRoles","inputs":[{"name":"_assignments","type":"tuple[]","internalType":"struct Permissions.RoleAssignment[]","components":[{"name":"account","type":"address","internalType":"address"},{"name":"role","type":"bytes32","internalType":"bytes32"}]}],"outputs":[],"stateMutability":"nonpayable"},{"type":"function","name":"setApprovedToConnect","inputs":[{"name":"_isApproved","type":"bool","internalType":"bool"}],"outputs":[],"stateMutability":"nonpayable"},{"type":"function","name":"setConfirmExpiry","inputs":[{"name":"_newConfirmExpiry","type":"uint256","internalType":"uint256"}],"outputs":[{"name":"","type":"bool","internalType":"bool"}],"stateMutability":"nonpayable"},{"type":"function","name":"setFeeRate","inputs":[{"name":"_newFeeRate","type":"uint256","internalType":"uint256"}],"outputs":[{"name":"","type":"bool","internalType":"bool"}],"stateMutability":"nonpayable"},{"type":"function","name":"setFeeRecipient","inputs":[{"name":"_newFeeRecipient","type":"address","internalType":"address"}],"outputs":[],"stateMutability":"nonpayable"},{"type":"function","name":"setPDGPolicy","inputs":[{"name":"_pdgPolicy","type":"uint8","internalType":"enum Dashboard.PDGPolicy"}],"outputs":[],"stateMutability":"nonpayable"},{"type":"function","name":"settledGrowth","inputs":[],"outputs":[{"name":"","type":"int128","internalType":"int128"}],"stateMutability":"view"},{"type":"function","name":"stakingVault","inputs":[],"outputs":[{"name":"","type":"address","internalType":"contract IStakingVault"}],"stateMutability":"view"},{"type":"function","name":"supportsInterface","inputs":[{"name":"interfaceId","type":"bytes4","internalType":"bytes4"}],"outputs":[{"name":"","type":"bool","internalType":"bool"}],"stateMutability":"view"},{"type":"function","name":"syncTier","inputs":[],"outputs":[{"name":"","type":"bool","internalType":"bool"}],"stateMutability":"nonpayable"},{"type":"function","name":"totalMintingCapacityShares","inputs":[],"outputs":[{"name":"","type":"uint256","internalType":"uint256"}],"stateMutability":"view"},{"type":"function","name":"totalValue","inputs":[],"outputs":[{"name":"","type":"uint256","internalType":"uint256"}],"stateMutability":"view"},{"type":"function","name":"transferVaultOwnership","inputs":[{"name":"_newOwner","type":"address","internalType":"address"}],"outputs":[],"stateMutability":"nonpayable"},{"type":"function","name":"triggerValidatorWithdrawals","inputs":[{"name":"_pubkeys","type":"bytes","internalType":"bytes"},{"name":"_amountsInGwei","type":"uint64[]","internalType":"uint64[]"},{"name":"_refundRecipient","type":"address","internalType":"address"}],"outputs":[],"stateMutability":"payable"},{"type":"function","name":"unguaranteedDepositToBeaconChain","inputs":[{"name":"_deposits","type":"tuple[]","internalType":"struct IStakingVault.Deposit[]","components":[{"name":"pubkey","type":"bytes","internalType":"bytes"},{"name":"signature","type":"bytes","internalType":"bytes"},{"name":"amount","type":"uint256","internalType":"uint256"},{"name":"depositDataRoot","type":"bytes32","internalType":"bytes32"}]}],"outputs":[{"name":"totalAmount","type":"uint256","internalType":"uint256"}],"stateMutability":"nonpayable"},{"type":"function","name":"updateShareLimit","inputs":[{"name":"_requestedShareLimit","type":"uint256","internalType":"uint256"}],"outputs":[{"name":"","type":"bool","internalType":"bool"}],"stateMutability":"nonpayable"},{"type":"function","name":"vaultConnection","inputs":[],"outputs":[{"name":"","type":"tuple","internalType":"struct VaultHub.VaultConnection","components":[{"name":"owner","type":"address","internalType":"address"},{"name":"shareLimit","type":"uint96","internalType":"uint96"},{"name":"vaultIndex","type":"uint96","internalType":"uint96"},{"name":"disconnectInitiatedTs","type":"uint48","internalType":"uint48"},{"name":"reserveRatioBP","type":"uint16","internalType":"uint16"},{"name":"forcedRebalanceThresholdBP","type":"uint16","internalType":"uint16"},{"name":"infraFeeBP","type":"uint16","internalType":"uint16"},{"name":"liquidityFeeBP","type":"uint16","internalType":"uint16"},{"name":"reservationFeeBP","type":"uint16","internalType":"uint16"},{"name":"beaconChainDepositsPauseIntent","type":"bool","internalType":"bool"}]}],"stateMutability":"view"},{"type":"function","name":"voluntaryDisconnect","inputs":[],"outputs":[],"stateMutability":"nonpayable"},{"type":"function","name":"withdraw","inputs":[{"name":"_recipient","type":"address","internalType":"address"},{"name":"_ether","type":"uint256","internalType":"uint256"}],"outputs":[],"stateMutability":"nonpayable"},{"type":"function","name":"withdrawableValue","inputs":[],"outputs":[{"name":"","type":"uint256","internalType":"uint256"}],"stateMutability":"view"},{"type":"event","name":"ApprovedToConnectSet","inputs":[{"name":"isApproved","type":"bool","indexed":false,"internalType":"bool"}],"anonymous":false},{"type":"event","name":"AssetsRecovered","inputs":[{"name":"to","type":"address","indexed":true,"internalType":"address"},{"name":"assetAddress","type":"address","indexed":true,"internalType":"address"},{"name":"amount","type":"uint256","indexed":false,"internalType":"uint256"}],"anonymous":false},{"type":"event","name":"ConfirmExpirySet","inputs":[{"name":"sender","type":"address","indexed":true,"internalType":"address"},{"name":"oldConfirmExpiry","type":"uint256","indexed":false,"internalType":"uint256"},{"name":"newConfirmExpiry","type":"uint256","indexed":false,"internalType":"uint256"}],"anonymous":false},{"type":"event","name":"CorrectionTimestampUpdated","inputs":[{"name":"timestamp","type":"uint64","indexed":false,"internalType":"uint64"}],"anonymous":false},{"type":"event","name":"FeeDisbursed","inputs":[{"name":"sender","type":"address","indexed":true,"internalType":"address"},{"name":"fee","type":"uint256","indexed":false,"internalType":"uint256"}],"anonymous":false},{"type":"event","name":"FeeRateSet","inputs":[{"name":"sender","type":"address","indexed":true,"internalType":"address"},{"name":"oldFeeRate","type":"uint64","indexed":false,"internalType":"uint64"},{"name":"newFeeRate","type":"uint64","indexed":false,"internalType":"uint64"}],"anonymous":false},{"type":"event","name":"FeeRecipientSet","inputs":[{"name":"sender","type":"address","indexed":true,"internalType":"address"},{"name":"oldFeeRecipient","type":"address","indexed":false,"internalType":"address"},{"name":"newFeeRecipient","type":"address","indexed":false,"internalType":"address"}],"anonymous":false},{"type":"event","name":"Initialized","inputs":[],"anonymous":false},{"type":"event","name":"PDGPolicyEnacted","inputs":[{"name":"pdgPolicy","type":"uint8","indexed":false,"internalType":"enum Dashboard.PDGPolicy"}],"anonymous":false},{"type":"event","name":"RoleAdminChanged","inputs":[{"name":"role","type":"bytes32","indexed":true,"internalType":"bytes32"},{"name":"previousAdminRole","type":"bytes32","indexed":true,"internalType":"bytes32"},{"name":"newAdminRole","type":"bytes32","indexed":true,"internalType":"bytes32"}],"anonymous":false},{"type":"event","name":"RoleGranted","inputs":[{"name":"role","type":"bytes32","indexed":true,"internalType":"bytes32"},{"name":"account","type":"address","indexed":true,"internalType":"address"},{"name":"sender","type":"address","indexed":true,"internalType":"address"}],"anonymous":false},{"type":"event","name":"RoleMemberConfirmed","inputs":[{"name":"member","type":"address","indexed":true,"internalType":"address"},{"name":"role","type":"bytes32","indexed":true,"internalType":"bytes32"},{"name":"confirmTimestamp","type":"uint256","indexed":false,"internalType":"uint256"},{"name":"expiryTimestamp","type":"uint256","indexed":false,"internalType":"uint256"},{"name":"data","type":"bytes","indexed":false,"internalType":"bytes"}],"anonymous":false},{"type":"event","name":"RoleRevoked","inputs":[{"name":"role","type":"bytes32","indexed":true,"internalType":"bytes32"},{"name":"account","type":"address","indexed":true,"internalType":"address"},{"name":"sender","type":"address","indexed":true,"internalType":"address"}],"anonymous":false},{"type":"event","name":"SettledGrowthSet","inputs":[{"name":"oldSettledGrowth","type":"int128","indexed":false,"internalType":"int128"},{"name":"newSettledGrowth","type":"int128","indexed":false,"internalType":"int128"}],"anonymous":false},{"type":"event","name":"UnguaranteedDeposits","inputs":[{"name":"stakingVault","type":"address","indexed":true,"internalType":"address"},{"name":"deposits","type":"uint256","indexed":false,"internalType":"uint256"},{"name":"totalAmount","type":"uint256","indexed":false,"internalType":"uint256"}],"anonymous":false},{"type":"error","name":"AccessControlBadConfirmation","inputs":[]},{"type":"error","name":"AccessControlUnauthorizedAccount","inputs":[{"name":"account","type":"address","internalType":"address"},{"name":"neededRole","type":"bytes32","internalType":"bytes32"}]},{"type":"error","name":"AlreadyInitialized","inputs":[]},{"type":"error","name":"ConfirmExpiryOutOfBounds","inputs":[]},{"type":"error","name":"ConnectedToVaultHub","inputs":[]},{"type":"error","name":"CorrectionAfterReport","inputs":[]},{"type":"error","name":"DashboardNotAllowed","inputs":[]},{"type":"error","name":"EthTransferFailed","inputs":[{"name":"recipient","type":"address","internalType":"address"},{"name":"amount","type":"uint256","internalType":"uint256"}]},{"type":"error","name":"ExceedsMintingCapacity","inputs":[{"name":"requestedShares","type":"uint256","internalType":"uint256"},{"name":"remainingShares","type":"uint256","internalType":"uint256"}]},{"type":"error","name":"ExceedsWithdrawable","inputs":[{"name":"amount","type":"uint256","internalType":"uint256"},{"name":"withdrawableValue","type":"uint256","internalType":"uint256"}]},{"type":"error","name":"FeeValueExceed100Percent","inputs":[]},{"type":"error","name":"ForbiddenByPDGPolicy","inputs":[]},{"type":"error","name":"ForbiddenToConnectByNodeOperator","inputs":[]},{"type":"error","name":"NonProxyCallsForbidden","inputs":[]},{"type":"error","name":"PDGPolicyAlreadyActive","inputs":[]},{"type":"error","name":"ReportStale","inputs":[]},{"type":"error","name":"SafeCastOverflowedIntDowncast","inputs":[{"name":"bits","type":"uint8","internalType":"uint8"},{"name":"value","type":"int256","internalType":"int256"}]},{"type":"error","name":"SafeCastOverflowedUintDowncast","inputs":[{"name":"bits","type":"uint8","internalType":"uint8"},{"name":"value","type":"uint256","internalType":"uint256"}]},{"type":"error","name":"SafeERC20FailedOperation","inputs":[{"name":"token","type":"address","internalType":"address"}]},{"type":"error","name":"SameRecipient","inputs":[]},{"type":"error","name":"SameSettledGrowth","inputs":[]},{"type":"error","name":"SenderNotMember","inputs":[]},{"type":"error","name":"TierChangeNotConfirmed","inputs":[]},{"type":"error","name":"UnexpectedFeeExemptionAmount","inputs":[]},{"type":"error","name":"UnexpectedSettledGrowth","inputs":[]},{"type":"error","name":"VaultQuarantined","inputs":[]},{"type":"error","name":"ZeroAddress","inputs":[]},{"type":"error","name":"ZeroArgument","inputs":[]},{"type":"error","name":"ZeroConfirmingRoles","inputs":[]}],"bytecode":{"object":"0x6101203461027357601f61624838819003918201601f19168301916001600160401b0383118484101761027757808492608094604052833981010312610273576100488161028b565b6100546020830161028b565b9161006d60606100666040840161028b565b920161028b565b917fe4ca011a1344eb515c922209bf867930fc05bf79f4b0e3bb4ec9938eedd477018054906201518080915560405191825260208201527f437dc1a3e26abf0b8381463abca48d1e7d322e803c2b160d3ee75c04a492a18260403392a26100d38261029f565b6100dc8361029f565b306080526001600160a01b0391821660a05291811660c0526003805460ff60c81b1916905590819061010d8161029f565b6101168461029f565b1660e05261010091168152604051615f8691826102c2833960805182612595015260a051828181611091015281816111b20152818161148c0152818161199801528181611b2a01528181611f80015281816120d50152818161226901528181612b0401528181612c31015281816132dd015281816135a70152818161381701528181613a0001528181613b1d01528181613e2e01528181613fcd015281816142e10152818161443001528181614510015281816145c301528181614a9101528181614b3d01528181615037015281816152f70152818161536d01528181615562015281816155df0152818161565a015281816157650152615a9c015260c051828181612eac01528181614d7e01526157f7015260e0518281816114d301528181611fc20152818161268701528181612ef0015281816136660152614e9b0152518181816114110152818161264201528181612e68015261369f0152f35b5f80fd5b634e487b7160e01b5f52604160045260245ffd5b51906001600160a01b038216820361027357565b6001600160a01b0316156102af57565b60405163d92e233d60e01b8152600490fdfe60806040526004361015610022575b3615610018575f80fd5b610020614186565b005b5f3560e01c806301ffc9a714610621578063032d9b301461061c578063068f7801146106175780630a300c84146106125780630a4a3ed21461060d5780630b91990d146106085780630bff8881146106035780630c7c9246146105fe5780630e5f5dbd146105f957806310741552146105f45780631171bda9146105ef57806313e40efb146105ea578063158ef93e146105e5578063196b9e06146105e05780631f02bb95146105db578063248a9ca3146105d657806324e7964a146105d15780632959843a146105cc5780632ae87c3e146105c75780632c0772b4146105c25780632f208945146105bd5780632f2ff15d146105b85780633046bf47146105b357806332cd7ebf146105ae57806335763d2b146105a957806336568abe146105a45780633a04d4f31461059f5780633e619a6c1461059a5780633efd85971461059557806343c710571461059057806345596e2e1461058b57806346904840146105865780634bc368401461058157806350d99dd41461057c578063520107ad146105775780635251ebf914610572578063528c198a1461056d57806356275a35146105685780635680e145146105635780635bc713631461055e578063634bd91a14610559578063699d79bd1461055457806369f949a11461054f5780636ab158361461054a5780636af6eeed146105455780636ba1cf19146105405780636d4755661461053b57806370b24b6914610536578063722adad2146105315780637b108d921461052c57806382a8ed0214610527578063845d0a3a14610522578063853c637d1461051d578063875c0b6914610518578063888dbb5b146105135780638c5d3e341461050e5780639010d07c146105095780639050b5601461050457806391d14854146104ff57806395631105146104fa578063978bbdb9146104f55780639c9708a9146104f0578063a217fddf146104eb578063a3246ad3146104e6578063a6218709146104e1578063a69f3e0c146104dc578063a6b63eb8146104d7578063b39f16f4146104d2578063b5aabd7a146104cd578063b60d4288146104c8578063b930908f146104c3578063ba75b623146104be578063bc95a684146104b9578063bddf300c146104b4578063ca15c873146104af578063ca8317af146104aa578063cc91d226146104a5578063cdfdbcd2146104a0578063ce477e0c1461049b578063cf30901214610496578063d4c3eea014610491578063d547741f1461048c578063d9fb643a14610487578063dbba4b4814610482578063e00bfe501461047d578063e02023a114610478578063e071c0ca14610473578063e6c772d41461046e578063e74b981b14610469578063e9897da814610464578063e9a9c8501461045f578063f3fef3a31461045a578063f55f7b7814610455578063f634dcbd14610450578063f6c763181461044b5763ff108ccb0361000e576132a3565b613287565b61321d565b6131e3565b61310c565b6130d2565b6130ab565b61301b565b612f7e565b612f59565b612f1f565b612edb565b612e97565b612e53565b612e19565b612dc3565b612d6d565b612cdd565b612bb5565b612b7b565b612a68565b612998565b612903565b61287a565b612862565b612828565b6127bd565b612798565b6126f0565b61253d565b612503565b6124cd565b61245a565b6123fc565b6123e9565b6123c5565b612330565b6122df565b61220f565b6121ca565b6121a9565b612181565b61207f565b611f4d565b611f12565b611ef2565b611e96565b611e13565b611d9d565b611d63565b611d0d565b611cc3565b611c89565b611c4f565b611c15565b611bee565b611bc7565b611b8d565b611ad0565b611a39565b61192e565b61186d565b6117d6565b6117bc565b611790565b611772565b611738565b61171a565b611683565b61165c565b611611565b611593565b6113ef565b611356565b611317565b61127e565b611244565b611160565b611146565b611117565b6110eb565b6110c0565b61107c565b61105a565b610f5f565b610dda565b610cc6565b610c76565b610c50565b610c33565b610bf7565b610961565b6108da565b610825565b61077e565b346106915760203660031901126106915760043563ffffffff60e01b811680910361069157602090635a05180f60e01b8114908115610666575b506040519015158152f35b637965db0b60e01b811491508115610680575b505f61065b565b6301ffc9a760e01b1490505f610679565b5f80fd5b634e487b7160e01b5f52604160045260245ffd5b6001600160401b0381116106bc57604052565b610695565b61014081019081106001600160401b038211176106bc57604052565b606081019081106001600160401b038211176106bc57604052565b604081019081106001600160401b038211176106bc57604052565b90601f801991011681019081106001600160401b038211176106bc57604052565b6040519061010082018281106001600160401b038211176106bc57604052565b60405190610761826106c1565b565b6001600160401b0381116106bc57601f01601f191660200190565b34610691576040366003190112610691576004356001600160401b0381116106915736602382011215610691578060040135906107ba82610763565b6107c76040519182610713565b8281523660248484010111610691575f602084610817956024610806960183860137830101526107f96024359161331d565b905f5260205260405f2090565b546040519081529081906020820190565b0390f35b5f91031261069157565b34610691575f36600319011261069157335f9081527fcb7e4fbe78e9a13afb63939cc0c9427aaf60e563609ce65c077053f327219a3660205260409020545f80516020615eb18339815191529060ff1680156108bc575b1561089e5761081761088c6141fd565b60405190151581529081906020820190565b6044906040519063e2517d3f60e01b82523360048301526024820152fd5b50805f525f6020526108d533600160405f200154613dea565b61087c565b34610691575f3660031901126106915760206001600160401b0360035460801c16604051908152f35b9181601f84011215610691578235916001600160401b038311610691576020808501948460051b01011161069157565b602060031982011261069157600435906001600160401b0382116106915761095d91600401610903565b9091565b346106915761096f36610933565b5f90600261098360035460ff9060c81c1690565b61098c81612164565b03610be5576020906109be6109b2836109a43061582c565b01516001600160a01b031690565b6001600160a01b031690565b6040928351636b96736b60e01b815260048282600481875afa918215610b42575f92610bb6575b505f5b88868210610b945750506109fa613575565b808811610b745750610a0a614264565b610a1387614277565b610a1b614387565b610a2487614399565b855163266bcf0560e11b81528381600481885afa8015610b4257610a4f915f91610b47575b506133e9565b5f5b868110610aab578751878152602081018a9052610817908a908a906001600160a01b038a16907f7ca089edbf098275c3dd9807ef0d5e5f7a4c4ed5a4ed4b865def78c7260f6b7f90604090a2519081529081906020820190565b610ab681888c613392565b6001600160a01b0385169190610acc8180613400565b91610ad989820182613400565b939095803b15610691578d8894610b0c8b5f9884519b8c998a9889966304512a2360e31b885260608c0135958801613452565b03930135905af1918215610b4257600192610b29575b5001610a51565b80610b36610b3c926106a9565b8061081b565b5f610b22565b613373565b610b679150853d8711610b6d575b610b5f8183610713565b8101906133da565b5f610a49565b503d610b55565b8651633cbb525b60e21b8152600481018990526024810191909152604490fd5b819888610ba76001948a610baf95613392565b0135906133cd565b97016109e8565b610bd7919250833d8511610bde575b610bcf8183610713565b81019061335b565b905f6109e5565b503d610bc5565b60405163218d441f60e01b8152600490fd5b34610691575f3660031901126106915760207fe4ca011a1344eb515c922209bf867930fc05bf79f4b0e3bb4ec9938eedd4770154604051908152f35b34610691575f36600319011261069157602060405162278d008152f35b34610691576020366003190112610691576020610c6e600435613505565b604051908152f35b34610691575f366003190112610691576020610c9061449a565b50604051908152f35b9181601f84011215610691578235916001600160401b038311610691576020838186019501011161069157565b34610691576020366003190112610691576004356001600160401b03811161069157610cf6903690600401610c99565b335f9081527fb263cec6d0d87327feaa8f63140311e533b781670aff412d50297f0882a7530460205260409020547f32d0d6546e21c13ff633616141dc9daad87d248d1d37c56bf493d06d627ecb7b929060ff168015610d7f575b15610d60576100209250614506565b60405163e2517d3f60e01b815233600482015260248101849052604490fd5b50825f525f602052610d9833600160405f200154613dea565b610d51565b6001600160a01b0381160361069157565b606090600319011261069157600435610dc681610d9d565b90602435610dd381610d9d565b9060443590565b3461069157610de836610dae565b335f9081525f80516020615f118339815191526020526040908190205460ff168015610f42575b15610f2657610e1d8461457a565b610e268361457a565b610e2f8261459c565b73eeeeeeeeeeeeeeeeeeeeeeeeeeeeeeeeeeeeeeee936001600160a01b03908116858103610eea57508316925f80808086885af13d15610ee5573d610e7381610763565b90610e8085519283610713565b81525f60203d92013e5b15610ebc5750519081527fe1291d91902fd7567635faf3a3eda473723adf139be9821468bcc74e075b366a90602090a3005b9051636f54afdd60e11b81526001600160a01b0390911660048201526024810191909152604490fd5b610e8a565b945083602092610f1d857fe1291d91902fd7567635faf3a3eda473723adf139be9821468bcc74e075b366a969789614c78565b519485521692a3005b5163e2517d3f60e01b81523360048201525f6024820152604490fd5b505f80525f602052610f5a336001835f200154613dea565b610e0f565b6060366003190112610691576001600160401b0360043581811161069157610f8b903690600401610c99565b909160243590811161069157610fa5903690600401610903565b9060443592610fb384610d9d565b335f9081527f894c422fd63ef7348a50b435343ac685160997c7193187427501d7dfbbf7b59760205260409020547fea19d3b23bd90fdd52445ad672f2b6fb1fef7230d49c6a827c1cd288d02994d5959060ff16801561103c575b1561101d5761002095506145b7565b60405163e2517d3f60e01b815233600482015260248101879052604490fd5b50855f525f60205261105533600160405f200154613dea565b61100e565b34610691575f36600319011261069157602060ff600254166040519015158152f35b34610691575f366003190112610691576040517f00000000000000000000000000000000000000000000000000000000000000006001600160a01b03168152602090f35b346106915760403660031901126106915760206110e160243560043561352e565b6040519015158152f35b34610691576020366003190112610691576004355f525f6020526020600160405f200154604051908152f35b34610691575f3660031901126106915760206001600160a01b038161113b3061582c565b015116604051908152f35b34610691575f366003190112610691576020610c6e613575565b34610691575f366003190112610691576111ae60206111856109b2826109a43061582c565b604051632de0e07560e01b81526001600160a01b03909116600482015291829081906024820190565b03817f00000000000000000000000000000000000000000000000000000000000000006001600160a01b03165afa908115610b42575f91611225575b506111f361449a565b50908181111561121a576108179161120a916134ad565b6040519081529081906020820190565b50506108175f61120a565b61123e915060203d602011610b6d57610b5f8183610713565b5f6111ea565b34610691575f3660031901126106915760206040517fa90c7030a27f389f9fc8ed21a0556f40c88130cc14a80db936bed68261819b2c8152f35b3461069157602036600319011261069157335f9081527f2ba55c36a448efc3c765ff9b6e63a6e71395a5861d5a840bc77ab98c5504aaa460205260409020547fcceeef0309e9a678ed7f11f20499aeb00a9a4b0d50e53daa428f8591debc583a9060ff1680156112f9575b1561089e57610020600435614399565b50805f525f60205261131233600160405f200154613dea565b6112e9565b346106915760403660031901126106915761002060243560043561133a82610d9d565b805f525f602052611351600160405f2001546149b0565b614a51565b3461069157602036600319011261069157335f9081527fe23a8bac6ee120cc0f31e97b679e63d8a06b6b0f7ec6a1eaa96912d2415af2e060205260409020547f3f82ecf462ddac43fc17ba11472c35f18b7760b4f5a5fc50b9625f9b5a22cf629060ff1680156113d1575b1561089e57610020600435614a87565b50805f525f6020526113ea33600160405f200154613dea565b6113c1565b3461069157602080600319360112610691576001600160a01b03905f816114627f00000000000000000000000000000000000000000000000000000000000000008516600435611441813033856159cb565b604051948580948193636f074d1f60e11b8352600483019190602083019252565b03925af18015610b425761147d915f9161152a575b50614e7e565b604051638fcb4e5b60e01b81527f000000000000000000000000000000000000000000000000000000000000000084166001600160a01b0316600482015260248101829052929091908190849060449082905f907f0000000000000000000000000000000000000000000000000000000000000000165af1928315610b42576100209361150c575b5050615266565b8161152292903d10610b6d57610b5f8183610713565b505f80611505565b6115419150833d8511610b6d57610b5f8183610713565b5f611477565b906020600319830112610691576004356001600160401b039283821161069157806023830112156106915781600401359384116106915760248460061b83010111610691576024019190565b34610691576115a136611547565b9081156115ff575f5b8281106115b357005b6001906115f86020806115c7848888613614565b01355f6115d5858989613614565b35926115e084610d9d565b828252526115f38560405f2001546149b0565b614afd565b50016115aa565b60405163b7852ebb60e01b8152600490fd5b346106915760403660031901126106915760243561162e81610d9d565b336001600160a01b0382160361164a5761002090600435614afd565b60405163334bd91960e11b8152600490fd5b34610691575f3660031901126106915760206040515f80516020615ed18339815191528152f35b60403660031901126106915760043561169b81610d9d565b346116ae575b6100209060243590613624565b335f9081525f80516020615e9183398151915260205260409020545f80516020615ef18339815191529060ff1680156116fc575b1561089e5750610020906116f534614b33565b90506116a1565b50805f525f60205261171533600160405f200154613dea565b6116e2565b346106915760203660031901126106915760206110e160043561373c565b34610691575f3660031901126106915760206040517f59d005e32db662b94335d6bedfeb453fd2202b9f0cc7a6ed498d9098171744b08152f35b346106915760203660031901126106915760206110e16004356137d5565b34610691575f3660031901126106915760025460405160089190911c6001600160a01b03168152602090f35b34610691575f366003190112610691576020610c6e6139ce565b6040366003190112610691576004356117ee81610d9d565b34611801575b6100209060243590613a4c565b335f9081525f80516020615e9183398151915260205260409020545f80516020615ef18339815191529060ff16801561184f575b1561089e57506100209061184834614b33565b90506117f4565b50805f525f60205261186833600160405f200154613dea565b611835565b346106915761187b36610933565b60ff60035460c81c16600381101561191a5715610be557335f9081527ff077cc57293652171d5ab2b858d7a10c3dcff3b43a4fb3d0e7e51e07232e955060205260409020547f7b564705f4e61596c4a9469b6884980f89e475befabdb849d69719f0791628be929060ff1680156118fc575b15610d60576100209250615035565b50825f525f60205261191533600160405f200154613dea565b6118ed565b634e487b7160e01b5f52602160045260245ffd5b346106915760203660031901126106915760043561194b81610d9d565b6001600160a01b0361199360206119686109b2826109a43061582c565b604051600161da2560e61b031981526001600160a01b03909116600482015291829081906024820190565b0381857f0000000000000000000000000000000000000000000000000000000000000000165afa908115610b42575f91611a0a575b506119f857811630146119e657610020906119e16150e6565b615130565b604051633b07e30760e11b8152600490fd5b6040516309e1b82160e21b8152600490fd5b611a2c915060203d602011611a32575b611a248183610713565b810190613769565b5f6119c8565b503d611a1a565b604036600319011261069157600435611a5181610d9d565b34611a64575b6100209060243590614b9f565b335f9081525f80516020615e9183398151915260205260409020545f80516020615ef18339815191529060ff168015611ab2575b1561089e575061002090611aab34614b33565b9050611a57565b50805f525f602052611acb33600160405f200154613dea565b611a98565b34610691575f36600319011261069157611b2660206001600160a01b038082611af83061582c565b015160405163637e747360e01b815291166001600160a01b0316600482015292839190829081906024820190565b03917f0000000000000000000000000000000000000000000000000000000000000000165afa8015610b4257610817915f91611b6e575b506040519081529081906020820190565b611b87915060203d602011610b6d57610b5f8183610713565b5f611b5d565b34610691575f3660031901126106915760206040517f3f82ecf462ddac43fc17ba11472c35f18b7760b4f5a5fc50b9625f9b5a22cf628152f35b34610691575f3660031901126106915760206040515f80516020615ef18339815191528152f35b34610691575f3660031901126106915760206040515f80516020615f318339815191528152f35b34610691575f3660031901126106915760206040517f32d0d6546e21c13ff633616141dc9daad87d248d1d37c56bf493d06d627ecb7b8152f35b34610691575f3660031901126106915760206040517f5c17b14b08ace6dda14c9642528ae92de2a73d59eacb65c71f39f309a56110638152f35b34610691575f3660031901126106915760206040517fea19d3b23bd90fdd52445ad672f2b6fb1fef7230d49c6a827c1cd288d02994d58152f35b34610691575f366003190112610691576060611cdd613ad2565b65ffffffffffff60408051926001600160681b0381511684526020810151600c0b60208501520151166040820152f35b34610691575f36600319011261069157611b2660206001600160a01b038082611d353061582c565b0151604051630f5a052f60e11b815291166001600160a01b0316600482015292839190829081906024820190565b34610691575f3660031901126106915760206040517f9586321ac05f110e4b4a0a42aba899709345af0ca78910e8832ddfd71fed2bf48152f35b34610691575f8060031936011261069157611db661498b565b6001600160a01b036020611dc93061582c565b015116803b15610691575f80916004604051809481936379ba509760e01b83525af18015610b4257611e02575b50611dff613e11565b80f35b611e0c91506106a9565b5f80611df6565b60203660031901126106915734611e30575b610020600435613b83565b335f9081525f80516020615e9183398151915260205260409020545f80516020615ef18339815191529060ff168015611e78575b1561089e5750611e7334614b33565b611e25565b50805f525f602052611e9133600160405f200154613dea565b611e64565b34610691575f36600319011261069157611eae613c3e565b604051809160208083016020845282518091526020604085019301915f5b828110611edb57505050500390f35b835185528695509381019392810192600101611ecc565b34610691575f366003190112610691576020600354600f0b604051908152f35b604036600319011261069157611f26613e11565b611f34602435600435615184565b15611f3b57005b60405163ce2a477560e01b8152600490fd5b346106915760208060031936011261069157604051636d78045960e01b8152336004808301919091526001600160a01b037f00000000000000000000000000000000000000000000000000000000000000008116602484015290356044830181905292919082908290815f81606481015b03927f0000000000000000000000000000000000000000000000000000000000000000165af18015610b4257612062575b507f689f0a569be0c9b6cd2c11c81cb0add722272abdae6b649fdb1e05f1d9bb8a2f5f8181528083526040808220338352602052902090919060ff905416908115612044575b501561089e57610020826152ed565b5f91508282525261205c33600160405f200154613dea565b5f612035565b61207890823d8411610b6d57610b5f8183610713565b505f611fef565b34610691575f366003190112610691576120d16120a36109b260206109a43061582c565b604051630e8ddced60e41b81526001600160a01b0390911660048201526101e0918290829081906024820190565b03817f00000000000000000000000000000000000000000000000000000000000000006001600160a01b03165afa908115610b4257608061120a9261212b92610817955f92612137575b505001516001600160801b031690565b6001600160801b031690565b6121569250803d1061215d575b61214e8183610713565b810190613d36565b5f8061211b565b503d612144565b6003111561191a57565b91906020830192600382101561191a5752565b34610691575f3660031901126106915761081760ff60035460c81c166040519182918261216e565b346106915760403660031901126106915760206110e1602435600435615184565b34610691576040366003190112610691576004355f52600160205260206121f660243560405f20615b6a565b905460405160039290921b1c6001600160a01b03168152f35b34610691575f3660031901126106915761226560406001600160a01b038060206122383061582c565b01518351633451c92360e01b815291166001600160a01b0316600482015292839190829081906024820190565b03917f0000000000000000000000000000000000000000000000000000000000000000165afa908115610b42575f905f926122ad575b50604080519182526020820192909252f35b90506122d1915060403d6040116122d8575b6122c98183610713565b810190613dd4565b905f61229b565b503d6122bf565b3461069157604036600319011261069157602060ff61232460243561230381610d9d565b6004355f525f845260405f209060018060a01b03165f5260205260405f2090565b54166040519015158152f35b34610691575f36600319011261069157335f9081527f3f3dda3fcd93f9e4551f2c87aa737426b704aa48dbb418e3deea799b35c4558960205260409020547f59d005e32db662b94335d6bedfeb453fd2202b9f0cc7a6ed498d9098171744b09060ff1680156123a7575b1561089e57610020615363565b50805f525f6020526123c033600160405f200154613dea565b61239a565b34610691575f36600319011261069157602061ffff60025460a81c16604051908152f35b5f36600319011261069157610020613e11565b34610691575f3660031901126106915760206040515f8152f35b60209060206040818301928281528551809452019301915f5b82811061243d575050505090565b83516001600160a01b03168552938101939281019260010161242f565b3461069157602080600319360112610691576004355f5260018060205260405f20916040519182602085549182815201945f5260205f20925f905b8282106124b857610817866124ac818a0382610713565b60405191829182612416565b84548752958601959383019390830190612495565b34610691575f366003190112610691576124e561449a565b50600160ff1b81146124fe57610c6e6020915f036143de565b6133b9565b34610691575f3660031901126106915760206040517fb694d4d19c77484e8f232470d9bf7e10450638db998b577a833d46df71fb6d978152f35b346106915760a03660031901126106915760043561255a81610d9d565b6024359061256782610d9d565b6044359161257483610d9d565b61257d8161457a565b6002549160ff83166126df576001600160a01b0393307f00000000000000000000000000000000000000000000000000000000000000008616146126cd576125d961260d9260016126129660ff19161760025560843590615b7f565b7f5daa87a0e9463431830481fd4b6e3403442dfb9a12b9c07597e9f61d50b633c85f80a1612608606435614dd0565b6156bd565b6149f2565b5061261b615bec565b612623615c21565b61262b615c78565b612633615ccf565b60405163095ea7b360e01b81527f000000000000000000000000000000000000000000000000000000000000000082166001600160a01b031660048201525f19602482015290602090829060449082905f907f0000000000000000000000000000000000000000000000000000000000000000165af18015610b42576126b557005b6100209060203d602011611a3257611a248183610713565b60405163f9cc8ff960e01b8152600490fd5b60405162dc149f60e41b8152600490fd5b3461069157602036600319011261069157600435600381101561069157335f9081525f80516020615f11833981519152602052604090205460ff16801561275e575b156127405761002090613f31565b60405163e2517d3f60e01b81523360048201525f6024820152604490fd5b505f8080526020527fad3228b676f7d3cd4284a5443f17f1962b36e491b30a40b2405849e597ba5fb654612793903390613dea565b612732565b34610691575f36600319011261069157602060ff60035460c01c166040519015158152f35b5f36600319011261069157335f9081525f80516020615e9183398151915260205260409020545f80516020615ef18339815191529060ff16801561280a575b1561089e5761002034614b33565b50805f525f60205261282333600160405f200154613dea565b6127fc565b34610691575f3660031901126106915760206040517f689f0a569be0c9b6cd2c11c81cb0add722272abdae6b649fdb1e05f1d9bb8a2f8152f35b34610691575f36600319011261069157610020613fb1565b3461069157602036600319011261069157335f9081527fcb7e4fbe78e9a13afb63939cc0c9427aaf60e563609ce65c077053f327219a3660205260409020545f80516020615eb18339815191529060ff1680156128e5575b1561089e5761081761088c6004356154ea565b50805f525f6020526128fe33600160405f200154613dea565b6128d2565b34610691575f36600319011261069157335f9081527f081a651349dfbf423ffb5b045a53f71668561e554402e2db71c1db19bfb815a560205260409020547fa90c7030a27f389f9fc8ed21a0556f40c88130cc14a80db936bed68261819b2c9060ff16801561297a575b1561089e57610020615558565b50805f525f60205261299333600160405f200154613dea565b61296d565b34610691576020366003190112610691576004355f526001602052602060405f2054604051908152f35b81516001600160a01b031681526101408101929161076191906020818101516001600160601b0316908301526040818101516001600160601b03169083015260608181015165ffffffffffff169083015260808181015161ffff169083015260a08181015161ffff169083015260c08181015161ffff169083015260e08181015161ffff16908301526101008181015161ffff1690830152610120908101511515910152565b34610691575f366003190112610691575f610120604051612a88816106c1565b8281528260208201528260408201528260608201528260808201528260a08201528260c08201528260e0820152826101008201520152612b00612ad26109b260206109a43061582c565b60405163280be2f560e01b81526001600160a01b039091166004820152610140918290829081906024820190565b03817f00000000000000000000000000000000000000000000000000000000000000006001600160a01b03165afa908115610b4257610817925f92612b4e575b5050604051918291826129c2565b612b6d9250803d10612b74575b612b658183610713565b8101906140c8565b5f80612b40565b503d612b5b565b34610691575f3660031901126106915760206040517f7b564705f4e61596c4a9469b6884980f89e475befabdb849d69719f0791628be8152f35b3461069157612bc336610dae565b335f9081527f4484b1dfc59f1dc0cdefb53e136e0a49d05f27a27a3cd2b0d9720ecd35c630d060205260409020549092907fb694d4d19c77484e8f232470d9bf7e10450638db998b577a833d46df71fb6d979060ff168015612cb5575b1561089e57506001600160a01b03927f0000000000000000000000000000000000000000000000000000000000000000841692846020612c5f3061582c565b01511690843b15610691575f94608493878793604051998a9889976373fbd93160e01b8952600489015216602487015216604485015260648401525af18015610b4257612ca857005b80610b36610020926106a9565b50805f525f602052612cce33600160405f200154613dea565b612c20565b8015150361069157565b3461069157602036600319011261069157600435612cfa81612cd3565b335f9081527fb888a84a969c69ee493013b8ca47e9ecebe24196f231bedf425581252c3c62e360205260409020545f80516020615ed18339815191529060ff168015612d4f575b1561089e5761002082615409565b50805f525f602052612d6833600160405f200154613dea565b612d41565b34610691575f36600319011261069157611b2660206001600160a01b038082612d953061582c565b015160405163cbf9fe5f60e01b815291166001600160a01b0316600482015292839190829081906024820190565b34610691575f36600319011261069157611b2660206001600160a01b038082612deb3061582c565b01516040516330b0680b60e01b815291166001600160a01b0316600482015292839190829081906024820190565b3461069157604036600319011261069157610020602435600435612e3c82610d9d565b805f525f6020526115f3600160405f2001546149b0565b34610691575f366003190112610691576040517f00000000000000000000000000000000000000000000000000000000000000006001600160a01b03168152602090f35b34610691575f366003190112610691576040517f00000000000000000000000000000000000000000000000000000000000000006001600160a01b03168152602090f35b34610691575f366003190112610691576040517f00000000000000000000000000000000000000000000000000000000000000006001600160a01b03168152602090f35b34610691575f3660031901126106915760206040517f355caf1c2580ed8185acb5ea3573b71f85186b41bdf69e3eb8f1fcd122a562df8152f35b3461069157602036600319011261069157610020600435612f7981610d9d565b6155c5565b34610691575f36600319011261069157612f96613fb1565b335f9081527f6691f8833b7b4761748530debf638b71868148ba67d9725d03a36fa8c55c585960205260409020547f9586321ac05f110e4b4a0a42aba899709345af0ca78910e8832ddfd71fed2bf49060ff168015612ffd575b1561089e57610020615650565b50805f525f60205261301633600160405f200154613dea565b612ff0565b346106915760203660031901126106915760043561303881610d9d565b335f9081527fb888a84a969c69ee493013b8ca47e9ecebe24196f231bedf425581252c3c62e360205260409020545f80516020615ed18339815191529060ff16801561308d575b1561089e57610020826156bd565b50805f525f6020526130a633600160405f200154613dea565b61307f565b34610691575f3660031901126106915760206040515f80516020615eb18339815191528152f35b34610691575f3660031901126106915760206040517fe996ac9b332538bb1fa3cd6743aa47011623cdb94bd964a494ee9d371e4a27d38152f35b346106915760403660031901126106915760043561312981610d9d565b602435613134613575565b8082116131c45750335f9081527fd86621a8c2273efca305981f63eac7b1eb8bb1b258c36bf730770cdcb2e9c89a60205260409020547f355caf1c2580ed8185acb5ea3573b71f85186b41bdf69e3eb8f1fcd122a562df929060ff1680156131a6575b15610d6057610020925061575a565b50825f525f6020526131bf33600160405f200154613dea565b613197565b604051633cbb525b60e21b815260048101929092526024820152604490fd5b34610691575f3660031901126106915760206040517fcceeef0309e9a678ed7f11f20499aeb00a9a4b0d50e53daa428f8591debc583a8152f35b346106915761322b36611547565b906132358261459c565b5f5b82811061324057005b600190613280602080613254848888613614565b01355f613262858989613614565b359261326d84610d9d565b828252526113518560405f2001546149b0565b5001613237565b34610691575f366003190112610691576020604051610e108152f35b3461069157602080600319360112610691576132c0600435614e7e565b604051636d78045960e01b81523360048201526001600160a01b037f0000000000000000000000000000000000000000000000000000000000000000811660248301526044820183905291929182908290815f8160648101611fbe565b60208091604051928184925191829101835e81017fe4ca011a1344eb515c922209bf867930fc05bf79f4b0e3bb4ec9938eedd4770081520301902090565b90816020910312610691575161337081610d9d565b90565b6040513d5f823e3d90fd5b634e487b7160e01b5f52603260045260245ffd5b91908110156133b45760051b81013590607e1981360301821215610691570190565b61337e565b634e487b7160e01b5f52601160045260245ffd5b919082018092116124fe57565b90816020910312610691575190565b9060405191602083015260208252610761826106f8565b903590601e198136030182121561069157018035906001600160401b0382116106915760200191813603831361069157565b908060209392818452848401375f828201840152601f01601f1916010190565b96959490926134706134a8946060969460808b5260808b0191613432565b602080928a8303828c01528051918291828552018484015e5f828201840152601f01601f191601888103820160408a01520191613432565b930152565b919082039182116124fe57565b6134c261449a565b505f81810391125f82128116905f8313901516176124fe576134e3906143de565b6134eb6139ce565b808211156134ff5781039081116124fe5790565b50505f90565b61350d61449a565b50905f82820392128183128116918313901516176124fe576134e3906143de565b90600354600f0b036135635761354b613545613c3e565b36614777565b1561355e5761355990614924565b600190565b505f90565b6040516376c03f8160e01b8152600490fd5b6001600160a01b036020818161358a3061582c565b015116602460405180948193633a4952a360e01b835260048301527f0000000000000000000000000000000000000000000000000000000000000000165afa908115610b42575f916135f5575b506135e061449a565b50808211156134ff5781039081116124fe5790565b61360e915060203d602011610b6d57610b5f8183610713565b5f6135d7565b91908110156133b45760061b0190565b90613661916136338230614b9f565b6040516240cd2760e21b815260048101929092526020926001600160a01b0392908490829081906024820190565b0381867f0000000000000000000000000000000000000000000000000000000000000000165afa908115610b42576136df9385915f9361371d575b507f0000000000000000000000000000000000000000000000000000000000000000169160405180958192630ea598cb60e41b8352600483019190602083019252565b03815f855af1928315610b4257610761945f946136fe575b5050614c78565b613715929450803d10610b6d57610b5f8183610713565b915f806136f7565b613735919350823d8411610b6d57610b5f8183610713565b915f61369c565b61374581614cc0565b613750613545613c3e565b1561355e5761355990614cf3565b519061076182612cd3565b90816020910312610691575161337081612cd3565b90816080910312610691576040519060808201908282106001600160401b038311176106bc5760609160405280516137b581612cd3565b835260208101516020840152604081015160408401520151606082015290565b60206137e76109b2826109a43061582c565b60408051634a2264ef60e01b81526001600160a01b039283166004808301919091529391928290829060249082907f0000000000000000000000000000000000000000000000000000000000000000165afa908115610b42575f916139b1575b50156139a357600354839060801c6001600160401b03168261386a6109b2614d60565b855163c6290e3560e01b815293849182905afa918215610b42575f9261397b575b506001600160401b0316101561396d5760806138e8916138bc6109b26138b26109b2614d60565b926109a43061582c565b84516329938c8360e21b81526001600160a01b0390911686820190815290938492918391829160200190565b03915afa8015610b4257613904915f9161393e575b5051151590565b61393157505061391c613918613545613c3e565b1590565b61355e576135599061392c613fb1565b614dd0565b5163a9d1c85160e01b8152fd5b613960915060803d608011613966575b6139588183610713565b81019061377e565b5f6138fd565b503d61394e565b505163074a1c0760e41b8152fd5b6001600160401b0391925061399c90843d8611610b6d57610b5f8183610713565b919061388b565b50516366ad59df60e11b8152fd5b6139c89150823d8411611a3257611a248183610713565b5f613847565b6001600160a01b03602081816139e33061582c565b01511660246040518094819363329ce48960e21b835260048301527f0000000000000000000000000000000000000000000000000000000000000000165afa908115610b42575f91613a33575090565b613370915060203d602011610b6d57610b5f8183610713565b613a5861076192614e7e565b90614b9f565b519081600c0b820361069157565b519065ffffffffffff8216820361069157565b919082606091031261069157604051613a97816106dd565b80928051906001600160681b0382168203610691576040613acd9181938552613ac260208201613a5e565b602086015201613a6c565b910152565b5f60408051613ae0816106dd565b828152826020820152015260018060a01b036060816020613b003061582c565b01511660246040518094819363f9c821a760e01b835260048301527f0000000000000000000000000000000000000000000000000000000000000000165afa908115610b42575f91613b50575090565b905060603d606011613b7c575b613b678183610713565b81016060828203126106915761337091613a7f565b503d613b5d565b613b8c90614e7e565b335f9081527fe23a8bac6ee120cc0f31e97b679e63d8a06b6b0f7ec6a1eaa96912d2415af2e060205260409020547f3f82ecf462ddac43fc17ba11472c35f18b7760b4f5a5fc50b9625f9b5a22cf629060ff168015613bf5575b1561089e575061076190614a87565b50805f525f602052613c0e33600160405f200154613dea565b613be6565b6001600160401b0381116106bc5760051b60200190565b80518210156133b45760209160051b010190565b60405190613c4b826106dd565b600282526020820191604036843780928151156133b4575f90528051600110156133b45760405f80516020615ed1833981519152910152565b51906001600160601b038216820361069157565b9080601f830112156106915760409160405192613cb4846106f8565b839260c083019281841161069157935b838510613cd357505050505090565b606085830312610691578251606091613ceb826106dd565b613cf487613a5e565b8252602091613d04838901613a5e565b83820152613d13868901613a6c565b86820152815201940193613cc4565b51906001600160801b038216820361069157565b6101e081830312610691576101c0613dcc91613d8b613d53610734565b94613d5e8184613a7f565b8652613d6c60608401613c84565b6020870152613d7d60808401613c84565b604087015260a08301613c98565b6060850152613d9d6101608201613d22565b6080850152613daf6101808201613d22565b60a0850152613dc16101a08201613d22565b60c085015201613d22565b60e082015290565b9190826040910312610691576020825192015190565b5f908152602081815260408083206001600160a01b0390941683529290522060ff90541690565b600354613e229060c01c60ff161590565b613f1f5734613eca575b7f00000000000000000000000000000000000000000000000000000000000000006001600160a01b0316613e5f81615130565b613e706109b260206109a43061582c565b90803b156106915760405163135c2b5960e31b81526001600160a01b039290921660048301525f908290602490829084905af18015610b4257613eb7575b506107616153d0565b80610b36613ec4926106a9565b5f613eae565b613edb6109b260206109a43061582c565b803b15610691575f600491604051928380926316c1a85160e31b825234905af18015610b4257613f0c575b50613e2c565b80610b36613f19926106a9565b5f613f06565b604051637a8a289560e11b8152600490fd5b60035460ff8160c81c16600381101561191a57600383101561191a578214613f9f5760ff60c81b191660c882901b60ff60c81b16176003556040517f68220b6dc201f298c3f09f3393c1a4478820688ce88961dc1cb02024fcf59696918190613f9a908261216e565b0390a1565b604051638962055d60e01b8152600490fd5b613fb961449a565b81156140aa57613fcb90600f0b615451565b7f00000000000000000000000000000000000000000000000000000000000000006001600160a01b03166140066109b260206109a43061582c565b60025460081c6001600160a01b031690823b1561069157604051636ce5768960e11b81526001600160a01b0391821660048201529116602482015260448101839052905f908290606490829084905af18015610b4257614097575b5060405190815233907f162d1bd441302d30f3518ecf74ae22981001e3fc1a44fc4ffe930cb4e7cfb9859080602081015b0390a2565b80610b366140a4926106a9565b5f614061565b5050565b519061076182610d9d565b519061ffff8216820361069157565b9081610140910312610691576140dc610754565b906140e6816140ae565b82526140f460208201613c84565b602083015261410560408201613c84565b604083015261411660608201613a6c565b6060830152614127608082016140b9565b608083015261413860a082016140b9565b60a083015261414960c082016140b9565b60c083015261415a60e082016140b9565b60e083015261010061416d8183016140b9565b9083015261417f61012080920161375e565b9082015290565b5f80516020615f318339815191525c1561419c57565b335f9081525f80516020615e9183398151915260205260409020545f80516020615ef18339815191529060ff1680156141df575b1561089e575061076134614b33565b50805f525f6020526141f833600160405f200154613dea565b6141d0565b5f60206001600160a01b036024816142136157d9565b16918361421f3061582c565b015116604051948593849262e9e89b60e21b845260048401525af1908115610b42575f9161424b575090565b613370915060203d602011611a3257611a248183610713565b60015f80516020615f318339815191525d565b335f9081527fa36a77adc5083889afd8014e03fe69f70ca47cba7ffc014f23c639719fa1639160205260409020547f5c17b14b08ace6dda14c9642528ae92de2a73d59eacb65c71f39f309a56110639060ff168015614369575b1561089e57506001600160a01b037f000000000000000000000000000000000000000000000000000000000000000081169190602061430f3061582c565b01511690823b1561069157604051636ce5768960e11b81526001600160a01b0390921660048301523060248301526044820152905f908290818381606481015b03925af18015610b42576143605750565b610761906106a9565b50805f525f60205261438233600160405f200154613dea565b6142d1565b5f5f80516020615f318339815191525d565b6001600160681b0381116143cc57600354600f0b5f82820192831291129080158216911516176124fe5761076190614924565b60405163d5fb0ac560e01b8152600490fd5b61442c906020906001600160a01b0380836143f83061582c565b015116604051809581948293633641439f60e11b84526004840160209093929193604081019460018060a01b031681520152565b03917f0000000000000000000000000000000000000000000000000000000000000000165afa908115610b42575f91613a33575090565b600f91820b910b03906f7fffffffffffffffffffffffffffffff1982126f7fffffffffffffffffffffffffffffff8313176124fe57565b5f906144c36144a7613ad2565b60206001600160681b03825116910151600c0b90600f0b614463565b906144d3600354600f0b83614463565b600f0b5f81136144e05750565b90925061ffff60025460a81c16908181029181830414901517156124fe57612710900491565b6001600160a01b037f000000000000000000000000000000000000000000000000000000000000000081169190602061453e3061582c565b01511691803b156106915761434f935f80946040519687958694859363015a8f6160e61b85526004850152604060248501526044840191613432565b6001600160a01b03161561458a57565b60405163d92e233d60e01b8152600490fd5b156115ff57565b35906001600160401b038216820361069157565b90936001600160a01b037f0000000000000000000000000000000000000000000000000000000000000000811694909260209084826145f53061582c565b01511697873b15610691579795949392906146326020916040519a8b99632f00a7e160e01b8b5260048b0152608060248b015260848a0191613432565b8781036003190160448901528281520194915f5b82811061467e57505050505f949284928392166064830152039134905af18015610b42576146715750565b80610b36610761926106a9565b9193949583975090806001926001600160401b0361469c83976145a3565b16815201970191019188969594939192614646565b906146bb82613c13565b6146c86040519182610713565b82815280926146d9601f1991613c13565b0190602036910137565b60206040518281935f833781017fe4ca011a1344eb515c922209bf867930fc05bf79f4b0e3bb4ec9938eedd4770081520301902090565b5f1981146124fe5760010190565b91608093918352602083015260606040830152806060830152805f848401375f828201840152601f01601f1916010190565b916147739183549060031b91821b915f19901b19161790565b9055565b815115614912578151915f61478b846146b1565b5f6147b77fe4ca011a1344eb515c922209bf867930fc05bf79f4b0e3bb4ec9938eedd4770154426133cd565b925f5b8781106148615750901561484f5785036148045750505f5b8381106147e25750505050600190565b805f6147fd6147f360019486613c2a565b516107f9876146e3565b55016147d2565b5f9391935b85811061481a575050505050505f90565b8061483061482a60019385613c2a565b51151590565b61483b575b01614809565b856148496147f38388613c2a565b55614835565b60405163dd16cb2360e01b8152600490fd5b61486b8187613c2a565b51926148773385613dea565b156148de575060019061488a829361471a565b9361489e6148988388613c2a565b60019052565b6040517f52a98ceea5bf73fc6482a17b325efa51b21372c60578c2fa4cac0c2fa780035a3391806148d1368c4284614728565b0390a35b019190916147ba565b91926148ee42916107f98a6146e3565b5410156148fe575b6001906148d5565b9161490a60019161471a565b9290506148f6565b60405163f814a95b60e01b8152600490fd5b61492d90615451565b7f1fe74426fce2bea9b5ddc0faf3f9ff6e595cf9cfb1e5167d7df5196e61884f7660206003546001600160401b0360801b4260801b16906001600160401b0360801b191617806003556001600160401b036040519160801c168152a1565b335f9081525f80516020615f11833981519152602052604090205460ff161561274057565b5f8181526020818152604080832033845290915290205460ff16156149d25750565b60405163e2517d3f60e01b81523360048201526024810191909152604490fd5b6149fb81615872565b9081614a05575090565b5f80516020615ed18339815191525f526001602052614a4d906001600160a01b03167fa5a481183f76091139902c30e9c198fa5bc995beffa115a7cdc58a48752719ad615d26565b5090565b614a5b82826159a4565b9182614a6657505090565b5f91825260016020526040909120614a4d916001600160a01b031690615d26565b6001600160a01b037f0000000000000000000000000000000000000000000000000000000000000000811691906020614abf3061582c565b01511690823b15610691576040516303da9b9d60e41b81526001600160a01b0390921660048301526024820152905f9082908183816044810161434f565b614b078282615a0d565b9182614b1257505090565b5f91825260016020526040909120614a4d916001600160a01b031690615dd2565b6001600160a01b037f00000000000000000000000000000000000000000000000000000000000000008116906020614b6a3061582c565b01511690803b156106915760245f926040519485938492630460488160e31b845260048401525af18015610b42576143605750565b9190614ba96134ba565b808211614c595750335f9081527fd8ab213733a751ec9ca51242fa42dd7f07dc61105cb44f3595d018b75a32f4f560205260409020547fe996ac9b332538bb1fa3cd6743aa47011623cdb94bd964a494ee9d371e4a27d3939060ff168015614c3b575b15614c1c57610761929350615a91565b60405163e2517d3f60e01b815233600482015260248101859052604490fd5b50835f525f602052614c5433600160405f200154613dea565b614c0c565b60405163087df69d60e41b815260048101929092526024820152604490fd5b60405163a9059cbb60e01b60208201526001600160a01b039092166024830152604482019290925261076191614cbb82606481015b03601f198101845283610713565b615b10565b610e108110908115614ce6575b50614cd457565b60405163bbc3a3e360e01b8152600490fd5b62278d009150115f614ccd565b614cfc81614cc0565b7fe4ca011a1344eb515c922209bf867930fc05bf79f4b0e3bb4ec9938eedd4770180549082905560408051918252602082019290925233917f437dc1a3e26abf0b8381463abca48d1e7d322e803c2b160d3ee75c04a492a182919081908101614092565b604051630b8e411760e21b81526001600160a01b03906020816004817f000000000000000000000000000000000000000000000000000000000000000086165afa908115610b42575f91614db357501690565b614dcc915060203d602011610bde57610bcf8183610713565b1690565b6127108111614e6c5760025461ffff808311614e4c5761ffff60a81b60a884811b9190911661ffff60a81b198416176002556040805161ffff9490921c83168416825291909316909116602083015233917f1c3c8e6f32105765effac40e608a5c2d4bd76a0cb0faff13f170d9ce6b99a9859181908101614092565b6040516306dfcc6560e41b81526010600482015260248101849052604490fd5b60405163137b7b8960e31b8152600490fd5b604051631920845160e01b815260048101919091526020816024817f00000000000000000000000000000000000000000000000000000000000000006001600160a01b03165afa908115610b42575f91613a33575090565b91908110156133b45760051b8101359060be1981360301821215610691570190565b81835290916001600160fb1b0383116106915760209260051b809284830137010190565b9035601e19823603018112156106915701602081359101916001600160401b03821161069157813603831361069157565b6001600160a01b03909116815260406020820152813536839003601e190181121561069157820190602082359201916001600160401b038111610691578060051b360383136106915761502760a0614fd9614fba6133709660e09560c06040890152610100880191614ef8565b614fc76020890189614f1c565b878303603f1901606089015290613432565b9560408101356080860152615002614ff3606083016145a3565b6001600160401b031686840152565b615021615011608083016145a3565b6001600160401b031660c0870152565b016145a3565b6001600160401b0316910152565b7f00000000000000000000000000000000000000000000000000000000000000006001600160a01b031691905f5b8281106150705750505050565b6150816109b260206109a43061582c565b9061508d818585614ed6565b91853b156106915760405163015004fd60e61b8152925f91849182916150b7919060048401614f4d565b038183895af1918215610b42576001926150d3575b5001615063565b80610b366150e0926106a9565b5f6150cc565b6150ee61498b565b6001600160a01b0360206151013061582c565b015116803b15610691575f80916004604051809481936379ba509760e01b83525af18015610b42576143605750565b61513861498b565b6001600160a01b039081602061514d3061582c565b01511691823b156106915760245f9283604051958694859363f2fde38b60e01b85521660048401525af18015610b42576143605750565b335f9081527fcb7e4fbe78e9a13afb63939cc0c9427aaf60e563609ce65c077053f327219a366020908152604090912054909291905f80516020615eb18339815191529060ff168015615249575b1561089e5750829060646001600160a01b035f816151ee6157d9565b1691856151fa3061582c565b0151169160405196879586946321d5a4bf60e11b86526004860152602485015260448401525af1918215610b42575f9261523357505090565b6133709250803d10611a3257611a248183610713565b50805f525f845261526133600160405f200154613dea565b6151d2565b335f9081527fa2e2d001ecdfead4b8d27592f8b4686eb9b6cd4f5dec9f06f76377b2d0a1a1bb60205260409020547f689f0a569be0c9b6cd2c11c81cb0add722272abdae6b649fdb1e05f1d9bb8a2f9060ff1680156152cf575b1561089e5750610761906152ed565b50805f525f6020526152e833600160405f200154613dea565b6152c0565b6001600160a01b037f00000000000000000000000000000000000000000000000000000000000000008116919060206153253061582c565b01511690823b1561069157604051633b9e9f0160e21b81526001600160a01b0390921660048301526024820152905f9082908183816044810161434f565b6001600160a01b037f0000000000000000000000000000000000000000000000000000000000000000811690602061539a3061582c565b015116813b15610691575f9160248392604051948593849263ee762f2b60e01b845260048401525af18015610b42576143605750565b60ff60c01b19600354166003557f73b5872ba8049977a1ad419d435c15705d18672abe0f6b5f49b736596e6375ce60206040515f8152a1565b60207f73b5872ba8049977a1ad419d435c15705d18672abe0f6b5f49b736596e6375ce91151560035460ff60c01b8260c01b169060ff60c01b191617600355604051908152a1565b6003549081600f0b918183146154d85781600f0b918083036154b957917f7f29b6786ecc11a170b9116d66fbebf938f32d8a5191d47eb93866b05a2118ce93916040936001600160801b0316906001600160801b0319161760035582519182526020820152a1565b6044906040519063327269a760e01b8252608060048301526024820152fd5b604051631e3c172560e21b8152600490fd5b615543906020906001600160a01b03806155026157d9565b16908361550e3061582c565b0151165f6040518096819582946392dc494b60e01b84526004840160209093929193604081019460018060a01b031681520152565b03925af1908115610b42575f9161424b575090565b6001600160a01b037f0000000000000000000000000000000000000000000000000000000000000000811690602061558f3061582c565b015116813b15610691575f91602483926040519485938492633ffa490d60e01b845260048401525af18015610b42576143605750565b6155d0613545613c3e565b1561564d576001600160a01b037f000000000000000000000000000000000000000000000000000000000000000081169190602061560d3061582c565b01511690823b156106915760405163fdc10daf60e01b81526001600160a01b03928316600482015291166024820152905f9082908183816044810161434f565b50565b6001600160a01b037f000000000000000000000000000000000000000000000000000000000000000081169060206156873061582c565b015116813b15610691575f91602483926040519485938492632c4422a760e11b845260048401525af18015610b42576143605750565b6156c68161457a565b6002546001600160a01b03600882901c81169291908216831461574857610100600160a81b031916600882901b610100600160a81b031617600255604080516001600160a01b03938416815292909116602083015233917fe8c1c849e9613f6cea14a88ffc6959a1071296c3d716586582d7a84ac33342c09181908101614092565b60405163f012261f60e01b8152600490fd5b906001600160a01b037f00000000000000000000000000000000000000000000000000000000000000008116919060206157933061582c565b01511691803b1561069157604051636ce5768960e11b81526001600160a01b03938416600482015293909216602484015260448301525f9082908183816064810161434f565b604051631734070560e31b81526001600160a01b03906020816004817f000000000000000000000000000000000000000000000000000000000000000086165afa908115610b42575f91614db357501690565b803b90602c1982019182116124fe57602d61585f61584984610763565b936158576040519586610713565b808552610763565b6020840190601f19013682378351923c90565b6001600160a01b0381165f9081527fb888a84a969c69ee493013b8ca47e9ecebe24196f231bedf425581252c3c62e3602052604090205f80516020615ed18339815191529060ff905b54166134ff575f818152602081815260408083206001600160a01b03861684529091529020805460ff1916600117905533916001600160a01b0316907f2f8788117e7eff1d82e926ec794901d17c78024a50270940304540a733656f0d5f80a4600190565b6001600160a01b0381165f9081525f80516020615f11833981519152602052604090205460ff1661355e576001600160a01b03165f8181525f80516020615f1183398151915260205260408120805460ff191660011790553391907f2f8788117e7eff1d82e926ec794901d17c78024a50270940304540a733656f0d8180a4600190565b5f818152602081815260408083206001600160a01b0386168452909152902060ff906158bb565b6040516323b872dd60e01b60208201526001600160a01b039283166024820152929091166044830152606482019290925261076191614cbb8260848101614cad565b5f818152602081815260408083206001600160a01b038616845290915290205460ff16156134ff575f818152602081815260408083206001600160a01b03861684529091529020805460ff1916905533916001600160a01b0316907ff6391f5c32d9c69d2a47ea670b442974b53935d1edc7fd64eb21e047a839171b5f80a4600190565b906001600160a01b037f0000000000000000000000000000000000000000000000000000000000000000811691906020615aca3061582c565b01511691803b1561069157604051635fc5d2cb60e11b81526001600160a01b03938416600482015293909216602484015260448301525f9082908183816064810161434f565b905f602091828151910182855af115613373575f513d615b6157506001600160a01b0381163b155b615b3f5750565b604051635274afe760e01b81526001600160a01b039091166004820152602490fd5b60011415615b38565b80548210156133b4575f5260205f2001905f90565b9061076191615b8d8161457a565b615b9681615920565b615baa575b50615ba581614cc0565b614cf3565b5f80526001602052615be5906001600160a01b03167fa6eef7e35abe7026729641147f7915573c7e97b47efa546f5f6e3230263bcb49615d26565b505f615b9b565b5f80516020615ed1833981519152805f525f602052600160405f20018181549155815f80516020615e718339815191525f80a4565b7fcceeef0309e9a678ed7f11f20499aeb00a9a4b0d50e53daa428f8591debc583a805f525f602052600160405f2001908154905f80516020615ed18339815191528093555f80516020615e718339815191525f80a4565b7f5c17b14b08ace6dda14c9642528ae92de2a73d59eacb65c71f39f309a5611063805f525f602052600160405f2001908154905f80516020615ed18339815191528093555f80516020615e718339815191525f80a4565b7f7b564705f4e61596c4a9469b6884980f89e475befabdb849d69719f0791628be805f525f602052600160405f2001908154905f80516020615ed18339815191528093555f80516020615e718339815191525f80a4565b6001810190825f528160205260405f2054155f14615d8e578054680100000000000000008110156106bc57615d7b615d65826001879401855584615b6a565b819391549060031b91821b915f19901b19161790565b905554915f5260205260405f2055600190565b5050505f90565b8054908115615dbe575f1991820191615dae8383615b6a565b909182549160031b1b1916905555565b634e487b7160e01b5f52603160045260245ffd5b6001810191805f528260205260405f2054928315155f14615e68575f1992848401908582116124fe5780549485019485116124fe575f958583615e21976107f99503615e27575b505050615d95565b55600190565b615e51615e4b91615e3b615e5f9487615b6a565b90549060031b1c92839187615b6a565b9061475a565b85905f5260205260405f2090565b555f8080615e19565b505050505f9056febd79b86ffe0ab8e8776151514217cd7cacd52c909f66475c3af44e129f0b00ff6fe412e9d35aac9d96821beeae87f7dbc832b35e704e374aa2575d81ecc7787e25482e7dc9e29f6da5bd70b6d19d17bbf44021da51ba0664a9f430c94a09c67459783a4ae82167eefad593739a5430c1d9e896a16c35f1e5285ddd0c0980885c933b7d5c112a4d05b489cea0b2ced98acb27d3d0fc9827c92cdacb2d6c5559c2ad3228b676f7d3cd4284a5443f17f1962b36e491b30a40b2405849e597ba5fb57408b7b034fda7051615c19182918ecb91d753231cffd86f81a45d996d63e038a26469706673582212204a21ddbef9a9cc70d1809b50553793fa60e6a7693a0ba9350018b36becc11b8c64736f6c63430008190033","linkReferences":{}},"methodIdentifiers":{"BURN_ROLE()":"b930908f","COLLECT_VAULT_ERC20_ROLE()":"a69f3e0c","DEFAULT_ADMIN_ROLE()":"a217fddf","FUND_ON_RECEIVE_FLAG_SLOT()":"634bd91a","FUND_ROLE()":"5bc71363","LIDO_LOCATOR()":"dbba4b48","MAX_CONFIRM_EXPIRY()":"0bff8881","MINT_ROLE()":"e9a9c850","MIN_CONFIRM_EXPIRY()":"f6c76318","NODE_OPERATOR_FEE_EXEMPT_ROLE()":"f55f7b78","NODE_OPERATOR_MANAGER_ROLE()":"3a04d4f3","NODE_OPERATOR_PROVE_UNKNOWN_VALIDATOR_ROLE()":"cc91d226","NODE_OPERATOR_UNGUARANTEED_DEPOSIT_ROLE()":"69f949a1","PAUSE_BEACON_CHAIN_DEPOSITS_ROLE()":"2c0772b4","REBALANCE_ROLE()":"5680e145","REQUEST_VALIDATOR_EXIT_ROLE()":"699d79bd","RESUME_BEACON_CHAIN_DEPOSITS_ROLE()":"43c71057","STETH()":"e00bfe50","TRIGGER_VALIDATOR_WITHDRAWAL_ROLE()":"6ab15836","VAULT_CONFIGURATION_ROLE()":"e9897da8","VAULT_HUB()":"196b9e06","VOLUNTARY_DISCONNECT_ROLE()":"6d475566","WITHDRAW_ROLE()":"e02023a1","WSTETH()":"d9fb643a","abandonDashboard(address)":"5251ebf9","accruedFee()":"0e5f5dbd","addFeeExemption(uint256)":"2f208945","burnShares(uint256)":"853c637d","burnStETH(uint256)":"ff108ccb","burnWstETH(uint256)":"32cd7ebf","changeTier(uint256,uint256)":"8c5d3e34","collectERC20FromVault(address,address,uint256)":"cdfdbcd2","confirmation(bytes,bytes32)":"032d9b30","confirmingRoles()":"7b108d92","connectAndAcceptTier(uint256,uint256)":"845d0a3a","connectToVaultHub()":"9c9708a9","correctSettledGrowth(int256,int256)":"1f02bb95","disburseFee()":"ba75b623","feeRate()":"978bbdb9","feeRecipient()":"46904840","fund()":"b60d4288","getConfirmExpiry()":"0b91990d","getRoleAdmin(bytes32)":"248a9ca3","getRoleMember(bytes32,uint256)":"9010d07c","getRoleMemberCount(bytes32)":"ca15c873","getRoleMembers(bytes32)":"a3246ad3","grantRole(bytes32,address)":"2f2ff15d","grantRoles((address,bytes32)[])":"f634dcbd","hasRole(bytes32,address)":"91d14854","healthShortfallShares()":"56275a35","initialize(address,address,address,uint256,uint256)":"a6b63eb8","initialized()":"158ef93e","isApprovedToConnect()":"b5aabd7a","latestCorrectionTimestamp()":"0a300c84","latestReport()":"6af6eeed","liabilityShares()":"4bc36840","locked()":"cf309012","maxLockableValue()":"2ae87c3e","minimalReserve()":"875c0b69","mintShares(address,uint256)":"528c198a","mintStETH(address,uint256)":"50d99dd4","mintWstETH(address,uint256)":"3e619a6c","obligations()":"9050b560","obligationsShortfallValue()":"6ba1cf19","pauseBeaconChainDeposits()":"bddf300c","pdgPolicy()":"888dbb5b","proveUnknownValidatorsToPDG((bytes32[],bytes,uint256,uint64,uint64,uint64)[])":"520107ad","rebalanceVaultWithEther(uint256)":"722adad2","rebalanceVaultWithShares(uint256)":"3046bf47","reconnectToVaultHub()":"70b24b69","recoverERC20(address,address,uint256)":"1171bda9","remainingMintingCapacityShares(uint256)":"0c7c9246","renounceRole(bytes32,address)":"36568abe","requestValidatorExit(bytes)":"10741552","resumeBeaconChainDeposits()":"95631105","revokeRole(bytes32,address)":"d547741f","revokeRoles((address,bytes32)[])":"35763d2b","setApprovedToConnect(bool)":"ce477e0c","setConfirmExpiry(uint256)":"3efd8597","setFeeRate(uint256)":"45596e2e","setFeeRecipient(address)":"e74b981b","setPDGPolicy(uint8)":"b39f16f4","settledGrowth()":"82a8ed02","stakingVault()":"24e7964a","supportsInterface(bytes4)":"01ffc9a7","syncTier()":"068f7801","totalMintingCapacityShares()":"a6218709","totalValue()":"d4c3eea0","transferVaultOwnership(address)":"e071c0ca","triggerValidatorWithdrawals(bytes,uint64[],address)":"13e40efb","unguaranteedDepositToBeaconChain((bytes,bytes,uint256,bytes32)[])":"0a4a3ed2","updateShareLimit(uint256)":"bc95a684","vaultConnection()":"ca8317af","voluntaryDisconnect()":"e6c772d4","withdraw(address,uint256)":"f3fef3a3","withdrawableValue()":"2959843a"},"id":47}