{"abi":[{"type":"constructor","inputs":[{"name":"_lidoLocator","type":"address","internalType":"address"}],"stateMutability":"nonpayable"},{"type":"function","name":"CONSOLIDATION_REQUEST_PREDEPLOY_ADDRESS","inputs":[],"outputs":[{"name":"","type":"address","internalType":"address"}],"stateMutability":"view"},{"type":"function","name":"LIDO_LOCATOR","inputs":[],"outputs":[{"name":"","type":"address","internalType":"contract ILidoLocator"}],"stateMutability":"view"},{"type":"function","name":"getConsolidationRequestFee","inputs":[],"outputs":[{"name":"","type":"uint256","internalType":"uint256"}],"stateMutability":"view"},{"type":"function","name":"getConsolidationRequestsAndFeeExemptionEncodedCalls","inputs":[{"name":"_sourcePubkeys","type":"bytes[]","internalType":"bytes[]"},{"name":"_targetPubkeys","type":"bytes[]","internalType":"bytes[]"},{"name":"_dashboard","type":"address","internalType":"address"},{"name":"_allSourceValidatorBalancesWei","type":"uint256","internalType":"uint256"}],"outputs":[{"name":"feeExemptionEncodedCall","type":"bytes","internalType":"bytes"},{"name":"consolidationRequestEncodedCalls","type":"bytes[]","internalType":"bytes[]"}],"stateMutability":"view"},{"type":"error","name":"ConsolidationFeeInvalidData","inputs":[]},{"type":"error","name":"ConsolidationFeeReadFailed","inputs":[]},{"type":"error","name":"DashboardNotOwnerOfStakingVault","inputs":[]},{"type":"error","name":"InvalidAllSourceValidatorBalancesWei","inputs":[]},{"type":"error","name":"MalformedSourcePubkeysArray","inputs":[]},{"type":"error","name":"MalformedTargetPubkey","inputs":[]},{"type":"error","name":"MismatchingSourceAndTargetPubkeysCount","inputs":[{"name":"sourcePubkeysCount","type":"uint256","internalType":"uint256"},{"name":"targetPubkeysCount","type":"uint256","internalType":"uint256"}]},{"type":"error","name":"NoConsolidationRequests","inputs":[]},{"type":"error","name":"VaultNotConnected","inputs":[]},{"type":"error","name":"ZeroArgument","inputs":[{"name":"argName","type":"string","internalType":"string"}]}],"bytecode":{"object":"0x60a03460a857601f610ad538819003918201601f19168301916001600160401b0383118484101760ac5780849260209460405283398101031260a857516001600160a01b0381169081900360a8578015607357608052604051610a1490816100c18239608051818181605a01526101530152f35b6040516356e4289360e01b815260206004820152600c60248201526b2fb634b237a637b1b0ba37b960a11b6044820152606490fd5b5f80fd5b634e487b7160e01b5f52604160045260245ffdfe60806040526004361015610011575f80fd5b5f3560e01c80631e515533146107e557806351d7ab97146100b9578063db0ca4df1461008d5763dbba4b4814610045575f80fd5b34610089575f366003190112610089576040517f00000000000000000000000000000000000000000000000000000000000000006001600160a01b03168152602090f35b5f80fd5b34610089575f36600319011261008957602060405171bbddc7ce488642fb579f8b00f3a5900072518152f35b346100895760803660031901126100895760043567ffffffffffffffff8111610089576100ea90369060040161089c565b9060243567ffffffffffffffff81116100895761010b90369060040161089c565b6001600160a01b0393604435858116908190036100895760609582156107af5783156107795781156107475783830361072957604051636dd6e80b60e01b81526020816004817f000000000000000000000000000000000000000000000000000000000000000086165afa80156105ec5782915f916106ed575b5016604051631273cb2560e11b8152602081600481875afa80156105ec5783915f916106af575b50166040516303ff25db60e61b8152816004820152602081602481865afa9081156105ec575f91610675575b50158015610609575b6105f75760405191829163280be2f560e01b835260048301528160246101409384935afa9182156105ec575f926104f6575b50505116036104e4575f935f5b82811061046957506064351515928380610446575b6104345761025b610245876109b2565b9661025360405198896108f1565b8088526109b2565b601f19959086015f5b8181106104245750505f905f5b85811061034d575050505050506102fd575b9061029d92916040519384936040855260408501906108cd565b8381036020850152825190818152602081016020808460051b8401019501935f925b8484106102cc5787870388f35b919395819395975060206102eb82600194868495030188528a516108cd565b980194019401918796959394916102bf565b9160405190632f20894560e01b6020830152606435602483015260248252810181811067ffffffffffffffff8211176103395760405291610283565b634e487b7160e01b5f52604160045260245ffd5b61035881878761095c565b5f91505b603081048210610370575050600101610271565b9093846030810204603014851517156104105760308086020160308602116104105761039d83898961095c565b6030808802011161008957816104066001938e60306103f687968c838f8d8f916103c69261095c565b91909360405196879402016020840137806050938484015f81523781015f838201520360308101845201826108f1565b61040083836109ca565b526109ca565b500194019061035c565b634e487b7160e01b5f52601160045260245ffd5b808a602080938c01015201610264565b60405163ef3ad80760e01b8152600490fd5b5067de0b6b3a764000008087029087820414871517156104105760643510610235565b9461047586858761095c565b60309150602f19016104d25761048c87858561095c565b90508181066104c0570480156104ae5781018091116104105794600101610220565b60405163b5c1f6df60e01b8152600490fd5b60405163ee454e3160e01b8152600490fd5b6040516335bbedf560e01b8152600490fd5b6040516309c389e160e11b8152600490fd5b9080925081813d83116105e5575b61050e81836108f1565b810103126100895760405191820182811067ffffffffffffffff8211176103395760405261053b81610913565b825261054960208201610934565b602083015261055a60408201610934565b60408301528881015165ffffffffffff8116810361008957898301526105826080820161094d565b608083015261059360a0820161094d565b60a08301526105a460c0820161094d565b60c08301526105b560e0820161094d565b60e08301526101006105c881830161094d565b908301526105da610120809201610927565b908201528880610213565b503d610504565b6040513d5f823e3d90fd5b60405163163260d960e11b8152600490fd5b5060405163f9c8d46b60e01b815260048101829052602081602481865afa9081156105ec575f9161063b575b506101e1565b90506020813d60201161066d575b81610656602093836108f1565b810103126100895761066790610927565b8a610635565b3d9150610649565b90506020813d6020116106a7575b81610690602093836108f1565b81010312610089576106a190610927565b8a6101d8565b3d9150610683565b9150506020813d6020116106e5575b816106cb602093836108f1565b81010312610089575182811681036100895782908a6101ac565b3d91506106be565b9150506020813d602011610721575b81610709602093836108f1565b810103126100895761071b8291610913565b89610185565b3d91506106fc565b60448385604051916327787d3f60e11b835260048301526024820152fd5b6040516356e4289360e01b815260206004820152600960248201526819185cda189bd85c9960ba1b6044820152606490fd5b6040516356e4289360e01b815260206004820152600d60248201526c7461726765745075626b65797360981b6044820152606490fd5b6040516356e4289360e01b815260206004820152600d60248201526c736f757263655075626b65797360981b6044820152606490fd5b34610089575f366003190112610089575f80808071bbddc7ce488642fb579f8b00f3a5900072515afa3d15610894573d9067ffffffffffffffff8211610339576040519161083d601f8201601f1916602001846108f1565b82523d5f602084013e5b156108825760208151036108705760208180518101031261008957602080910151604051908152f35b60405163b3acc01160e01b8152600490fd5b60405163f669202160e01b8152600490fd5b606090610847565b9181601f840112156100895782359167ffffffffffffffff8311610089576020808501948460051b01011161008957565b805180835260209291819084018484015e5f828201840152601f01601f1916010190565b90601f8019910116810190811067ffffffffffffffff82111761033957604052565b51906001600160a01b038216820361008957565b5190811515820361008957565b51906bffffffffffffffffffffffff8216820361008957565b519061ffff8216820361008957565b919081101561099e5760051b81013590601e198136030182121561008957019081359167ffffffffffffffff8311610089576020018236038113610089579190565b634e487b7160e01b5f52603260045260245ffd5b67ffffffffffffffff81116103395760051b60200190565b805182101561099e5760209160051b01019056fea2646970667358221220010b5244e34f6ebd51b88ad68b1d4cb87dff0533046b2dcc77cb9205654ad56664736f6c63430008190033","linkReferences":{}},"methodIdentifiers":{"CONSOLIDATION_REQUEST_PREDEPLOY_ADDRESS()":"db0ca4df","LIDO_LOCATOR()":"dbba4b48","getConsolidationRequestFee()":"1e515533","getConsolidationRequestsAndFeeExemptionEncodedCalls(bytes[],bytes[],address,uint256)":"51d7ab97"},"id":45}